{
  "contractName": "Lockable",
  "abi": [
    {
      "constant": true,
      "inputs": [],
      "name": "MAX_LOCK_DURATION",
      "outputs": [
        {
          "name": "",
          "type": "uint256"
        }
      ],
      "payable": false,
      "stateMutability": "view",
      "type": "function"
    },
    {
      "constant": true,
      "inputs": [
        {
          "name": "_member",
          "type": "address"
        }
      ],
      "name": "getUnlockTime",
      "outputs": [
        {
          "name": "",
          "type": "uint256"
        }
      ],
      "payable": false,
      "stateMutability": "view",
      "type": "function"
    },
    {
      "constant": true,
      "inputs": [],
      "name": "getLockDuration",
      "outputs": [
        {
          "name": "",
          "type": "uint256"
        }
      ],
      "payable": false,
      "stateMutability": "view",
      "type": "function"
    },
    {
      "constant": true,
      "inputs": [
        {
          "name": "_member",
          "type": "address"
        }
      ],
      "name": "isLocking",
      "outputs": [
        {
          "name": "",
          "type": "bool"
        }
      ],
      "payable": false,
      "stateMutability": "view",
      "type": "function"
    }
  ],
  "bytecode": "0x608060405234801561001057600080fd5b50610259806100206000396000f3fe608060405260043610610062576000357c0100000000000000000000000000000000000000000000000000000000900463ffffffff1680634f1bfc9e14610067578063d12c33b714610092578063dbed1e88146100fb578063e239c40014610160575b600080fd5b34801561007357600080fd5b5061007c61018b565b6040518082815260200191505060405180910390f35b34801561009e57600080fd5b506100e1600480360360208110156100b557600080fd5b81019080803573ffffffffffffffffffffffffffffffffffffffff169060200190929190505050610191565b604051808215151515815260200191505060405180910390f35b34801561010757600080fd5b5061014a6004803603602081101561011e57600080fd5b81019080803573ffffffffffffffffffffffffffffffffffffffff1690602001909291905050506101db565b6040518082815260200191505060405180910390f35b34801561016c57600080fd5b50610175610223565b6040518082815260200191505060405180910390f35b60025481565b6000426000808473ffffffffffffffffffffffffffffffffffffffff1673ffffffffffffffffffffffffffffffffffffffff16815260200190815260200160002054119050919050565b60008060008373ffffffffffffffffffffffffffffffffffffffff1673ffffffffffffffffffffffffffffffffffffffff168152602001908152602001600020549050919050565b600060015490509056fea165627a7a723058204267c1efb00994bda06460f9d719ced312a57725dca37604701bfbcc086271840029",
  "source": "pragma solidity ^0.5.0;\n\ncontract Lockable {\n    mapping(address => uint256) internal unlockTime;\n    uint256 internal lockDuration;\n    uint256 public MAX_LOCK_DURATION; // = 30 days;\n\n    modifier notLocking() {\n        require(!isLocking(msg.sender), \"still locking\");\n        _;\n    }\n\n    modifier validLockDuration(uint256 _lockDuration) {\n        require(_lockDuration <= MAX_LOCK_DURATION, \"dont lock too long\");\n        _;\n    }\n\n    function _setLockDuration(\n        uint256 _lockDuration\n    )\n        internal\n        validLockDuration(_lockDuration)\n    {\n        lockDuration = _lockDuration;\n    }\n\n    function _setLock(\n        address _member\n    )\n        internal\n    {\n        unlockTime[_member] = block.timestamp + lockDuration;\n    }\n\n    function _relock(\n        address _member\n    )\n        internal\n    {\n        unlockTime[_member] = 0;\n    }\n\n    // Read Functions\n\n    function getUnlockTime(\n        address _member\n    )\n        public\n        view\n        returns(uint256)\n    {\n        return unlockTime[_member];\n    }\n\n    function getLockDuration()\n        public\n        view\n        returns(uint256)\n    {\n        return lockDuration;\n    }\n\n    function isLocking(\n        address _member\n    )\n        public\n        view\n        returns(bool)\n    {\n        return unlockTime[_member] > block.timestamp;\n    }\n}",
  "sourcePath": "/mnt/c/Projects/sealing-pool/contracts/ntfPool/Lockable.sol",
  "compiler": {
    "name": "solc",
    "version": "0.5.0+commit.1d4f565a.Emscripten.clang"
  },
  "schemaVersion": "3.0.9",
  "updatedAt": "2019-05-28T08:39:06.625Z",
  "devdoc": {
    "methods": {}
  },
  "userdoc": {
    "methods": {}
  }
}