{
  "contractName": "NtfPool",
  "abi": [
    {
      "constant": true,
      "inputs": [],
      "name": "getCurFundCpt",
      "outputs": [
        {
          "name": "",
          "type": "uint256"
        },
        {
          "name": "",
          "type": "uint256"
        }
      ],
      "payable": false,
      "stateMutability": "view",
      "type": "function"
    },
    {
      "constant": true,
      "inputs": [],
      "name": "name",
      "outputs": [
        {
          "name": "",
          "type": "string"
        }
      ],
      "payable": false,
      "stateMutability": "view",
      "type": "function"
    },
    {
      "constant": false,
      "inputs": [
        {
          "name": "spender",
          "type": "address"
        },
        {
          "name": "value",
          "type": "uint256"
        }
      ],
      "name": "approve",
      "outputs": [
        {
          "name": "",
          "type": "bool"
        }
      ],
      "payable": false,
      "stateMutability": "nonpayable",
      "type": "function"
    },
    {
      "constant": true,
      "inputs": [],
      "name": "gov",
      "outputs": [
        {
          "name": "",
          "type": "address"
        }
      ],
      "payable": false,
      "stateMutability": "view",
      "type": "function"
    },
    {
      "constant": true,
      "inputs": [],
      "name": "totalSupply",
      "outputs": [
        {
          "name": "",
          "type": "uint256"
        }
      ],
      "payable": false,
      "stateMutability": "view",
      "type": "function"
    },
    {
      "constant": false,
      "inputs": [
        {
          "name": "sender",
          "type": "address"
        },
        {
          "name": "recipient",
          "type": "address"
        },
        {
          "name": "amount",
          "type": "uint256"
        }
      ],
      "name": "transferFrom",
      "outputs": [
        {
          "name": "",
          "type": "bool"
        }
      ],
      "payable": false,
      "stateMutability": "nonpayable",
      "type": "function"
    },
    {
      "constant": false,
      "inputs": [
        {
          "name": "spender",
          "type": "address"
        },
        {
          "name": "addedValue",
          "type": "uint256"
        }
      ],
      "name": "increaseAllowance",
      "outputs": [
        {
          "name": "",
          "type": "bool"
        }
      ],
      "payable": false,
      "stateMutability": "nonpayable",
      "type": "function"
    },
    {
      "constant": true,
      "inputs": [],
      "name": "MAX_LOCK_DURATION",
      "outputs": [
        {
          "name": "",
          "type": "uint256"
        }
      ],
      "payable": false,
      "stateMutability": "view",
      "type": "function"
    },
    {
      "constant": true,
      "inputs": [],
      "name": "location",
      "outputs": [
        {
          "name": "",
          "type": "string"
        }
      ],
      "payable": false,
      "stateMutability": "view",
      "type": "function"
    },
    {
      "constant": true,
      "inputs": [],
      "name": "ntfToken",
      "outputs": [
        {
          "name": "",
          "type": "address"
        }
      ],
      "payable": false,
      "stateMutability": "view",
      "type": "function"
    },
    {
      "constant": true,
      "inputs": [
        {
          "name": "_member",
          "type": "address"
        }
      ],
      "name": "getCoinOf",
      "outputs": [
        {
          "name": "",
          "type": "uint256"
        }
      ],
      "payable": false,
      "stateMutability": "view",
      "type": "function"
    },
    {
      "constant": true,
      "inputs": [
        {
          "name": "account",
          "type": "address"
        }
      ],
      "name": "balanceOf",
      "outputs": [
        {
          "name": "",
          "type": "uint256"
        }
      ],
      "payable": false,
      "stateMutability": "view",
      "type": "function"
    },
    {
      "constant": false,
      "inputs": [],
      "name": "renounceOwnership",
      "outputs": [],
      "payable": false,
      "stateMutability": "nonpayable",
      "type": "function"
    },
    {
      "constant": true,
      "inputs": [],
      "name": "email",
      "outputs": [
        {
          "name": "",
          "type": "string"
        }
      ],
      "payable": false,
      "stateMutability": "view",
      "type": "function"
    },
    {
      "constant": true,
      "inputs": [],
      "name": "COMPRATE",
      "outputs": [
        {
          "name": "",
          "type": "uint256"
        }
      ],
      "payable": false,
      "stateMutability": "view",
      "type": "function"
    },
    {
      "constant": true,
      "inputs": [],
      "name": "owner",
      "outputs": [
        {
          "name": "",
          "type": "address"
        }
      ],
      "payable": false,
      "stateMutability": "view",
      "type": "function"
    },
    {
      "constant": true,
      "inputs": [],
      "name": "getMembersBalance",
      "outputs": [
        {
          "name": "",
          "type": "uint256"
        }
      ],
      "payable": false,
      "stateMutability": "view",
      "type": "function"
    },
    {
      "constant": true,
      "inputs": [],
      "name": "isOwner",
      "outputs": [
        {
          "name": "",
          "type": "bool"
        }
      ],
      "payable": false,
      "stateMutability": "view",
      "type": "function"
    },
    {
      "constant": false,
      "inputs": [
        {
          "name": "spender",
          "type": "address"
        },
        {
          "name": "subtractedValue",
          "type": "uint256"
        }
      ],
      "name": "decreaseAllowance",
      "outputs": [
        {
          "name": "",
          "type": "bool"
        }
      ],
      "payable": false,
      "stateMutability": "nonpayable",
      "type": "function"
    },
    {
      "constant": false,
      "inputs": [
        {
          "name": "to",
          "type": "address"
        },
        {
          "name": "value",
          "type": "uint256"
        }
      ],
      "name": "transfer",
      "outputs": [
        {
          "name": "",
          "type": "bool"
        }
      ],
      "payable": false,
      "stateMutability": "nonpayable",
      "type": "function"
    },
    {
      "constant": true,
      "inputs": [],
      "name": "pendingOutSum",
      "outputs": [
        {
          "name": "",
          "type": "uint256"
        }
      ],
      "payable": false,
      "stateMutability": "view",
      "type": "function"
    },
    {
      "constant": true,
      "inputs": [],
      "name": "website",
      "outputs": [
        {
          "name": "",
          "type": "string"
        }
      ],
      "payable": false,
      "stateMutability": "view",
      "type": "function"
    },
    {
      "constant": false,
      "inputs": [
        {
          "name": "sender",
          "type": "address"
        }
      ],
      "name": "initialize",
      "outputs": [],
      "payable": false,
      "stateMutability": "nonpayable",
      "type": "function"
    },
    {
      "constant": true,
      "inputs": [],
      "name": "CPT_ZOOM",
      "outputs": [
        {
          "name": "",
          "type": "uint256"
        }
      ],
      "payable": false,
      "stateMutability": "view",
      "type": "function"
    },
    {
      "constant": true,
      "inputs": [
        {
          "name": "_member",
          "type": "address"
        }
      ],
      "name": "isLocking",
      "outputs": [
        {
          "name": "",
          "type": "bool"
        }
      ],
      "payable": false,
      "stateMutability": "view",
      "type": "function"
    },
    {
      "constant": true,
      "inputs": [
        {
          "name": "_member",
          "type": "address"
        }
      ],
      "name": "getUnlockTime",
      "outputs": [
        {
          "name": "",
          "type": "uint256"
        }
      ],
      "payable": false,
      "stateMutability": "view",
      "type": "function"
    },
    {
      "constant": true,
      "inputs": [
        {
          "name": "owner",
          "type": "address"
        },
        {
          "name": "spender",
          "type": "address"
        }
      ],
      "name": "allowance",
      "outputs": [
        {
          "name": "",
          "type": "uint256"
        }
      ],
      "payable": false,
      "stateMutability": "view",
      "type": "function"
    },
    {
      "constant": true,
      "inputs": [],
      "name": "getLockDuration",
      "outputs": [
        {
          "name": "",
          "type": "uint256"
        }
      ],
      "payable": false,
      "stateMutability": "view",
      "type": "function"
    },
    {
      "constant": true,
      "inputs": [
        {
          "name": "",
          "type": "address"
        }
      ],
      "name": "pendingOut",
      "outputs": [
        {
          "name": "",
          "type": "uint256"
        }
      ],
      "payable": false,
      "stateMutability": "view",
      "type": "function"
    },
    {
      "constant": true,
      "inputs": [],
      "name": "OWNER_ACTION_DELAY",
      "outputs": [
        {
          "name": "",
          "type": "uint256"
        }
      ],
      "payable": false,
      "stateMutability": "view",
      "type": "function"
    },
    {
      "constant": false,
      "inputs": [
        {
          "name": "newOwner",
          "type": "address"
        }
      ],
      "name": "transferOwnership",
      "outputs": [],
      "payable": false,
      "stateMutability": "nonpayable",
      "type": "function"
    },
    {
      "constant": true,
      "inputs": [],
      "name": "logo",
      "outputs": [
        {
          "name": "",
          "type": "string"
        }
      ],
      "payable": false,
      "stateMutability": "view",
      "type": "function"
    },
    {
      "inputs": [
        {
          "name": "_owner",
          "type": "address"
        },
        {
          "name": "_ntfAddress",
          "type": "address"
        },
        {
          "name": "_govAddress",
          "type": "address"
        },
        {
          "name": "_COMPRATE",
          "type": "uint256"
        },
        {
          "name": "_MAX_LOCK_DURATION",
          "type": "uint256"
        },
        {
          "name": "_OWNER_ACTION_DELAY",
          "type": "uint256"
        },
        {
          "name": "_name",
          "type": "string"
        },
        {
          "name": "_website",
          "type": "string"
        },
        {
          "name": "_location",
          "type": "string"
        },
        {
          "name": "_logo",
          "type": "string"
        }
      ],
      "payable": false,
      "stateMutability": "nonpayable",
      "type": "constructor"
    },
    {
      "payable": true,
      "stateMutability": "payable",
      "type": "fallback"
    },
    {
      "anonymous": false,
      "inputs": [
        {
          "indexed": true,
          "name": "previousOwner",
          "type": "address"
        },
        {
          "indexed": true,
          "name": "newOwner",
          "type": "address"
        }
      ],
      "name": "OwnershipTransferred",
      "type": "event"
    },
    {
      "anonymous": false,
      "inputs": [
        {
          "indexed": true,
          "name": "from",
          "type": "address"
        },
        {
          "indexed": true,
          "name": "to",
          "type": "address"
        },
        {
          "indexed": false,
          "name": "value",
          "type": "uint256"
        }
      ],
      "name": "Transfer",
      "type": "event"
    },
    {
      "anonymous": false,
      "inputs": [
        {
          "indexed": true,
          "name": "owner",
          "type": "address"
        },
        {
          "indexed": true,
          "name": "spender",
          "type": "address"
        },
        {
          "indexed": false,
          "name": "value",
          "type": "uint256"
        }
      ],
      "name": "Approval",
      "type": "event"
    },
    {
      "constant": false,
      "inputs": [
        {
          "name": "_amount",
          "type": "uint256"
        },
        {
          "name": "_signer",
          "type": "address"
        }
      ],
      "name": "join",
      "outputs": [],
      "payable": false,
      "stateMutability": "nonpayable",
      "type": "function"
    },
    {
      "constant": false,
      "inputs": [],
      "name": "leave",
      "outputs": [],
      "payable": false,
      "stateMutability": "nonpayable",
      "type": "function"
    },
    {
      "constant": false,
      "inputs": [],
      "name": "tokenPoolWithdraw",
      "outputs": [],
      "payable": false,
      "stateMutability": "nonpayable",
      "type": "function"
    },
    {
      "constant": false,
      "inputs": [
        {
          "name": "_toAddress",
          "type": "address"
        }
      ],
      "name": "fundWithdraw",
      "outputs": [],
      "payable": false,
      "stateMutability": "nonpayable",
      "type": "function"
    },
    {
      "constant": false,
      "inputs": [
        {
          "name": "_lockDuration",
          "type": "uint256"
        }
      ],
      "name": "setLockDuration",
      "outputs": [],
      "payable": false,
      "stateMutability": "nonpayable",
      "type": "function"
    },
    {
      "constant": false,
      "inputs": [
        {
          "name": "_amount",
          "type": "uint256"
        }
      ],
      "name": "requestOut",
      "outputs": [],
      "payable": false,
      "stateMutability": "nonpayable",
      "type": "function"
    },
    {
      "constant": false,
      "inputs": [
        {
          "name": "_amount",
          "type": "uint256"
        }
      ],
      "name": "tokenDeposit",
      "outputs": [],
      "payable": false,
      "stateMutability": "nonpayable",
      "type": "function"
    },
    {
      "constant": false,
      "inputs": [],
      "name": "tokenMemberWithdraw",
      "outputs": [],
      "payable": false,
      "stateMutability": "nonpayable",
      "type": "function"
    },
    {
      "constant": false,
      "inputs": [],
      "name": "coinWithdraw",
      "outputs": [],
      "payable": false,
      "stateMutability": "nonpayable",
      "type": "function"
    },
    {
      "constant": true,
      "inputs": [],
      "name": "getPoolNtfBalance",
      "outputs": [
        {
          "name": "",
          "type": "uint256"
        }
      ],
      "payable": false,
      "stateMutability": "view",
      "type": "function"
    },
    {
      "constant": true,
      "inputs": [],
      "name": "getStatus",
      "outputs": [
        {
          "name": "",
          "type": "uint256"
        }
      ],
      "payable": false,
      "stateMutability": "view",
      "type": "function"
    },
    {
      "constant": true,
      "inputs": [],
      "name": "getPoolGovBalance",
      "outputs": [
        {
          "name": "",
          "type": "uint256"
        }
      ],
      "payable": false,
      "stateMutability": "view",
      "type": "function"
    },
    {
      "constant": true,
      "inputs": [],
      "name": "getCoinbase",
      "outputs": [
        {
          "name": "",
          "type": "address"
        }
      ],
      "payable": false,
      "stateMutability": "view",
      "type": "function"
    },
    {
      "constant": true,
      "inputs": [],
      "name": "getUnlockHeight",
      "outputs": [
        {
          "name": "",
          "type": "uint256"
        }
      ],
      "payable": false,
      "stateMutability": "view",
      "type": "function"
    },
    {
      "constant": true,
      "inputs": [],
      "name": "isWithdrawable",
      "outputs": [
        {
          "name": "",
          "type": "bool"
        }
      ],
      "payable": false,
      "stateMutability": "view",
      "type": "function"
    },
    {
      "constant": false,
      "inputs": [],
      "name": "virtuellMining",
      "outputs": [],
      "payable": true,
      "stateMutability": "payable",
      "type": "function"
    }
  ],
  "bytecode": "0x60806040523480156200001157600080fd5b50604051620046023803806200460283398101806040526101408110156200003857600080fd5b8101908080519060200190929190805190602001909291908051906020019092919080519060200190929190805190602001909291908051906020019092919080516401000000008111156200008d57600080fd5b82810190506020810184811115620000a457600080fd5b8151856001820283011164010000000082111715620000c257600080fd5b50509291906020018051640100000000811115620000df57600080fd5b82810190506020810184811115620000f657600080fd5b81518560018202830111640100000000821117156200011457600080fd5b505092919060200180516401000000008111156200013157600080fd5b828101905060208101848111156200014857600080fd5b81518560018202830111640100000000821117156200016657600080fd5b505092919060200180516401000000008111156200018357600080fd5b828101905060208101848111156200019a57600080fd5b8151856001820283011164010000000082111715620001b857600080fd5b5050929190505050838383838360009080519060200190620001dc92919062000645565b508260019080519060200190620001f592919062000645565b5081600290805190602001906200020e92919062000645565b5080600490805190602001906200022792919062000645565b505050505088607a60006101000a81548173ffffffffffffffffffffffffffffffffffffffff021916908373ffffffffffffffffffffffffffffffffffffffff16021790555087607b60006101000a81548173ffffffffffffffffffffffffffffffffffffffff021916908373ffffffffffffffffffffffffffffffffffffffff16021790555060008710158015620002c1575060648711155b151562000336576040517f08c379a00000000000000000000000000000000000000000000000000000000081526004018080602001828103825260198152602001807f696e76616c696420636f6d70656e736174696f6e20726174650000000000000081525060200191505060405180910390fd5b86600881905550856075819055506200035f603c62000390640100000000026401000000009004565b84607881905550620003808a62000417640100000000026401000000009004565b50505050505050505050620006f4565b8060755481111515156200040c576040517f08c379a00000000000000000000000000000000000000000000000000000000081526004018080602001828103825260128152602001807f646f6e74206c6f636b20746f6f206c6f6e67000000000000000000000000000081525060200191505060405180910390fd5b816074819055505050565b600d60019054906101000a900460ff16806200044857506200044762000634640100000000026401000000009004565b5b80620004615750600d60009054906101000a900460ff16155b1515620004fc576040517f08c379a000000000000000000000000000000000000000000000000000000000815260040180806020018281038252602e8152602001807f436f6e747261637420696e7374616e63652068617320616c726561647920626581526020017f656e20696e697469616c697a656400000000000000000000000000000000000081525060400191505060405180910390fd5b6000600d60019054906101000a900460ff1615905080156200054f576001600d60016101000a81548160ff0219169083151502179055506001600d60006101000a81548160ff0219169083151502179055505b81604060006101000a81548173ffffffffffffffffffffffffffffffffffffffff021916908373ffffffffffffffffffffffffffffffffffffffff160217905550604060009054906101000a900473ffffffffffffffffffffffffffffffffffffffff1673ffffffffffffffffffffffffffffffffffffffff16600073ffffffffffffffffffffffffffffffffffffffff167f8be0079c531659141344cd1fd0a4f28419497f9722a3daafe3b4186f6b6457e060405160405180910390a3801562000630576000600d60016101000a81548160ff0219169083151502179055505b5050565b600080303b90506000811491505090565b828054600181600116156101000203166002900490600052602060002090601f016020900481019282601f106200068857805160ff1916838001178555620006b9565b82800160010185558215620006b9579182015b82811115620006b85782518255916020019190600101906200069b565b5b509050620006c89190620006cc565b5090565b620006f191905b80821115620006ed576000816000905550600101620006d3565b5090565b90565b613efe80620007046000396000f3fe608060405260043610610246576000357c0100000000000000000000000000000000000000000000000000000000900463ffffffff168063021737321461024857806306fdde031461027a578063095ea7b31461030a57806311bfe32e1461037d57806312d43a51146103a857806318160ddd146103ff57806323b872dd1461042a57806339509351146104bd5780633aa9dd2a146105305780633c85053e1461058b57806342d07a1e146105a25780634d840bcc146105dd5780634e69d5601461060c5780634eb665af146106375780634f1bfc9e146106725780634f8457e41461069d578063516f279e146106c857806359aa9506146107585780635df5ffbb146107af5780636e7348c9146107b957806370a082311461081e57806370c9b0f714610883578063715018a6146108ae5780637a2bee5e146108c5578063820e93f51461091657806384c6c2e3146109a65780638da5cb5b146109d15780638e7dce4e14610a285780638f32d59b14610a53578063a457c2d714610a82578063a9059cbb14610af5578063acf1ba9f14610b68578063beb0a41614610b93578063c4d66de814610c23578063cadba0d114610c74578063cd92c57d14610c9f578063d12c33b714610cb6578063d1a82a9d14610d1f578063d66d9e1914610d76578063dbed1e8814610d8d578063dd62ed3e14610df2578063e1fe7d2314610e77578063e239c40014610eb2578063edfd36cd14610edd578063ee0cfb0914610ef4578063ee419a8814610f59578063f2fde38b14610f84578063fb7f21eb14610fd5575b005b34801561025457600080fd5b5061025d611065565b604051808381526020018281526020019250505060405180910390f35b34801561028657600080fd5b5061028f611159565b6040518080602001828103825283818151815260200191508051906020019080838360005b838110156102cf5780820151818401526020810190506102b4565b50505050905090810190601f1680156102fc5780820380516001836020036101000a031916815260200191505b509250505060405180910390f35b34801561031657600080fd5b506103636004803603604081101561032d57600080fd5b81019080803573ffffffffffffffffffffffffffffffffffffffff169060200190929190803590602001909291905050506111f7565b604051808215151515815260200191505060405180910390f35b34801561038957600080fd5b5061039261120e565b6040518082815260200191505060405180910390f35b3480156103b457600080fd5b506103bd61130b565b604051808273ffffffffffffffffffffffffffffffffffffffff1673ffffffffffffffffffffffffffffffffffffffff16815260200191505060405180910390f35b34801561040b57600080fd5b50610414611331565b6040518082815260200191505060405180910390f35b34801561043657600080fd5b506104a36004803603606081101561044d57600080fd5b81019080803573ffffffffffffffffffffffffffffffffffffffff169060200190929190803573ffffffffffffffffffffffffffffffffffffffff1690602001909291908035906020019092919050505061133b565b604051808215151515815260200191505060405180910390f35b3480156104c957600080fd5b50610516600480360360408110156104e057600080fd5b81019080803573ffffffffffffffffffffffffffffffffffffffff169060200190929190803590602001909291905050506113ec565b604051808215151515815260200191505060405180910390f35b34801561053c57600080fd5b506105896004803603604081101561055357600080fd5b8101908080359060200190929190803573ffffffffffffffffffffffffffffffffffffffff169060200190929190505050611491565b005b34801561059757600080fd5b506105a0611824565b005b3480156105ae57600080fd5b506105db600480360360208110156105c557600080fd5b81019080803590602001909291905050506118e8565b005b3480156105e957600080fd5b506105f2611926565b604051808215151515815260200191505060405180910390f35b34801561061857600080fd5b50610621611a23565b6040518082815260200191505060405180910390f35b34801561064357600080fd5b506106706004803603602081101561065a57600080fd5b8101908080359060200190929190505050611b20565b005b34801561067e57600080fd5b50610687611bc3565b6040518082815260200191505060405180910390f35b3480156106a957600080fd5b506106b2611bc9565b6040518082815260200191505060405180910390f35b3480156106d457600080fd5b506106dd611cc6565b6040518080602001828103825283818151815260200191508051906020019080838360005b8381101561071d578082015181840152602081019050610702565b50505050905090810190601f16801561074a5780820380516001836020036101000a031916815260200191505b509250505060405180910390f35b34801561076457600080fd5b5061076d611d64565b604051808273ffffffffffffffffffffffffffffffffffffffff1673ffffffffffffffffffffffffffffffffffffffff16815260200191505060405180910390f35b6107b7611d8a565b005b3480156107c557600080fd5b50610808600480360360208110156107dc57600080fd5b81019080803573ffffffffffffffffffffffffffffffffffffffff169060200190929190505050611d8c565b6040518082815260200191505060405180910390f35b34801561082a57600080fd5b5061086d6004803603602081101561084157600080fd5b81019080803573ffffffffffffffffffffffffffffffffffffffff169060200190929190505050611e13565b6040518082815260200191505060405180910390f35b34801561088f57600080fd5b50610898611e5c565b6040518082815260200191505060405180910390f35b3480156108ba57600080fd5b506108c3611f59565b005b3480156108d157600080fd5b50610914600480360360208110156108e857600080fd5b81019080803573ffffffffffffffffffffffffffffffffffffffff16906020019092919050505061202d565b005b34801561092257600080fd5b5061092b61204c565b6040518080602001828103825283818151815260200191508051906020019080838360005b8381101561096b578082015181840152602081019050610950565b50505050905090810190601f1680156109985780820380516001836020036101000a031916815260200191505b509250505060405180910390f35b3480156109b257600080fd5b506109bb6120ea565b6040518082815260200191505060405180910390f35b3480156109dd57600080fd5b506109e66120f0565b604051808273ffffffffffffffffffffffffffffffffffffffff1673ffffffffffffffffffffffffffffffffffffffff16815260200191505060405180910390f35b348015610a3457600080fd5b50610a3d61211a565b6040518082815260200191505060405180910390f35b348015610a5f57600080fd5b50610a6861215c565b604051808215151515815260200191505060405180910390f35b348015610a8e57600080fd5b50610adb60048036036040811015610aa557600080fd5b81019080803573ffffffffffffffffffffffffffffffffffffffff169060200190929190803590602001909291905050506121b4565b604051808215151515815260200191505060405180910390f35b348015610b0157600080fd5b50610b4e60048036036040811015610b1857600080fd5b81019080803573ffffffffffffffffffffffffffffffffffffffff16906020019092919080359060200190929190505050612259565b604051808215151515815260200191505060405180910390f35b348015610b7457600080fd5b50610b7d61229e565b6040518082815260200191505060405180910390f35b348015610b9f57600080fd5b50610ba86122a4565b6040518080602001828103825283818151815260200191508051906020019080838360005b83811015610be8578082015181840152602081019050610bcd565b50505050905090810190601f168015610c155780820380516001836020036101000a031916815260200191505b509250505060405180910390f35b348015610c2f57600080fd5b50610c7260048036036020811015610c4657600080fd5b81019080803573ffffffffffffffffffffffffffffffffffffffff169060200190929190505050612342565b005b348015610c8057600080fd5b50610c89612549565b6040518082815260200191505060405180910390f35b348015610cab57600080fd5b50610cb4612553565b005b348015610cc257600080fd5b50610d0560048036036020811015610cd957600080fd5b81019080803573ffffffffffffffffffffffffffffffffffffffff169060200190929190505050612747565b604051808215151515815260200191505060405180910390f35b348015610d2b57600080fd5b50610d34612792565b604051808273ffffffffffffffffffffffffffffffffffffffff1673ffffffffffffffffffffffffffffffffffffffff16815260200191505060405180910390f35b348015610d8257600080fd5b50610d8b61288f565b005b348015610d9957600080fd5b50610ddc60048036036020811015610db057600080fd5b81019080803573ffffffffffffffffffffffffffffffffffffffff1690602001909291905050506128ac565b6040518082815260200191505060405180910390f35b348015610dfe57600080fd5b50610e6160048036036040811015610e1557600080fd5b81019080803573ffffffffffffffffffffffffffffffffffffffff169060200190929190803573ffffffffffffffffffffffffffffffffffffffff1690602001909291905050506128f5565b6040518082815260200191505060405180910390f35b348015610e8357600080fd5b50610eb060048036036020811015610e9a57600080fd5b810190808035906020019092919050505061297c565b005b348015610ebe57600080fd5b50610ec7612ae4565b6040518082815260200191505060405180910390f35b348015610ee957600080fd5b50610ef2612aee565b005b348015610f0057600080fd5b50610f4360048036036020811015610f1757600080fd5b81019080803573ffffffffffffffffffffffffffffffffffffffff169060200190929190505050612aff565b6040518082815260200191505060405180910390f35b348015610f6557600080fd5b50610f6e612b17565b6040518082815260200191505060405180910390f35b348015610f9057600080fd5b50610fd360048036036020811015610fa757600080fd5b81019080803573ffffffffffffffffffffffffffffffffffffffff169060200190929190505050612b1d565b005b348015610fe157600080fd5b50610fea612b3c565b6040518080602001828103825283818151815260200191508051906020019080838360005b8381101561102a57808201518184015260208101905061100f565b50505050905090810190601f1680156110575780820380516001836020036101000a031916815260200191505b509250505060405180910390f35b6000806000611096600c543073ffffffffffffffffffffffffffffffffffffffff1631612bda90919063ffffffff16565b90506000606460085483028115156110aa57fe5b04905060006110b7611331565b14156110e2576110d282600b54612c6590919063ffffffff16565b6000809050935093505050611155565b60006110ec611331565b611117650100000000006111098587612bda90919063ffffffff16565b612cef90919063ffffffff16565b81151561112057fe5b04905061113882600b54612c6590919063ffffffff16565b61114d82600a54612c6590919063ffffffff16565b945094505050505b9091565b60008054600181600116156101000203166002900480601f0160208091040260200160405190810160405280929190818152602001828054600181600116156101000203166002900480156111ef5780601f106111c4576101008083540402835291602001916111ef565b820191906000526020600020905b8154815290600101906020018083116111d257829003601f168201915b505050505081565b6000611204338484612dbc565b6001905092915050565b6000607b60009054906101000a900473ffffffffffffffffffffffffffffffffffffffff1673ffffffffffffffffffffffffffffffffffffffff1663f8b2cb4f306040518263ffffffff167c0100000000000000000000000000000000000000000000000000000000028152600401808273ffffffffffffffffffffffffffffffffffffffff1673ffffffffffffffffffffffffffffffffffffffff16815260200191505060206040518083038186803b1580156112cb57600080fd5b505afa1580156112df573d6000803e3d6000fd5b505050506040513d60208110156112f557600080fd5b8101908080519060200190929190505050905090565b607b60009054906101000a900473ffffffffffffffffffffffffffffffffffffffff1681565b6000600754905090565b600061134884848461303d565b6113e184336113dc85600660008a73ffffffffffffffffffffffffffffffffffffffff1673ffffffffffffffffffffffffffffffffffffffff16815260200190815260200160002060003373ffffffffffffffffffffffffffffffffffffffff1673ffffffffffffffffffffffffffffffffffffffff16815260200190815260200160002054612bda90919063ffffffff16565b612dbc565b600190509392505050565b6000611487338461148285600660003373ffffffffffffffffffffffffffffffffffffffff1673ffffffffffffffffffffffffffffffffffffffff16815260200190815260200160002060008973ffffffffffffffffffffffffffffffffffffffff1673ffffffffffffffffffffffffffffffffffffffff16815260200190815260200160002054612c6590919063ffffffff16565b612dbc565b6001905092915050565b61149961215c565b15156114a457600080fd5b6114ac611bc9565b6114c160765484612c6590919063ffffffff16565b11151515611537576040517f08c379a00000000000000000000000000000000000000000000000000000000081526004018080602001828103825260128152602001807f6e6f7420656e6f75676820746f206a6f696e000000000000000000000000000081525060200191505060405180910390fd5b607a60009054906101000a900473ffffffffffffffffffffffffffffffffffffffff1673ffffffffffffffffffffffffffffffffffffffff1663095ea7b3607b60009054906101000a900473ffffffffffffffffffffffffffffffffffffffff16846040518363ffffffff167c0100000000000000000000000000000000000000000000000000000000028152600401808373ffffffffffffffffffffffffffffffffffffffff1673ffffffffffffffffffffffffffffffffffffffff16815260200182815260200192505050602060405180830381600087803b15801561161e57600080fd5b505af1158015611632573d6000803e3d6000fd5b505050506040513d602081101561164857600080fd5b810190808051906020019092919050505050607b60009054906101000a900473ffffffffffffffffffffffffffffffffffffffff1673ffffffffffffffffffffffffffffffffffffffff1663b6b55f25836040518263ffffffff167c010000000000000000000000000000000000000000000000000000000002815260040180828152602001915050602060405180830381600087803b1580156116eb57600080fd5b505af11580156116ff573d6000803e3d6000fd5b505050506040513d602081101561171557600080fd5b810190808051906020019092919050505050607b60009054906101000a900473ffffffffffffffffffffffffffffffffffffffff1673ffffffffffffffffffffffffffffffffffffffff166328ffe6c8826040518263ffffffff167c0100000000000000000000000000000000000000000000000000000000028152600401808273ffffffffffffffffffffffffffffffffffffffff1673ffffffffffffffffffffffffffffffffffffffff168152602001915050602060405180830381600087803b1580156117e457600080fd5b505af11580156117f8573d6000803e3d6000fd5b505050506040513d602081101561180e57600080fd5b8101908080519060200190929190505050505050565b607b60009054906101000a900473ffffffffffffffffffffffffffffffffffffffff1673ffffffffffffffffffffffffffffffffffffffff16633ccfd60b6040518163ffffffff167c0100000000000000000000000000000000000000000000000000000000028152600401602060405180830381600087803b1580156118aa57600080fd5b505af11580156118be573d6000803e3d6000fd5b505050506040513d60208110156118d457600080fd5b810190808051906020019092919050505050565b6118f0613367565b60003390506118fe816133a3565b600061190a82846134ad565b90506119168282613638565b61192182600061381d565b505050565b6000607b60009054906101000a900473ffffffffffffffffffffffffffffffffffffffff1673ffffffffffffffffffffffffffffffffffffffff166302a18484306040518263ffffffff167c0100000000000000000000000000000000000000000000000000000000028152600401808273ffffffffffffffffffffffffffffffffffffffff1673ffffffffffffffffffffffffffffffffffffffff16815260200191505060206040518083038186803b1580156119e357600080fd5b505afa1580156119f7573d6000803e3d6000fd5b505050506040513d6020811015611a0d57600080fd5b8101908080519060200190929190505050905090565b6000607b60009054906101000a900473ffffffffffffffffffffffffffffffffffffffff1673ffffffffffffffffffffffffffffffffffffffff166330ccebb5306040518263ffffffff167c0100000000000000000000000000000000000000000000000000000000028152600401808273ffffffffffffffffffffffffffffffffffffffff1673ffffffffffffffffffffffffffffffffffffffff16815260200191505060206040518083038186803b158015611ae057600080fd5b505afa158015611af4573d6000803e3d6000fd5b505050506040513d6020811015611b0a57600080fd5b8101908080519060200190929190505050905090565b611b2861215c565b1515611b3357600080fd5b6078546079540142111515611bb0576040517f08c379a00000000000000000000000000000000000000000000000000000000081526004018080602001828103825260148152602001807f646f6e74206368616e676520746f20717569636b00000000000000000000000081525060200191505060405180910390fd5b42607981905550611bc081613894565b50565b60755481565b6000607a60009054906101000a900473ffffffffffffffffffffffffffffffffffffffff1673ffffffffffffffffffffffffffffffffffffffff166370a08231306040518263ffffffff167c0100000000000000000000000000000000000000000000000000000000028152600401808273ffffffffffffffffffffffffffffffffffffffff1673ffffffffffffffffffffffffffffffffffffffff16815260200191505060206040518083038186803b158015611c8657600080fd5b505afa158015611c9a573d6000803e3d6000fd5b505050506040513d6020811015611cb057600080fd5b8101908080519060200190929190505050905090565b60028054600181600116156101000203166002900480601f016020809104026020016040519081016040528092919081815260200182805460018160011615610100020316600290048015611d5c5780601f10611d3157610100808354040283529160200191611d5c565b820191906000526020600020905b815481529060010190602001808311611d3f57829003601f168201915b505050505081565b607a60009054906101000a900473ffffffffffffffffffffffffffffffffffffffff1681565b565b6000806000611d99611065565b91509150600960008573ffffffffffffffffffffffffffffffffffffffff1673ffffffffffffffffffffffffffffffffffffffff1681526020019081526020016000205465010000000000611dff83611df188611e13565b612cef90919063ffffffff16565b811515611e0857fe5b040392505050919050565b6000600560008373ffffffffffffffffffffffffffffffffffffffff1673ffffffffffffffffffffffffffffffffffffffff168152602001908152602001600020549050919050565b6000607b60009054906101000a900473ffffffffffffffffffffffffffffffffffffffff1673ffffffffffffffffffffffffffffffffffffffff166355235d47306040518263ffffffff167c0100000000000000000000000000000000000000000000000000000000028152600401808273ffffffffffffffffffffffffffffffffffffffff1673ffffffffffffffffffffffffffffffffffffffff16815260200191505060206040518083038186803b158015611f1957600080fd5b505afa158015611f2d573d6000803e3d6000fd5b505050506040513d6020811015611f4357600080fd5b8101908080519060200190929190505050905090565b611f6161215c565b1515611f6c57600080fd5b600073ffffffffffffffffffffffffffffffffffffffff16604060009054906101000a900473ffffffffffffffffffffffffffffffffffffffff1673ffffffffffffffffffffffffffffffffffffffff167f8be0079c531659141344cd1fd0a4f28419497f9722a3daafe3b4186f6b6457e060405160405180910390a36000604060006101000a81548173ffffffffffffffffffffffffffffffffffffffff021916908373ffffffffffffffffffffffffffffffffffffffff160217905550565b61203561215c565b151561204057600080fd5b6120498161391a565b50565b60038054600181600116156101000203166002900480601f0160208091040260200160405190810160405280929190818152602001828054600181600116156101000203166002900480156120e25780601f106120b7576101008083540402835291602001916120e2565b820191906000526020600020905b8154815290600101906020018083116120c557829003601f168201915b505050505081565b60085481565b6000604060009054906101000a900473ffffffffffffffffffffffffffffffffffffffff16905090565b6000806000612127611065565b91509150612155823073ffffffffffffffffffffffffffffffffffffffff1631612bda90919063ffffffff16565b9250505090565b6000604060009054906101000a900473ffffffffffffffffffffffffffffffffffffffff1673ffffffffffffffffffffffffffffffffffffffff163373ffffffffffffffffffffffffffffffffffffffff1614905090565b600061224f338461224a85600660003373ffffffffffffffffffffffffffffffffffffffff1673ffffffffffffffffffffffffffffffffffffffff16815260200190815260200160002060008973ffffffffffffffffffffffffffffffffffffffff1673ffffffffffffffffffffffffffffffffffffffff16815260200190815260200160002054612bda90919063ffffffff16565b612dbc565b6001905092915050565b60008073ffffffffffffffffffffffffffffffffffffffff168373ffffffffffffffffffffffffffffffffffffffff161480156122965750600082145b905092915050565b60765481565b60018054600181600116156101000203166002900480601f01602080910402602001604051908101604052809291908181526020018280546001816001161561010002031660029004801561233a5780601f1061230f5761010080835404028352916020019161233a565b820191906000526020600020905b81548152906001019060200180831161231d57829003601f168201915b505050505081565b600d60019054906101000a900460ff16806123615750612360613997565b5b806123795750600d60009054906101000a900460ff16155b1515612413576040517f08c379a000000000000000000000000000000000000000000000000000000000815260040180806020018281038252602e8152602001807f436f6e747261637420696e7374616e63652068617320616c726561647920626581526020017f656e20696e697469616c697a656400000000000000000000000000000000000081525060400191505060405180910390fd5b6000600d60019054906101000a900460ff161590508015612465576001600d60016101000a81548160ff0219169083151502179055506001600d60006101000a81548160ff0219169083151502179055505b81604060006101000a81548173ffffffffffffffffffffffffffffffffffffffff021916908373ffffffffffffffffffffffffffffffffffffffff160217905550604060009054906101000a900473ffffffffffffffffffffffffffffffffffffffff1673ffffffffffffffffffffffffffffffffffffffff16600073ffffffffffffffffffffffffffffffffffffffff167f8be0079c531659141344cd1fd0a4f28419497f9722a3daafe3b4186f6b6457e060405160405180910390a38015612545576000600d60016101000a81548160ff0219169083151502179055505b5050565b6501000000000081565b61255c33612747565b1515156125d1576040517f08c379a000000000000000000000000000000000000000000000000000000000815260040180806020018281038252600d8152602001807f7374696c6c206c6f636b696e670000000000000000000000000000000000000081525060200191505060405180910390fd5b60003390506000607760008373ffffffffffffffffffffffffffffffffffffffff1673ffffffffffffffffffffffffffffffffffffffff168152602001908152602001600020549050612622611bc9565b811115612638576126316139a8565b5050612745565b607a60009054906101000a900473ffffffffffffffffffffffffffffffffffffffff1673ffffffffffffffffffffffffffffffffffffffff1663a9059cbb83836040518363ffffffff167c0100000000000000000000000000000000000000000000000000000000028152600401808373ffffffffffffffffffffffffffffffffffffffff1673ffffffffffffffffffffffffffffffffffffffff16815260200182815260200192505050602060405180830381600087803b1580156126fd57600080fd5b505af1158015612711573d6000803e3d6000fd5b505050506040513d602081101561272757600080fd5b81019080805190602001909291905050505061274282613a6c565b50505b565b600042607360008473ffffffffffffffffffffffffffffffffffffffff1673ffffffffffffffffffffffffffffffffffffffff16815260200190815260200160002054119050919050565b6000607b60009054906101000a900473ffffffffffffffffffffffffffffffffffffffff1673ffffffffffffffffffffffffffffffffffffffff16630a9a3f07306040518263ffffffff167c0100000000000000000000000000000000000000000000000000000000028152600401808273ffffffffffffffffffffffffffffffffffffffff1673ffffffffffffffffffffffffffffffffffffffff16815260200191505060206040518083038186803b15801561284f57600080fd5b505afa158015612863573d6000803e3d6000fd5b505050506040513d602081101561287957600080fd5b8101908080519060200190929190505050905090565b61289761215c565b15156128a257600080fd5b6128aa6139a8565b565b6000607360008373ffffffffffffffffffffffffffffffffffffffff1673ffffffffffffffffffffffffffffffffffffffff168152602001908152602001600020549050919050565b6000600660008473ffffffffffffffffffffffffffffffffffffffff1673ffffffffffffffffffffffffffffffffffffffff16815260200190815260200160002060008373ffffffffffffffffffffffffffffffffffffffff1673ffffffffffffffffffffffffffffffffffffffff16815260200190815260200160002054905092915050565b612984613367565b6000339050600061299482613b0c565b9050607a60009054906101000a900473ffffffffffffffffffffffffffffffffffffffff1673ffffffffffffffffffffffffffffffffffffffff166323b872dd8330866040518463ffffffff167c0100000000000000000000000000000000000000000000000000000000028152600401808473ffffffffffffffffffffffffffffffffffffffff1673ffffffffffffffffffffffffffffffffffffffff1681526020018373ffffffffffffffffffffffffffffffffffffffff1673ffffffffffffffffffffffffffffffffffffffff1681526020018281526020019350505050602060405180830381600087803b158015612a8f57600080fd5b505af1158015612aa3573d6000803e3d6000fd5b505050506040513d6020811015612ab957600080fd5b810190808051906020019092919050505050612ad58284613b84565b612adf828261381d565b505050565b6000607454905090565b6000339050612afc816133a3565b50565b60776020528060005260406000206000915090505481565b60785481565b612b2561215c565b1515612b3057600080fd5b612b3981613d43565b50565b60048054600181600116156101000203166002900480601f016020809104026020016040519081016040528092919081815260200182805460018160011615610100020316600290048015612bd25780601f10612ba757610100808354040283529160200191612bd2565b820191906000526020600020905b815481529060010190602001808311612bb557829003601f168201915b505050505081565b6000828211151515612c54576040517f08c379a000000000000000000000000000000000000000000000000000000000815260040180806020018281038252601e8152602001807f536166654d6174683a207375627472616374696f6e206f766572666c6f77000081525060200191505060405180910390fd5b600082840390508091505092915050565b6000808284019050838110151515612ce5576040517f08c379a000000000000000000000000000000000000000000000000000000000815260040180806020018281038252601b8152602001807f536166654d6174683a206164646974696f6e206f766572666c6f77000000000081525060200191505060405180910390fd5b8091505092915050565b600080831415612d025760009050612db6565b60008284029050828482811515612d1557fe5b04141515612db1576040517f08c379a00000000000000000000000000000000000000000000000000000000081526004018080602001828103825260218152602001807f536166654d6174683a206d756c7469706c69636174696f6e206f766572666c6f81526020017f770000000000000000000000000000000000000000000000000000000000000081525060400191505060405180910390fd5b809150505b92915050565b600073ffffffffffffffffffffffffffffffffffffffff168373ffffffffffffffffffffffffffffffffffffffff1614151515612e87576040517f08c379a00000000000000000000000000000000000000000000000000000000081526004018080602001828103825260248152602001807f45524332303a20617070726f76652066726f6d20746865207a65726f2061646481526020017f726573730000000000000000000000000000000000000000000000000000000081525060400191505060405180910390fd5b600073ffffffffffffffffffffffffffffffffffffffff168273ffffffffffffffffffffffffffffffffffffffff1614151515612f52576040517f08c379a00000000000000000000000000000000000000000000000000000000081526004018080602001828103825260228152602001807f45524332303a20617070726f766520746f20746865207a65726f20616464726581526020017f737300000000000000000000000000000000000000000000000000000000000081525060400191505060405180910390fd5b80600660008573ffffffffffffffffffffffffffffffffffffffff1673ffffffffffffffffffffffffffffffffffffffff16815260200190815260200160002060008473ffffffffffffffffffffffffffffffffffffffff1673ffffffffffffffffffffffffffffffffffffffff168152602001908152602001600020819055508173ffffffffffffffffffffffffffffffffffffffff168373ffffffffffffffffffffffffffffffffffffffff167f8c5be1e5ebec7d5bd14f71427d1e84f3dd0314c0f7b2291e5b200ac8c7c3b925836040518082815260200191505060405180910390a3505050565b600073ffffffffffffffffffffffffffffffffffffffff168373ffffffffffffffffffffffffffffffffffffffff1614151515613108576040517f08c379a00000000000000000000000000000000000000000000000000000000081526004018080602001828103825260258152602001807f45524332303a207472616e736665722066726f6d20746865207a65726f20616481526020017f647265737300000000000000000000000000000000000000000000000000000081525060400191505060405180910390fd5b600073ffffffffffffffffffffffffffffffffffffffff168273ffffffffffffffffffffffffffffffffffffffff16141515156131d3576040517f08c379a00000000000000000000000000000000000000000000000000000000081526004018080602001828103825260238152602001807f45524332303a207472616e7366657220746f20746865207a65726f206164647281526020017f657373000000000000000000000000000000000000000000000000000000000081525060400191505060405180910390fd5b61322581600560008673ffffffffffffffffffffffffffffffffffffffff1673ffffffffffffffffffffffffffffffffffffffff16815260200190815260200160002054612bda90919063ffffffff16565b600560008573ffffffffffffffffffffffffffffffffffffffff1673ffffffffffffffffffffffffffffffffffffffff168152602001908152602001600020819055506132ba81600560008573ffffffffffffffffffffffffffffffffffffffff1673ffffffffffffffffffffffffffffffffffffffff16815260200190815260200160002054612c6590919063ffffffff16565b600560008473ffffffffffffffffffffffffffffffffffffffff1673ffffffffffffffffffffffffffffffffffffffff168152602001908152602001600020819055508173ffffffffffffffffffffffffffffffffffffffff168373ffffffffffffffffffffffffffffffffffffffff167fddf252ad1be2c89b69c2b068fc378daa952ba7f163c4a11628f55a4df523b3ef836040518082815260200191505060405180910390a3505050565b61336f611065565b600b6000600a60008491905055839190505550503073ffffffffffffffffffffffffffffffffffffffff1631600c81905550565b6133ab613367565b60006133b682613b0c565b905080600960008473ffffffffffffffffffffffffffffffffffffffff1673ffffffffffffffffffffffffffffffffffffffff1681526020019081526020016000205401600960008473ffffffffffffffffffffffffffffffffffffffff1673ffffffffffffffffffffffffffffffffffffffff1681526020019081526020016000208190555061345281600c54612bda90919063ffffffff16565b600c8190555061346182613b0c565b508173ffffffffffffffffffffffffffffffffffffffff166108fc829081150290604051600060405180830381858888f193505050501580156134a8573d6000803e3d6000fd5b505050565b6000607760008473ffffffffffffffffffffffffffffffffffffffff1673ffffffffffffffffffffffffffffffffffffffff168152602001908152602001600020548211151561358b576040517f08c379a00000000000000000000000000000000000000000000000000000000081526004018080602001828103825260298152602001807f6e657720616d6f756e74206d7573742062652067726561746572207468616e2081526020017f746865206f6c646572000000000000000000000000000000000000000000000081525060400191505060405180910390fd5b6000607760008573ffffffffffffffffffffffffffffffffffffffff1673ffffffffffffffffffffffffffffffffffffffff168152602001908152602001600020548303905082607760008673ffffffffffffffffffffffffffffffffffffffff1673ffffffffffffffffffffffffffffffffffffffff168152602001908152602001600020819055508260766000828254019250508190555061362e84613e3f565b8091505092915050565b600073ffffffffffffffffffffffffffffffffffffffff168273ffffffffffffffffffffffffffffffffffffffff1614151515613703576040517f08c379a00000000000000000000000000000000000000000000000000000000081526004018080602001828103825260218152602001807f45524332303a206275726e2066726f6d20746865207a65726f2061646472657381526020017f730000000000000000000000000000000000000000000000000000000000000081525060400191505060405180910390fd5b61371881600754612bda90919063ffffffff16565b60078190555061377081600560008573ffffffffffffffffffffffffffffffffffffffff1673ffffffffffffffffffffffffffffffffffffffff16815260200190815260200160002054612bda90919063ffffffff16565b600560008473ffffffffffffffffffffffffffffffffffffffff1673ffffffffffffffffffffffffffffffffffffffff16815260200190815260200160002081905550600073ffffffffffffffffffffffffffffffffffffffff168273ffffffffffffffffffffffffffffffffffffffff167fddf252ad1be2c89b69c2b068fc378daa952ba7f163c4a11628f55a4df523b3ef836040518082815260200191505060405180910390a35050565b8065010000000000613842600a5461383486611e13565b612cef90919063ffffffff16565b81151561384b57fe5b0403600960008473ffffffffffffffffffffffffffffffffffffffff1673ffffffffffffffffffffffffffffffffffffffff168152602001908152602001600020819055505050565b80607554811115151561390f576040517f08c379a00000000000000000000000000000000000000000000000000000000081526004018080602001828103825260128152602001807f646f6e74206c6f636b20746f6f206c6f6e67000000000000000000000000000081525060200191505060405180910390fd5b816074819055505050565b613922613367565b6000600b5490506000600b8190555061394681600c54612bda90919063ffffffff16565b600c819055508173ffffffffffffffffffffffffffffffffffffffff166108fc829081150290604051600060405180830381858888f19350505050158015613992573d6000803e3d6000fd5b505050565b600080303b90506000811491505090565b607b60009054906101000a900473ffffffffffffffffffffffffffffffffffffffff1673ffffffffffffffffffffffffffffffffffffffff1663d66d9e196040518163ffffffff167c0100000000000000000000000000000000000000000000000000000000028152600401602060405180830381600087803b158015613a2e57600080fd5b505af1158015613a42573d6000803e3d6000fd5b505050506040513d6020811015613a5857600080fd5b810190808051906020019092919050505050565b607760008273ffffffffffffffffffffffffffffffffffffffff1673ffffffffffffffffffffffffffffffffffffffff168152602001908152602001600020546076600082825403925050819055506000607760008373ffffffffffffffffffffffffffffffffffffffff1673ffffffffffffffffffffffffffffffffffffffff16815260200190815260200160002081905550613b0981613e8a565b50565b6000600960008373ffffffffffffffffffffffffffffffffffffffff1673ffffffffffffffffffffffffffffffffffffffff1681526020019081526020016000205465010000000000613b72600a54613b6486611e13565b612cef90919063ffffffff16565b811515613b7b57fe5b04039050919050565b600073ffffffffffffffffffffffffffffffffffffffff168273ffffffffffffffffffffffffffffffffffffffff1614151515613c29576040517f08c379a000000000000000000000000000000000000000000000000000000000815260040180806020018281038252601f8152602001807f45524332303a206d696e7420746f20746865207a65726f20616464726573730081525060200191505060405180910390fd5b613c3e81600754612c6590919063ffffffff16565b600781905550613c9681600560008573ffffffffffffffffffffffffffffffffffffffff1673ffffffffffffffffffffffffffffffffffffffff16815260200190815260200160002054612c6590919063ffffffff16565b600560008473ffffffffffffffffffffffffffffffffffffffff1673ffffffffffffffffffffffffffffffffffffffff168152602001908152602001600020819055508173ffffffffffffffffffffffffffffffffffffffff16600073ffffffffffffffffffffffffffffffffffffffff167fddf252ad1be2c89b69c2b068fc378daa952ba7f163c4a11628f55a4df523b3ef836040518082815260200191505060405180910390a35050565b600073ffffffffffffffffffffffffffffffffffffffff168173ffffffffffffffffffffffffffffffffffffffff1614151515613d7f57600080fd5b8073ffffffffffffffffffffffffffffffffffffffff16604060009054906101000a900473ffffffffffffffffffffffffffffffffffffffff1673ffffffffffffffffffffffffffffffffffffffff167f8be0079c531659141344cd1fd0a4f28419497f9722a3daafe3b4186f6b6457e060405160405180910390a380604060006101000a81548173ffffffffffffffffffffffffffffffffffffffff021916908373ffffffffffffffffffffffffffffffffffffffff16021790555050565b6074544201607360008373ffffffffffffffffffffffffffffffffffffffff1673ffffffffffffffffffffffffffffffffffffffff1681526020019081526020016000208190555050565b6000607360008373ffffffffffffffffffffffffffffffffffffffff1673ffffffffffffffffffffffffffffffffffffffff168152602001908152602001600020819055505056fea165627a7a72305820de87f2d0c8872a889ab4634232b81ef5cc982f486ce67b4cbffbf40430f034180029",
  "source": "pragma solidity ^0.5.0;\n\nimport \"./../../node_modules/openzeppelin-eth/contracts/ownership/Ownable.sol\";\nimport \"./CoinShare.sol\";\nimport \"./Request.sol\";\n\nimport \"./interfaces/GovI.sol\";\nimport \"./interfaces/NtfTokenI.sol\";\n\ncontract PoolDesc {\n    string public name;\n    string public website;\n    string public location;\n    string public email;\n    string public logo;\n\n    constructor (\n        string memory _name,\n        string memory _website,\n        string memory _location,\n        string memory _logo\n    ) public {\n        name = _name;\n        website = _website;\n        location = _location;\n        logo = _logo;\n    }\n}\n\ncontract NtfPool is PoolDesc, CoinShare, Ownable, Request {\n    uint256 public OWNER_ACTION_DELAY; // = 7 days;\n\n    uint256 lastActionTime;\n\n    NtfTokenI public ntfToken;\n    GovI public gov;\n\n    modifier delayPast() {\n        require(block.timestamp > lastActionTime + OWNER_ACTION_DELAY, \"dont change to quick\");\n        _;\n    }\n\n    function () external payable {}\n\n    constructor\n    (\n        address _owner,\n        address _ntfAddress,\n        address _govAddress,\n        uint256 _COMPRATE,\n        uint256 _MAX_LOCK_DURATION,\n        uint256 _OWNER_ACTION_DELAY,\n        string memory _name,\n        string memory _website,\n        string memory _location,\n        string memory _logo\n    )\n        public\n        PoolDesc(_name, _website, _location, _logo)\n    {\n        ntfToken = NtfTokenI(_ntfAddress);\n        gov = GovI(_govAddress);\n        require(_COMPRATE >= 0 && _COMPRATE <= 100, \"invalid compensation rate\");\n        COMPRATE = _COMPRATE;\n        MAX_LOCK_DURATION = _MAX_LOCK_DURATION;\n        _setLockDuration(60);\n        OWNER_ACTION_DELAY = _OWNER_ACTION_DELAY;\n        initialize(_owner);\n    }\n\n    // owner function\n    // function deposit(uint256 _amount) external returns (bool);\n    // function join(address _signer) external returns (bool);\n    // function leave() external returns (bool);\n    // function withdraw() external returns (bool);\n\n    function join(\n        uint256 _amount,\n        address _signer\n    )\n        public\n        onlyOwner()\n    {\n        require(_amount.add(pendingOutSum) <= getPoolNtfBalance(), \"not enough to join\");\n        ntfToken.approve(address(gov), _amount);\n        gov.deposit(_amount);\n        gov.join(_signer);\n    }\n\n    function _leave()\n        internal\n    {\n        gov.leave();\n    }\n\n    function leave()\n        public\n        onlyOwner()\n    {\n        _leave();\n    }\n\n    function tokenPoolWithdraw()\n        public\n        //onlyOwner()\n    {\n        gov.withdraw();\n    }\n\n    function fundWithdraw(\n        address payable _toAddress\n    )\n        public\n        onlyOwner()\n    {\n        _fundWithdraw(_toAddress);\n    }\n\n    function setLockDuration(\n        uint256 _lockDuration\n    )\n        public\n        onlyOwner()\n        delayPast()\n    {\n        lastActionTime = block.timestamp;\n        _setLockDuration(_lockDuration);\n    }\n\n    // members function\n    function requestOut(\n        uint256 _amount\n    )\n        public\n    {\n        _updateFundCpt();\n        address payable _sender = msg.sender;\n        _coinWithdraw(_sender);\n        uint256 _added = _requestOut(_sender, _amount);\n        _burn(_sender, _added);\n        _updateCredit(_sender, 0);\n    }\n\n    function tokenDeposit(\n        uint256 _amount\n    )\n            public\n    {\n        _updateFundCpt();\n        address _sender = msg.sender;\n        uint256 _coinBalance = coinOf(_sender);\n        ntfToken.transferFrom(_sender, address(this), _amount);\n        _mint(_sender, _amount);\n        _updateCredit(_sender, _coinBalance);\n    }\n\n    function tokenMemberWithdraw(\n    )\n        public\n        notLocking()\n    {\n        address _sender = msg.sender;\n        uint256 _amount = pendingOut[_sender];\n        if (_amount > getPoolNtfBalance()) {\n            _leave();\n            return;\n        }\n        ntfToken.transfer(_sender, _amount);\n        _removeRequest(_sender);\n    }\n\n    function coinWithdraw()\n        public\n    {\n        address payable _sender = msg.sender;\n        _coinWithdraw(_sender);\n    }\n\n    // Read Functions\n\n    // deployed NtfToken contract\n    function getPoolNtfBalance()\n        public\n        view\n        returns(uint256)\n    {\n        return ntfToken.balanceOf(address(this));\n    }\n\n    //  CoinShare contract\n    // function getCpt() public view returns(uint256)\n    // function getFund() public view returns(uint256)\n    // function getCoinOf(address _member) public view returns(uint256)\n\n    // Lockable contract\n    // function getUnlockTime(address _member) public view returns(uint256)\n    // function isLocking(address _member) public view returns(bool)\n    // function getLockDuration() public view returns(uint256)\n\n    function getStatus()\n        public\n        view\n        returns(uint256)\n    {\n        return gov.getStatus(address(this));\n    }\n\n    function getPoolGovBalance()\n        public\n        view\n        returns(uint256)\n    {\n        return gov.getBalance(address(this));\n    }\n\n    function getCoinbase()\n        public\n        view\n        returns(address)\n    {\n        return gov.getCoinbase(address(this));\n    }\n\n    function getUnlockHeight()\n        public\n        view\n        returns(uint256)\n    {\n        return gov.getUnlockHeight(address(this));\n    }\n\n    function isWithdrawable()\n        external\n        view\n        returns(bool)\n    {\n        return gov.isWithdrawable(address(this));\n    }\n\n/*\n    TEST TEST TEST TEST TEST TEST TEST TEST TEST \n*/\n    // send nty to contract as Reward from Core\n    function virtuellMining()\n        public\n        payable\n    {\n\n    }\n}",
  "sourcePath": "/mnt/c/Projects/sealing-pool/contracts/ntfPool/NtfPool.sol",
  "compiler": {
    "name": "solc",
    "version": "0.5.0+commit.1d4f565a.Emscripten.clang"
  },
  "schemaVersion": "3.0.9",
  "updatedAt": "2019-05-28T09:06:55.233Z",
  "devdoc": {
    "methods": {
      "allowance(address,address)": {
        "details": "See `IERC20.allowance`.",
        "params": {
          "owner": "address The address which owns the funds.",
          "spender": "address The address which will spend the funds."
        },
        "return": "A uint256 specifying the amount of tokens still available for the spender."
      },
      "approve(address,uint256)": {
        "details": "See `IERC20.approve`.     * Requirements:     * - `spender` cannot be the zero address.",
        "params": {
          "spender": "The address which will spend the funds.",
          "value": "The amount of tokens to be spent."
        }
      },
      "balanceOf(address)": {
        "details": "See `IERC20.balanceOf`.",
        "params": {
          "owner": "The address to query the balance of."
        },
        "return": "An uint256 representing the amount owned by the passed address."
      },
      "decreaseAllowance(address,uint256)": {
        "details": "Atomically decreases the allowance granted to `spender` by the caller.     * This is an alternative to `approve` that can be used as a mitigation for problems described in `IERC20.approve`.     * Emits an `Approval` event indicating the updated allowance.     * Requirements:     * - `spender` cannot be the zero address. - `spender` must have allowance for the caller of at least `subtractedValue`.",
        "params": {
          "spender": "The address which will spend the funds.",
          "subtractedValue": "The amount of tokens to decrease the allowance by."
        }
      },
      "increaseAllowance(address,uint256)": {
        "details": "Atomically increases the allowance granted to `spender` by the caller.     * This is an alternative to `approve` that can be used as a mitigation for problems described in `IERC20.approve`.     * Emits an `Approval` event indicating the updated allowance.     * Requirements:     * - `spender` cannot be the zero address.",
        "params": {
          "addedValue": "The amount of tokens to increase the allowance by.",
          "spender": "The address which will spend the funds."
        }
      },
      "initialize(address)": {
        "details": "The Ownable constructor sets the original `owner` of the contract to the sender account."
      },
      "isOwner()": {
        "return": "true if `msg.sender` is the owner of the contract."
      },
      "owner()": {
        "return": "the address of the owner."
      },
      "renounceOwnership()": {
        "details": "Allows the current owner to relinquish control of the contract."
      },
      "totalSupply()": {
        "details": "See `IERC20.totalSupply`."
      },
      "transferFrom(address,address,uint256)": {
        "details": "See `IERC20.transferFrom`.     * Emits an `Approval` event indicating the updated allowance. This is not required by the EIP. See the note at the beginning of `ERC20`;     * Requirements: - `sender` and `recipient` cannot be the zero address. - `sender` must have a balance of at least `value`. - the caller must have allowance for `sender`'s tokens of at least `amount`.",
        "params": {
          "from": "address The address which you want to send tokens from",
          "to": "address The address which you want to transfer to",
          "value": "uint256 the amount of tokens to be transferred"
        }
      },
      "transferOwnership(address)": {
        "details": "Allows the current owner to transfer control of the contract to a newOwner.",
        "params": {
          "newOwner": "The address to transfer ownership to."
        }
      }
    }
  },
  "userdoc": {
    "methods": {
      "renounceOwnership()": {
        "notice": "Renouncing to ownership will leave the contract without an owner. It will not be possible to call the functions with the `onlyOwner` modifier anymore."
      }
    }
  }
}