{
  "contractName": "PoolDesc",
  "abi": [
    {
      "constant": true,
      "inputs": [],
      "name": "name",
      "outputs": [
        {
          "name": "",
          "type": "string"
        }
      ],
      "payable": false,
      "stateMutability": "view",
      "type": "function"
    },
    {
      "constant": true,
      "inputs": [],
      "name": "location",
      "outputs": [
        {
          "name": "",
          "type": "string"
        }
      ],
      "payable": false,
      "stateMutability": "view",
      "type": "function"
    },
    {
      "constant": true,
      "inputs": [],
      "name": "email",
      "outputs": [
        {
          "name": "",
          "type": "string"
        }
      ],
      "payable": false,
      "stateMutability": "view",
      "type": "function"
    },
    {
      "constant": true,
      "inputs": [],
      "name": "website",
      "outputs": [
        {
          "name": "",
          "type": "string"
        }
      ],
      "payable": false,
      "stateMutability": "view",
      "type": "function"
    },
    {
      "constant": true,
      "inputs": [],
      "name": "logo",
      "outputs": [
        {
          "name": "",
          "type": "string"
        }
      ],
      "payable": false,
      "stateMutability": "view",
      "type": "function"
    },
    {
      "inputs": [
        {
          "name": "_name",
          "type": "string"
        },
        {
          "name": "_website",
          "type": "string"
        },
        {
          "name": "_location",
          "type": "string"
        },
        {
          "name": "_logo",
          "type": "string"
        }
      ],
      "payable": false,
      "stateMutability": "nonpayable",
      "type": "constructor"
    }
  ],
  "bytecode": "0x608060405234801561001057600080fd5b506040516109103803806109108339810180604052608081101561003357600080fd5b81019080805164010000000081111561004b57600080fd5b8281019050602081018481111561006157600080fd5b815185600182028301116401000000008211171561007e57600080fd5b5050929190602001805164010000000081111561009a57600080fd5b828101905060208101848111156100b057600080fd5b81518560018202830111640100000000821117156100cd57600080fd5b505092919060200180516401000000008111156100e957600080fd5b828101905060208101848111156100ff57600080fd5b815185600182028301116401000000008211171561011c57600080fd5b5050929190602001805164010000000081111561013857600080fd5b8281019050602081018481111561014e57600080fd5b815185600182028301116401000000008211171561016b57600080fd5b505092919050505083600090805190602001906101899291906101d8565b5082600190805190602001906101a09291906101d8565b5081600290805190602001906101b79291906101d8565b5080600490805190602001906101ce9291906101d8565b505050505061027d565b828054600181600116156101000203166002900490600052602060002090601f016020900481019282601f1061021957805160ff1916838001178555610247565b82800160010185558215610247579182015b8281111561024657825182559160200191906001019061022b565b5b5090506102549190610258565b5090565b61027a91905b8082111561027657600081600090555060010161025e565b5090565b90565b6106848061028c6000396000f3fe60806040526004361061006d576000357c0100000000000000000000000000000000000000000000000000000000900463ffffffff16806306fdde0314610072578063516f279e14610102578063820e93f514610192578063beb0a41614610222578063fb7f21eb146102b2575b600080fd5b34801561007e57600080fd5b50610087610342565b6040518080602001828103825283818151815260200191508051906020019080838360005b838110156100c75780820151818401526020810190506100ac565b50505050905090810190601f1680156100f45780820380516001836020036101000a031916815260200191505b509250505060405180910390f35b34801561010e57600080fd5b506101176103e0565b6040518080602001828103825283818151815260200191508051906020019080838360005b8381101561015757808201518184015260208101905061013c565b50505050905090810190601f1680156101845780820380516001836020036101000a031916815260200191505b509250505060405180910390f35b34801561019e57600080fd5b506101a761047e565b6040518080602001828103825283818151815260200191508051906020019080838360005b838110156101e75780820151818401526020810190506101cc565b50505050905090810190601f1680156102145780820380516001836020036101000a031916815260200191505b509250505060405180910390f35b34801561022e57600080fd5b5061023761051c565b6040518080602001828103825283818151815260200191508051906020019080838360005b8381101561027757808201518184015260208101905061025c565b50505050905090810190601f1680156102a45780820380516001836020036101000a031916815260200191505b509250505060405180910390f35b3480156102be57600080fd5b506102c76105ba565b6040518080602001828103825283818151815260200191508051906020019080838360005b838110156103075780820151818401526020810190506102ec565b50505050905090810190601f1680156103345780820380516001836020036101000a031916815260200191505b509250505060405180910390f35b60008054600181600116156101000203166002900480601f0160208091040260200160405190810160405280929190818152602001828054600181600116156101000203166002900480156103d85780601f106103ad576101008083540402835291602001916103d8565b820191906000526020600020905b8154815290600101906020018083116103bb57829003601f168201915b505050505081565b60028054600181600116156101000203166002900480601f0160208091040260200160405190810160405280929190818152602001828054600181600116156101000203166002900480156104765780601f1061044b57610100808354040283529160200191610476565b820191906000526020600020905b81548152906001019060200180831161045957829003601f168201915b505050505081565b60038054600181600116156101000203166002900480601f0160208091040260200160405190810160405280929190818152602001828054600181600116156101000203166002900480156105145780601f106104e957610100808354040283529160200191610514565b820191906000526020600020905b8154815290600101906020018083116104f757829003601f168201915b505050505081565b60018054600181600116156101000203166002900480601f0160208091040260200160405190810160405280929190818152602001828054600181600116156101000203166002900480156105b25780601f10610587576101008083540402835291602001916105b2565b820191906000526020600020905b81548152906001019060200180831161059557829003601f168201915b505050505081565b60048054600181600116156101000203166002900480601f0160208091040260200160405190810160405280929190818152602001828054600181600116156101000203166002900480156106505780601f1061062557610100808354040283529160200191610650565b820191906000526020600020905b81548152906001019060200180831161063357829003601f168201915b50505050508156fea165627a7a723058208535ded0c2cc4df7486e3e820f66f1d011f797dd4f39c46c3b3c25e8bc97ec8c0029",
  "source": "pragma solidity ^0.5.0;\n\nimport \"./../../node_modules/openzeppelin-eth/contracts/ownership/Ownable.sol\";\nimport \"./CoinShare.sol\";\nimport \"./Request.sol\";\n\nimport \"./interfaces/GovI.sol\";\nimport \"./interfaces/NtfTokenI.sol\";\n\ncontract PoolDesc {\n    string public name;\n    string public website;\n    string public location;\n    string public email;\n    string public logo;\n\n    constructor (\n        string memory _name,\n        string memory _website,\n        string memory _location,\n        string memory _logo\n    ) public {\n        name = _name;\n        website = _website;\n        location = _location;\n        logo = _logo;\n    }\n}\n\ncontract NtfPool is PoolDesc, CoinShare, Ownable, Request {\n    uint256 public OWNER_ACTION_DELAY; // = 7 days;\n\n    uint256 lastActionTime;\n\n    NtfTokenI public ntfToken;\n    GovI public gov;\n\n    modifier delayPast() {\n        require(block.timestamp > lastActionTime + OWNER_ACTION_DELAY, \"dont change to quick\");\n        _;\n    }\n\n    function () external payable {}\n\n    constructor\n    (\n        address _owner,\n        address _ntfAddress,\n        address _govAddress,\n        uint256 _COMPRATE,\n        uint256 _MAX_LOCK_DURATION,\n        uint256 _OWNER_ACTION_DELAY,\n        string memory _name,\n        string memory _website,\n        string memory _location,\n        string memory _logo\n    )\n        public\n        PoolDesc(_name, _website, _location, _logo)\n    {\n        ntfToken = NtfTokenI(_ntfAddress);\n        gov = GovI(_govAddress);\n        require(_COMPRATE >= 0 && _COMPRATE <= 100, \"invalid compensation rate\");\n        COMPRATE = _COMPRATE;\n        MAX_LOCK_DURATION = _MAX_LOCK_DURATION;\n        _setLockDuration(60);\n        OWNER_ACTION_DELAY = _OWNER_ACTION_DELAY;\n        initialize(_owner);\n    }\n\n    // owner function\n    // function deposit(uint256 _amount) external returns (bool);\n    // function join(address _signer) external returns (bool);\n    // function leave() external returns (bool);\n    // function withdraw() external returns (bool);\n\n    function join(\n        uint256 _amount,\n        address _signer\n    )\n        public\n        onlyOwner()\n    {\n        require(_amount.add(pendingOutSum) <= getPoolNtfBalance(), \"not enough to join\");\n        ntfToken.approve(address(gov), _amount);\n        gov.deposit(_amount);\n        gov.join(_signer);\n    }\n\n    function _leave()\n        internal\n    {\n        gov.leave();\n    }\n\n    function leave()\n        public\n        onlyOwner()\n    {\n        _leave();\n    }\n\n    function tokenPoolWithdraw()\n        public\n        //onlyOwner()\n    {\n        gov.withdraw();\n    }\n\n    function fundWithdraw(\n        address payable _toAddress\n    )\n        public\n        onlyOwner()\n    {\n        _fundWithdraw(_toAddress);\n    }\n\n    function setLockDuration(\n        uint256 _lockDuration\n    )\n        public\n        onlyOwner()\n        delayPast()\n    {\n        lastActionTime = block.timestamp;\n        _setLockDuration(_lockDuration);\n    }\n\n    // members function\n    function requestOut(\n        uint256 _amount\n    )\n        public\n    {\n        _updateFundCpt();\n        address payable _sender = msg.sender;\n        _coinWithdraw(_sender);\n        uint256 _added = _requestOut(_sender, _amount);\n        _burn(_sender, _added);\n        _updateCredit(_sender, 0);\n    }\n\n    function tokenDeposit(\n        uint256 _amount\n    )\n            public\n    {\n        _updateFundCpt();\n        address _sender = msg.sender;\n        uint256 _coinBalance = coinOf(_sender);\n        ntfToken.transferFrom(_sender, address(this), _amount);\n        _mint(_sender, _amount);\n        _updateCredit(_sender, _coinBalance);\n    }\n\n    function tokenMemberWithdraw(\n    )\n        public\n        notLocking()\n    {\n        address _sender = msg.sender;\n        uint256 _amount = pendingOut[_sender];\n        if (_amount > getPoolNtfBalance()) {\n            _leave();\n            return;\n        }\n        ntfToken.transfer(_sender, _amount);\n        _removeRequest(_sender);\n    }\n\n    function coinWithdraw()\n        public\n    {\n        address payable _sender = msg.sender;\n        _coinWithdraw(_sender);\n    }\n\n    // Read Functions\n\n    // deployed NtfToken contract\n    function getPoolNtfBalance()\n        public\n        view\n        returns(uint256)\n    {\n        return ntfToken.balanceOf(address(this));\n    }\n\n    //  CoinShare contract\n    // function getCpt() public view returns(uint256)\n    // function getFund() public view returns(uint256)\n    // function getCoinOf(address _member) public view returns(uint256)\n\n    // Lockable contract\n    // function getUnlockTime(address _member) public view returns(uint256)\n    // function isLocking(address _member) public view returns(bool)\n    // function getLockDuration() public view returns(uint256)\n\n    function getStatus()\n        public\n        view\n        returns(uint256)\n    {\n        return gov.getStatus(address(this));\n    }\n\n    function getPoolGovBalance()\n        public\n        view\n        returns(uint256)\n    {\n        return gov.getBalance(address(this));\n    }\n\n    function getCoinbase()\n        public\n        view\n        returns(address)\n    {\n        return gov.getCoinbase(address(this));\n    }\n\n    function getUnlockHeight()\n        public\n        view\n        returns(uint256)\n    {\n        return gov.getUnlockHeight(address(this));\n    }\n\n    function isWithdrawable()\n        external\n        view\n        returns(bool)\n    {\n        return gov.isWithdrawable(address(this));\n    }\n\n/*\n    TEST TEST TEST TEST TEST TEST TEST TEST TEST \n*/\n    // send nty to contract as Reward from Core\n    function virtuellMining()\n        public\n        payable\n    {\n\n    }\n}",
  "sourcePath": "/mnt/c/Projects/sealing-pool/contracts/ntfPool/NtfPool.sol",
  "compiler": {
    "name": "solc",
    "version": "0.5.0+commit.1d4f565a.Emscripten.clang"
  },
  "schemaVersion": "3.0.9",
  "updatedAt": "2019-05-28T08:39:06.676Z",
  "devdoc": {
    "methods": {}
  },
  "userdoc": {
    "methods": {}
  }
}