{
  "contractName": "Request",
  "abi": [
    {
      "constant": true,
      "inputs": [],
      "name": "MAX_LOCK_DURATION",
      "outputs": [
        {
          "name": "",
          "type": "uint256"
        }
      ],
      "payable": false,
      "stateMutability": "view",
      "type": "function"
    },
    {
      "constant": true,
      "inputs": [],
      "name": "pendingOutSum",
      "outputs": [
        {
          "name": "",
          "type": "uint256"
        }
      ],
      "payable": false,
      "stateMutability": "view",
      "type": "function"
    },
    {
      "constant": true,
      "inputs": [
        {
          "name": "_member",
          "type": "address"
        }
      ],
      "name": "isLocking",
      "outputs": [
        {
          "name": "",
          "type": "bool"
        }
      ],
      "payable": false,
      "stateMutability": "view",
      "type": "function"
    },
    {
      "constant": true,
      "inputs": [
        {
          "name": "_member",
          "type": "address"
        }
      ],
      "name": "getUnlockTime",
      "outputs": [
        {
          "name": "",
          "type": "uint256"
        }
      ],
      "payable": false,
      "stateMutability": "view",
      "type": "function"
    },
    {
      "constant": true,
      "inputs": [],
      "name": "getLockDuration",
      "outputs": [
        {
          "name": "",
          "type": "uint256"
        }
      ],
      "payable": false,
      "stateMutability": "view",
      "type": "function"
    },
    {
      "constant": true,
      "inputs": [
        {
          "name": "",
          "type": "address"
        }
      ],
      "name": "pendingOut",
      "outputs": [
        {
          "name": "",
          "type": "uint256"
        }
      ],
      "payable": false,
      "stateMutability": "view",
      "type": "function"
    }
  ],
  "bytecode": "0x608060405234801561001057600080fd5b5061031d806100206000396000f3fe608060405260043610610078576000357c0100000000000000000000000000000000000000000000000000000000900463ffffffff1680634f1bfc9e1461007d578063acf1ba9f146100a8578063d12c33b7146100d3578063dbed1e881461013c578063e239c400146101a1578063ee0cfb09146101cc575b600080fd5b34801561008957600080fd5b50610092610231565b6040518082815260200191505060405180910390f35b3480156100b457600080fd5b506100bd610237565b6040518082815260200191505060405180910390f35b3480156100df57600080fd5b50610122600480360360208110156100f657600080fd5b81019080803573ffffffffffffffffffffffffffffffffffffffff16906020019092919050505061023d565b604051808215151515815260200191505060405180910390f35b34801561014857600080fd5b5061018b6004803603602081101561015f57600080fd5b81019080803573ffffffffffffffffffffffffffffffffffffffff169060200190929190505050610287565b6040518082815260200191505060405180910390f35b3480156101ad57600080fd5b506101b66102cf565b6040518082815260200191505060405180910390f35b3480156101d857600080fd5b5061021b600480360360208110156101ef57600080fd5b81019080803573ffffffffffffffffffffffffffffffffffffffff1690602001909291905050506102d9565b6040518082815260200191505060405180910390f35b60025481565b60035481565b6000426000808473ffffffffffffffffffffffffffffffffffffffff1673ffffffffffffffffffffffffffffffffffffffff16815260200190815260200160002054119050919050565b60008060008373ffffffffffffffffffffffffffffffffffffffff1673ffffffffffffffffffffffffffffffffffffffff168152602001908152602001600020549050919050565b6000600154905090565b6004602052806000526040600020600091509050548156fea165627a7a72305820bd3eabe974bf90c37024953faf958b2fad4606073b07614c7c9ad777da2a06dc0029",
  "source": "pragma solidity ^0.5.0;\nimport \"./Lockable.sol\";\n\ncontract Request is Lockable {\n    uint256 public pendingOutSum;\n\n    mapping(address => uint256) public pendingOut;\n\n    function _requestOut(\n        address _sender,\n        uint256 _amount)\n        internal\n        returns (uint256)\n    {\n        require(_amount > pendingOut[_sender], \"new amount must be greater than the older\");\n        uint256 _added = _amount - pendingOut[_sender];\n        pendingOut[_sender] = _amount;\n        pendingOutSum += _amount;\n        _setLock(_sender);\n        return _added;\n    }\n\n    function _removeRequest(\n        address _sender\n    )\n        internal\n    {\n        pendingOutSum -= pendingOut[_sender];\n        pendingOut[_sender] = 0;\n        _relock(_sender);\n    }\n}",
  "sourcePath": "/mnt/c/Projects/sealing-pool/contracts/ntfPool/Request.sol",
  "compiler": {
    "name": "solc",
    "version": "0.5.0+commit.1d4f565a.Emscripten.clang"
  },
  "schemaVersion": "3.0.9",
  "updatedAt": "2019-05-28T08:39:06.690Z",
  "devdoc": {
    "methods": {}
  },
  "userdoc": {
    "methods": {}
  }
}