{
  "contractName": "Owners",
  "abi": [
    {
      "constant": true,
      "inputs": [
        {
          "name": "",
          "type": "uint256"
        }
      ],
      "name": "owners",
      "outputs": [
        {
          "name": "",
          "type": "address"
        }
      ],
      "payable": false,
      "stateMutability": "view",
      "type": "function"
    },
    {
      "constant": true,
      "inputs": [
        {
          "name": "",
          "type": "address"
        }
      ],
      "name": "ownerName",
      "outputs": [
        {
          "name": "",
          "type": "bytes32"
        }
      ],
      "payable": false,
      "stateMutability": "view",
      "type": "function"
    },
    {
      "constant": true,
      "inputs": [
        {
          "name": "",
          "type": "address"
        }
      ],
      "name": "isOwner",
      "outputs": [
        {
          "name": "",
          "type": "bool"
        }
      ],
      "payable": false,
      "stateMutability": "view",
      "type": "function"
    },
    {
      "constant": true,
      "inputs": [
        {
          "name": "",
          "type": "address"
        }
      ],
      "name": "ownerNonce",
      "outputs": [
        {
          "name": "",
          "type": "uint256"
        }
      ],
      "payable": false,
      "stateMutability": "view",
      "type": "function"
    },
    {
      "anonymous": false,
      "inputs": [
        {
          "indexed": true,
          "name": "_owner",
          "type": "address"
        },
        {
          "indexed": false,
          "name": "_ownerName",
          "type": "bytes32"
        }
      ],
      "name": "OwnerAddition",
      "type": "event"
    },
    {
      "anonymous": false,
      "inputs": [
        {
          "indexed": true,
          "name": "_owner",
          "type": "address"
        },
        {
          "indexed": false,
          "name": "_ownerName",
          "type": "bytes32"
        }
      ],
      "name": "OwnerRemoval",
      "type": "event"
    },
    {
      "anonymous": false,
      "inputs": [
        {
          "indexed": true,
          "name": "_owner",
          "type": "address"
        },
        {
          "indexed": false,
          "name": "_oldOwnerName",
          "type": "bytes32"
        },
        {
          "indexed": false,
          "name": "_newOwnerName",
          "type": "bytes32"
        }
      ],
      "name": "OwnerUpdateName",
      "type": "event"
    },
    {
      "constant": true,
      "inputs": [
        {
          "name": "_owner",
          "type": "address"
        }
      ],
      "name": "nextTxId",
      "outputs": [
        {
          "name": "",
          "type": "bytes32"
        }
      ],
      "payable": false,
      "stateMutability": "view",
      "type": "function"
    },
    {
      "constant": true,
      "inputs": [
        {
          "name": "_owner",
          "type": "address"
        }
      ],
      "name": "lastTxId",
      "outputs": [
        {
          "name": "",
          "type": "bytes32"
        }
      ],
      "payable": false,
      "stateMutability": "view",
      "type": "function"
    },
    {
      "constant": true,
      "inputs": [],
      "name": "ownersCount",
      "outputs": [
        {
          "name": "",
          "type": "uint256"
        }
      ],
      "payable": false,
      "stateMutability": "view",
      "type": "function"
    }
  ],
  "bytecode": "0x608060405234801561001057600080fd5b506108c3806100206000396000f3fe608060405260043610610083576000357c0100000000000000000000000000000000000000000000000000000000900463ffffffff168063025e7c27146100885780631357f84414610103578063137dd081146101685780632f54bf6e146101cd578063b948854614610236578063e8ad29b414610261578063fdd596c5146102c6575b600080fd5b34801561009457600080fd5b506100c1600480360360208110156100ab57600080fd5b810190808035906020019092919050505061032b565b604051808273ffffffffffffffffffffffffffffffffffffffff1673ffffffffffffffffffffffffffffffffffffffff16815260200191505060405180910390f35b34801561010f57600080fd5b506101526004803603602081101561012657600080fd5b81019080803573ffffffffffffffffffffffffffffffffffffffff169060200190929190505050610369565b6040518082815260200191505060405180910390f35b34801561017457600080fd5b506101b76004803603602081101561018b57600080fd5b81019080803573ffffffffffffffffffffffffffffffffffffffff169060200190929190505050610381565b6040518082815260200191505060405180910390f35b3480156101d957600080fd5b5061021c600480360360208110156101f057600080fd5b81019080803573ffffffffffffffffffffffffffffffffffffffff169060200190929190505050610646565b604051808215151515815260200191505060405180910390f35b34801561024257600080fd5b5061024b610666565b6040518082815260200191505060405180910390f35b34801561026d57600080fd5b506102b06004803603602081101561028457600080fd5b81019080803573ffffffffffffffffffffffffffffffffffffffff169060200190929190505050610673565b6040518082815260200191505060405180910390f35b3480156102d257600080fd5b50610315600480360360208110156102e957600080fd5b81019080803573ffffffffffffffffffffffffffffffffffffffff16906020019092919050505061068b565b6040518082815260200191505060405180910390f35b60038181548110151561033a57fe5b906000526020600020016000915054906101000a900473ffffffffffffffffffffffffffffffffffffffff1681565b60026020528060005260406000206000915090505481565b600081600160008273ffffffffffffffffffffffffffffffffffffffff1673ffffffffffffffffffffffffffffffffffffffff16815260200190815260200160002060009054906101000a900460ff161515610445576040517f08c379a000000000000000000000000000000000000000000000000000000000815260040180806020018281038252600f8152602001807f6f776e6572206e6f74206578697374000000000000000000000000000000000081525060200191505060405180910390fd5b60008060008573ffffffffffffffffffffffffffffffffffffffff1673ffffffffffffffffffffffffffffffffffffffff168152602001908152602001600020541115156104fb576040517f08c379a000000000000000000000000000000000000000000000000000000000815260040180806020018281038252600b8152602001807f6e6f20747820666f756e6400000000000000000000000000000000000000000081525060200191505060405180910390fd5b60028360016000808773ffffffffffffffffffffffffffffffffffffffff1673ffffffffffffffffffffffffffffffffffffffff1681526020019081526020016000205403604051602001808373ffffffffffffffffffffffffffffffffffffffff1673ffffffffffffffffffffffffffffffffffffffff166c01000000000000000000000000028152601401828152602001925050506040516020818303038152906040526040518082805190602001908083835b6020831015156105d657805182526020820191506020810190506020830392506105b1565b6001836020036101000a038019825116818451168082178552505050505050905001915050602060405180830381855afa158015610618573d6000803e3d6000fd5b5050506040513d602081101561062d57600080fd5b8101908080519060200190929190505050915050919050565b60016020528060005260406000206000915054906101000a900460ff1681565b6000600380549050905090565b60006020528060005260406000206000915090505481565b600081600160008273ffffffffffffffffffffffffffffffffffffffff1673ffffffffffffffffffffffffffffffffffffffff16815260200190815260200160002060009054906101000a900460ff16151561074f576040517f08c379a000000000000000000000000000000000000000000000000000000000815260040180806020018281038252600f8152602001807f6f776e6572206e6f74206578697374000000000000000000000000000000000081525060200191505060405180910390fd5b6002836000808673ffffffffffffffffffffffffffffffffffffffff1673ffffffffffffffffffffffffffffffffffffffff16815260200190815260200160002054604051602001808373ffffffffffffffffffffffffffffffffffffffff1673ffffffffffffffffffffffffffffffffffffffff166c01000000000000000000000000028152601401828152602001925050506040516020818303038152906040526040518082805190602001908083835b6020831015156108275780518252602082019150602081019050602083039250610802565b6001836020036101000a038019825116818451168082178552505050505050905001915050602060405180830381855afa158015610869573d6000803e3d6000fd5b5050506040513d602081101561087e57600080fd5b810190808051906020019092919050505091505091905056fea165627a7a7230582083c7d7b0e83a4444f237b2b7dc542c03c175885a9b85c3e7e4a5b4b1253e4d460029",
  "source": "pragma solidity ^0.5.0;\r\n\r\ncontract Owners {\r\n    event OwnerAddition(address indexed _owner, bytes32 _ownerName);\r\n    event OwnerRemoval(address indexed _owner, bytes32 _ownerName);\r\n    event OwnerUpdateName(address indexed _owner, bytes32 _oldOwnerName, bytes32 _newOwnerName);\r\n\r\n    mapping (address => uint) public ownerNonce;\r\n    mapping (address => bool) public isOwner;\r\n    mapping (address => bytes32) public ownerName;\r\n\r\n    address[] public owners;\r\n\r\n    modifier onlyOwner() {\r\n        require(isOwner[msg.sender], \"owner only\");\r\n        _;\r\n    }\r\n\r\n    modifier ownerDoesNotExist(address _owner) {\r\n        require(!isOwner[_owner], \"owner already exist\");\r\n        _;\r\n    }\r\n\r\n    modifier ownerExists(address _owner) {\r\n        require(isOwner[_owner], \"owner not exist\");\r\n        _;\r\n    }\r\n\r\n    function increaseNonce(address _owner)\r\n        internal\r\n        ownerExists(_owner)\r\n        returns(bytes32)\r\n    {\r\n        bytes32 txId = nextTxId(_owner);\r\n        ownerNonce[_owner]++;\r\n        return txId;\r\n    }\r\n\r\n    function nextTxId(address _owner)\r\n        public\r\n        view\r\n        ownerExists(_owner)\r\n        returns(bytes32)\r\n    {\r\n        return sha256(abi.encodePacked(_owner, ownerNonce[_owner]));\r\n    }\r\n\r\n    function lastTxId(address _owner)\r\n        public\r\n        view\r\n        ownerExists(_owner)\r\n        returns(bytes32)\r\n    {\r\n        require(ownerNonce[_owner] > 0, \"no tx found\");\r\n        return sha256(abi.encodePacked(_owner, ownerNonce[_owner] - 1));\r\n    }\r\n\r\n    function ownersCount()\r\n        public\r\n        view\r\n        returns(uint)\r\n    {\r\n        return owners.length;\r\n    }\r\n}\r\n\r\ncontract Wallet is Owners{\r\n    event Confirmation(bytes32 indexed transactionId, address sender, uint count);\r\n    event Revocation(bytes32 indexed transactionId, address sender, uint count);\r\n    event Submission(bytes32 indexed transactionId, address sender);\r\n    event ExecutionSuccess(bytes32 indexed transactionId, bytes result);\r\n    event ExecutionFailure(bytes32 indexed transactionId);\r\n    event Deposit(address indexed sender, uint value);\r\n    event RequirementChange(uint required);\r\n\r\n    mapping (bytes32 => Transaction) public transactions;\r\n\r\n    mapping (bytes32 => mapping (address => bool)) public confirmations;\r\n\r\n    uint public required;\r\n    uint public executedTxCount;\r\n    uint public pendingTxCount;\r\n\r\n    uint256 public deployedAt;\r\n\r\n    struct Transaction {\r\n        address destination;\r\n        uint value;\r\n        bytes data;\r\n        bool executed;\r\n        uint count;\r\n        bytes32 description;\r\n    }\r\n\r\n    modifier onlyWallet() {\r\n        require(msg.sender == address(this), \"only wallet calls itself\");\r\n        _;\r\n    }\r\n\r\n    modifier transactionExists(bytes32 _transactionId) {\r\n        require(transactions[_transactionId].destination != address(0), \"tx not exist\");\r\n        _;\r\n    }\r\n\r\n    modifier confirmed(bytes32 _transactionId, address _owner) {\r\n        require(confirmations[_transactionId][_owner], \"owner not comfirmed this tx\");\r\n        _;\r\n    }\r\n\r\n    modifier notConfirmed(bytes32 _transactionId, address _owner) {\r\n        require(!confirmations[_transactionId][_owner], \"owner already comfirmed this tx\");\r\n        _;\r\n    }\r\n\r\n    modifier notExecuted(bytes32 _transactionId) {\r\n        require(!transactions[_transactionId].executed, \"tx already executed\");\r\n        _;\r\n    }\r\n\r\n    modifier notNull(address _address) {\r\n        require(_address != address(0), \"address 0x0 not accepted\");\r\n        _;\r\n    }\r\n\r\n    modifier validRequirement(uint ownerCount, uint _required) {\r\n        require(\r\n            _required <= ownerCount &&\r\n            _required != 0 &&\r\n            ownerCount != 0, \"requirements not full filled\");\r\n        _;\r\n    }\r\n\r\n    /// @dev Fallback function allows to deposit ether.\r\n    function()\r\n        external\r\n        payable\r\n    {\r\n        emit Deposit(msg.sender, msg.value);\r\n    }\r\n\r\n    /*\r\n     * Public functions\r\n     */\r\n    /// @dev Contract constructor sets initial _owners and required number of confirmations.\r\n    /// @param _owners List of initial owners.\r\n    /// @param _ownerNames List of initial ownerNames.\r\n    /// @param _required Number of required confirmations.\r\n    constructor (address[] memory _owners, bytes32[] memory _ownerNames, uint _required)\r\n        public\r\n        validRequirement(_owners.length, _required)\r\n    {\r\n        deployedAt = block.number;\r\n        for (uint i = 0; i < _owners.length; i++) {\r\n            if (isOwner[_owners[i]] || _owners[i] == address(0))\r\n                revert(\"owner duplicate in input\");\r\n            isOwner[_owners[i]] = true;\r\n            ownerName[_owners[i]] = _ownerNames[i];\r\n        }\r\n        owners = _owners;\r\n        required = _required;\r\n    }\r\n\r\n    /// @dev Allows to add a new _owner. Transaction has to be sent by wallet.\r\n    /// @param _owner Address of new owner.\r\n    /// @param _ownerName Name of new owner.\r\n    function addOwner(address _owner, bytes32 _ownerName)\r\n        public\r\n        onlyWallet\r\n        ownerDoesNotExist(_owner)\r\n        notNull(_owner)\r\n        validRequirement(owners.length + 1, required)\r\n    {\r\n        isOwner[_owner] = true;\r\n        ownerName[_owner] = _ownerName;\r\n        owners.push(_owner);\r\n        emit OwnerAddition(_owner, _ownerName);\r\n    }\r\n\r\n    /// @dev Allows to remove an _owner. Transaction has to be sent by wallet.\r\n    /// @param _owner Address of _owner.\r\n    function removeOwner(address _owner)\r\n        public\r\n        onlyWallet\r\n        ownerExists(_owner)\r\n    {\r\n        isOwner[_owner] = false;\r\n        for (uint i = 0; i < owners.length - 1; i++)\r\n            if (owners[i] == _owner) {\r\n                owners[i] = owners[owners.length - 1];\r\n                break;\r\n            }\r\n        owners.length -= 1;\r\n        if (required > owners.length)\r\n            changeRequirement(owners.length);\r\n        emit OwnerRemoval(_owner, ownerName[_owner]);\r\n    }\r\n\r\n    /// @dev Allows to replace an owner with a new owner. Transaction has to be sent by wallet.\r\n    /// @param _owner Address of owner to be replaced.\r\n    /// @param _newOwner Address of new owner.\r\n    /// @param _newOwnerName Name of new owner.\r\n    function replaceOwner(address _owner, address _newOwner, bytes32  _newOwnerName)\r\n        public\r\n        onlyWallet\r\n        ownerExists(_owner)\r\n        ownerDoesNotExist(_newOwner)\r\n    {\r\n        for (uint i = 0; i < owners.length; i++)\r\n            if (owners[i] == _owner) {\r\n                owners[i] = _newOwner;\r\n                break;\r\n            }\r\n        isOwner[_owner] = false;\r\n        isOwner[_newOwner] = true;\r\n        emit OwnerRemoval(_owner, ownerName[_owner]);\r\n        emit OwnerAddition(_newOwner, _newOwnerName);\r\n    }\r\n\r\n    /// @dev Allows to replace an ownerName with a new ownerName. Transaction has to be sent by wallet.\r\n    /// @param _owner Address of owner to update ownerName.\r\n    /// @param _newOwnerName New owner's name.\r\n    function updateOwnerName(address _owner, bytes32  _newOwnerName)\r\n        public\r\n        onlyWallet\r\n        ownerExists(_owner)\r\n    {\r\n        bytes32 oldOwnerName = ownerName[_owner];\r\n        ownerName[_owner] = _newOwnerName;\r\n        emit OwnerUpdateName(_owner, oldOwnerName, _newOwnerName);\r\n    }\r\n\r\n    /// @dev Allows to change the number of required confirmations. Transaction has to be sent by wallet.\r\n    /// @param _required Number of required confirmations.\r\n    function changeRequirement(uint _required)\r\n        public\r\n        onlyWallet\r\n        validRequirement(owners.length, _required)\r\n    {\r\n        required = _required;\r\n        emit RequirementChange(_required);\r\n    }\r\n\r\n    /// @dev Allows an owner to submit and confirm a transaction.\r\n    /// @param destination Transaction target address.\r\n    /// @param value Transaction ether value.\r\n    /// @param data Transaction data payload.\r\n    /// @return Returns transaction ID.\r\n    function submitTransaction(address _destination, uint _value, bytes memory _data, bytes32 _description)\r\n        public\r\n        returns (bytes32 transactionId)\r\n    {\r\n        transactionId = addTransaction(_destination, _value, _data, _description);\r\n        confirmTransaction(transactionId);\r\n        pendingTxCount++;\r\n    }\r\n\r\n    /// @dev Allows an owner to confirm a transaction.\r\n    /// @param transactionId Transaction ID.\r\n    function confirmTransaction(bytes32 transactionId)\r\n        public\r\n        ownerExists(msg.sender)\r\n        transactionExists(transactionId)\r\n        notConfirmed(transactionId, msg.sender)\r\n    {\r\n        confirmations[transactionId][msg.sender] = true;\r\n        transactions[transactionId].count++;\r\n        emit Confirmation(transactionId, msg.sender, transactions[transactionId].count);\r\n        executeTransaction(transactionId);\r\n    }\r\n\r\n    /// @dev Allows an owner to revoke a confirmation for a transaction.\r\n    /// @param _transactionId Transaction ID.\r\n    function revokeConfirmation(bytes32 _transactionId)\r\n        public\r\n        ownerExists(msg.sender)\r\n        confirmed(_transactionId, msg.sender)\r\n        notExecuted(_transactionId)\r\n    {\r\n        confirmations[_transactionId][msg.sender] = false;\r\n        transactions[_transactionId].count--;\r\n        emit Revocation(_transactionId, msg.sender, transactions[_transactionId].count);\r\n    }\r\n\r\n    /// @dev Allows anyone to execute a confirmed transaction.\r\n    /// @param _transactionId Transaction ID.\r\n    function executeTransaction(bytes32 _transactionId)\r\n        public\r\n        notExecuted(_transactionId)\r\n    {\r\n        if (isConfirmed(_transactionId)) {\r\n            Transaction storage tx = transactions[_transactionId];\r\n            tx.executed = true;\r\n            (bool success, bytes memory result) = tx.destination.call.value(tx.value)(tx.data);\r\n            if (success) {\r\n                emit ExecutionSuccess(_transactionId, result);\r\n                executedTxCount++;\r\n                pendingTxCount--;\r\n            }\r\n            else {\r\n                emit ExecutionFailure(_transactionId);\r\n                tx.executed = false;\r\n            }\r\n        }\r\n    }\r\n\r\n    /// @dev Returns the confirmation status of a transaction.\r\n    /// @param _transactionId Transaction ID.\r\n    /// @return Confirmation status.\r\n    function isConfirmed(bytes32 _transactionId)\r\n        public\r\n        view\r\n        returns (bool)\r\n    {\r\n        return transactions[_transactionId].count >= required;\r\n    }\r\n\r\n    /*\r\n     * Internal functions\r\n     */\r\n    /// @dev Adds a new transaction to the transaction mapping, if transaction does not exist yet.\r\n    /// @param _destination Transaction target address.\r\n    /// @param _value Transaction ether value.\r\n    /// @param _data Transaction data payload.\r\n    /// @param _description Transaction description.\r\n    /// @return Returns transaction ID, creator.\r\n    function addTransaction(address _destination, uint _value, bytes memory _data, bytes32 _description)\r\n        internal\r\n        notNull(_destination)\r\n        returns (bytes32 transactionId)\r\n    {\r\n        transactionId = increaseNonce(msg.sender);\r\n        transactions[transactionId] = Transaction({\r\n            destination: _destination,\r\n            value: _value,\r\n            data: _data,\r\n            executed: false,\r\n            count: 0,\r\n            description: _description\r\n        });\r\n        emit Submission(transactionId, msg.sender);\r\n    }\r\n\r\n    function getComfirmStatus(bytes32 _transactionId, address _owner)\r\n        public\r\n        view\r\n        returns(bool)\r\n    {\r\n        return confirmations[_transactionId][_owner];\r\n    }\r\n\r\n    /// @dev Returns array with owner addresses, which confirmed transaction.\r\n    /// @param _transactionId Transaction ID.\r\n    /// @return Returns array of owner addresses.\r\n    function getConfirmations(bytes32 _transactionId)\r\n        public\r\n        view\r\n        returns (address[] memory _confirmations)\r\n    {\r\n        address[] memory confirmationsTemp = new address[](owners.length);\r\n        uint count = 0;\r\n        uint i;\r\n        for (i = 0; i < owners.length; i++)\r\n            if (confirmations[_transactionId][owners[i]]) {\r\n                confirmationsTemp[count] = owners[i];\r\n                count += 1;\r\n            }\r\n        _confirmations = new address[](count);\r\n        for (i = 0; i < count; i++)\r\n            _confirmations[i] = confirmationsTemp[i];\r\n    }\r\n}",
  "sourcePath": "C:/Users/bestb/Desktop/Nexty/daf/contracts/Wallet.sol",
  "compiler": {
    "name": "solc",
    "version": "0.5.0+commit.1d4f565a.Emscripten.clang"
  },
  "schemaVersion": "3.0.11",
  "updatedAt": "2019-07-16T07:58:41.314Z",
  "devdoc": {
    "methods": {}
  },
  "userdoc": {
    "methods": {}
  }
}