{
  "contractName": "WalletMaster",
  "abi": [
    {
      "constant": true,
      "inputs": [
        {
          "name": "",
          "type": "address"
        },
        {
          "name": "",
          "type": "uint256"
        }
      ],
      "name": "trackingWallet",
      "outputs": [
        {
          "name": "",
          "type": "address"
        }
      ],
      "payable": false,
      "stateMutability": "view",
      "type": "function"
    },
    {
      "constant": true,
      "inputs": [
        {
          "name": "",
          "type": "address"
        },
        {
          "name": "",
          "type": "address"
        }
      ],
      "name": "trackedWallet",
      "outputs": [
        {
          "name": "",
          "type": "bool"
        }
      ],
      "payable": false,
      "stateMutability": "view",
      "type": "function"
    },
    {
      "constant": false,
      "inputs": [
        {
          "name": "_owners",
          "type": "address[]"
        },
        {
          "name": "_ownerNames",
          "type": "bytes32[]"
        },
        {
          "name": "_required",
          "type": "uint256"
        }
      ],
      "name": "create",
      "outputs": [
        {
          "name": "",
          "type": "address"
        }
      ],
      "payable": false,
      "stateMutability": "nonpayable",
      "type": "function"
    },
    {
      "constant": false,
      "inputs": [
        {
          "name": "_wallet",
          "type": "address"
        }
      ],
      "name": "addWallet",
      "outputs": [],
      "payable": false,
      "stateMutability": "nonpayable",
      "type": "function"
    },
    {
      "constant": false,
      "inputs": [
        {
          "name": "_wallet",
          "type": "address"
        }
      ],
      "name": "removeWallet",
      "outputs": [],
      "payable": false,
      "stateMutability": "nonpayable",
      "type": "function"
    },
    {
      "constant": true,
      "inputs": [],
      "name": "myWallets",
      "outputs": [
        {
          "name": "",
          "type": "address[]"
        }
      ],
      "payable": false,
      "stateMutability": "view",
      "type": "function"
    },
    {
      "constant": true,
      "inputs": [
        {
          "name": "_wallet",
          "type": "address"
        }
      ],
      "name": "isTracked",
      "outputs": [
        {
          "name": "",
          "type": "bool"
        }
      ],
      "payable": false,
      "stateMutability": "view",
      "type": "function"
    }
  ],
  "bytecode": "0x608060405234801561001057600080fd5b5061564a806100206000396000f3fe6080604052600436106200008b576000357c0100000000000000000000000000000000000000000000000000000000900463ffffffff16806324bb47ba14620000905780635f5b936a146200012f5780637b88d81014620002dc578063a75fe8e11462000369578063a8c94d1b14620003be578063d263be48146200042b578063efeb5f1f146200049c575b600080fd5b3480156200009d57600080fd5b50620000ed60048036036040811015620000b657600080fd5b81019080803573ffffffffffffffffffffffffffffffffffffffff16906020019092919080359060200190929190505050620004f1565b604051808273ffffffffffffffffffffffffffffffffffffffff1673ffffffffffffffffffffffffffffffffffffffff16815260200191505060405180910390f35b3480156200013c57600080fd5b506200029a600480360360608110156200015557600080fd5b81019080803590602001906401000000008111156200017357600080fd5b8201836020820111156200018657600080fd5b80359060200191846020830284011164010000000083111715620001a957600080fd5b919080806020026020016040519081016040528093929190818152602001838360200280828437600081840152601f19601f820116905080830192505050505050509192919290803590602001906401000000008111156200020a57600080fd5b8201836020820111156200021d57600080fd5b803590602001918460208302840111640100000000831117156200024057600080fd5b919080806020026020016040519081016040528093929190818152602001838360200280828437600081840152601f19601f820116905080830192505050505050509192919290803590602001909291905050506200053f565b604051808273ffffffffffffffffffffffffffffffffffffffff1673ffffffffffffffffffffffffffffffffffffffff16815260200191505060405180910390f35b348015620002e957600080fd5b506200034f600480360360408110156200030257600080fd5b81019080803573ffffffffffffffffffffffffffffffffffffffff169060200190929190803573ffffffffffffffffffffffffffffffffffffffff16906020019092919050505062000620565b604051808215151515815260200191505060405180910390f35b3480156200037657600080fd5b50620003bc600480360360208110156200038f57600080fd5b81019080803573ffffffffffffffffffffffffffffffffffffffff1690602001909291905050506200064f565b005b348015620003cb57600080fd5b506200041160048036036020811015620003e457600080fd5b81019080803573ffffffffffffffffffffffffffffffffffffffff16906020019092919050505062000bdc565b604051808215151515815260200191505060405180910390f35b3480156200043857600080fd5b506200044362000c6f565b6040518080602001828103825283818151815260200191508051906020019060200280838360005b83811015620004885780820151818401526020810190506200046b565b505050509050019250505060405180910390f35b348015620004a957600080fd5b50620004ef60048036036020811015620004c257600080fd5b81019080803573ffffffffffffffffffffffffffffffffffffffff16906020019092919050505062000d3b565b005b6000602052816000526040600020818154811015156200050d57fe5b906000526020600020016000915091509054906101000a900473ffffffffffffffffffffffffffffffffffffffff1681565b6000808484846200054f62000f7a565b808060200180602001848152602001838103835286818151815260200191508051906020019060200280838360005b838110156200059b5780820151818401526020810190506200057e565b50505050905001838103825285818151815260200191508051906020019060200280838360005b83811015620005df578082015181840152602081019050620005c2565b5050505090500195505050505050604051809103906000f0801580156200060a573d6000803e3d6000fd5b509050620006188162000d3b565b509392505050565b60016020528160005260406000206020528060005260406000206000915091509054906101000a900460ff1681565b6000339050600160008273ffffffffffffffffffffffffffffffffffffffff1673ffffffffffffffffffffffffffffffffffffffff16815260200190815260200160002060008373ffffffffffffffffffffffffffffffffffffffff1673ffffffffffffffffffffffffffffffffffffffff16815260200190815260200160002060009054906101000a900460ff16151562000753576040517f08c379a00000000000000000000000000000000000000000000000000000000081526004018080602001828103825260148152602001807f6e6f7420696e20747261636b696e67206c69737400000000000000000000000081525060200191505060405180910390fd5b6000600160008373ffffffffffffffffffffffffffffffffffffffff1673ffffffffffffffffffffffffffffffffffffffff16815260200190815260200160002060008473ffffffffffffffffffffffffffffffffffffffff1673ffffffffffffffffffffffffffffffffffffffff16815260200190815260200160002060006101000a81548160ff02191690831515021790555060008060008373ffffffffffffffffffffffffffffffffffffffff1673ffffffffffffffffffffffffffffffffffffffff168152602001908152602001600020805490509050600081111515620008a7576040517f08c379a000000000000000000000000000000000000000000000000000000000815260040180806020018281038252600a8152602001807f6c69737420656d7074790000000000000000000000000000000000000000000081525060200191505060405180910390fd5b60008090505b8181101562000bd65760008060008573ffffffffffffffffffffffffffffffffffffffff1673ffffffffffffffffffffffffffffffffffffffff168152602001908152602001600020828154811015156200090457fe5b9060005260206000200160009054906101000a900473ffffffffffffffffffffffffffffffffffffffff1690508473ffffffffffffffffffffffffffffffffffffffff168173ffffffffffffffffffffffffffffffffffffffff16141562000bc7576000808573ffffffffffffffffffffffffffffffffffffffff1673ffffffffffffffffffffffffffffffffffffffff16815260200190815260200160002060016000808773ffffffffffffffffffffffffffffffffffffffff1673ffffffffffffffffffffffffffffffffffffffff1681526020019081526020016000208054905003815481101515620009f657fe5b9060005260206000200160009054906101000a900473ffffffffffffffffffffffffffffffffffffffff166000808673ffffffffffffffffffffffffffffffffffffffff1673ffffffffffffffffffffffffffffffffffffffff1681526020019081526020016000208381548110151562000a6d57fe5b9060005260206000200160006101000a81548173ffffffffffffffffffffffffffffffffffffffff021916908373ffffffffffffffffffffffffffffffffffffffff1602179055506000808573ffffffffffffffffffffffffffffffffffffffff1673ffffffffffffffffffffffffffffffffffffffff16815260200190815260200160002060016000808773ffffffffffffffffffffffffffffffffffffffff1673ffffffffffffffffffffffffffffffffffffffff168152602001908152602001600020805490500381548110151562000b4557fe5b9060005260206000200160006101000a81549073ffffffffffffffffffffffffffffffffffffffff02191690556000808573ffffffffffffffffffffffffffffffffffffffff1673ffffffffffffffffffffffffffffffffffffffff16815260200190815260200160002080548091906001900362000bc5919062000f8b565b505b508080600101915050620008ad565b50505050565b6000600160003373ffffffffffffffffffffffffffffffffffffffff1673ffffffffffffffffffffffffffffffffffffffff16815260200190815260200160002060008373ffffffffffffffffffffffffffffffffffffffff1673ffffffffffffffffffffffffffffffffffffffff16815260200190815260200160002060009054906101000a900460ff169050919050565b60606000803373ffffffffffffffffffffffffffffffffffffffff1673ffffffffffffffffffffffffffffffffffffffff16815260200190815260200160002080548060200260200160405190810160405280929190818152602001828054801562000d3157602002820191906000526020600020905b8160009054906101000a900473ffffffffffffffffffffffffffffffffffffffff1673ffffffffffffffffffffffffffffffffffffffff168152602001906001019080831162000ce6575b5050505050905090565b6000339050600160008273ffffffffffffffffffffffffffffffffffffffff1673ffffffffffffffffffffffffffffffffffffffff16815260200190815260200160002060008373ffffffffffffffffffffffffffffffffffffffff1673ffffffffffffffffffffffffffffffffffffffff16815260200190815260200160002060009054906101000a900460ff1615151562000e40576040517f08c379a00000000000000000000000000000000000000000000000000000000081526004018080602001828103825260188152602001807f616c726561647920696e20747261636b696e67206c697374000000000000000081525060200191505060405180910390fd5b60018060008373ffffffffffffffffffffffffffffffffffffffff1673ffffffffffffffffffffffffffffffffffffffff16815260200190815260200160002060008473ffffffffffffffffffffffffffffffffffffffff1673ffffffffffffffffffffffffffffffffffffffff16815260200190815260200160002060006101000a81548160ff0219169083151502179055506000808273ffffffffffffffffffffffffffffffffffffffff1673ffffffffffffffffffffffffffffffffffffffff1681526020019081526020016000208290806001815401808255809150509060018203906000526020600020016000909192909190916101000a81548173ffffffffffffffffffffffffffffffffffffffff021916908373ffffffffffffffffffffffffffffffffffffffff160217905550505050565b60405161463c8062000fe383390190565b81548183558181111562000fb55781836000526020600020918201910162000fb4919062000fba565b5b505050565b62000fdf91905b8082111562000fdb57600081600090555060010162000fc1565b5090565b9056fe60806040523480156200001157600080fd5b506040516200463c3803806200463c833981018060405260608110156200003757600080fd5b8101908080516401000000008111156200005057600080fd5b828101905060208101848111156200006757600080fd5b81518560208202830111640100000000821117156200008557600080fd5b50509291906020018051640100000000811115620000a257600080fd5b82810190506020810184811115620000b957600080fd5b8151856020820283011164010000000082111715620000d757600080fd5b50509291906020018051906020019092919050505082518181811115801562000101575060008114155b80156200010f575060008214155b151562000184576040517f08c379a000000000000000000000000000000000000000000000000000000000815260040180806020018281038252601c8152602001807f726571756972656d656e7473206e6f742066756c6c2066696c6c65640000000081525060200191505060405180910390fd5b4360098190555060008090505b8551811015620003b557600160008783815181101515620001ae57fe5b9060200190602002015173ffffffffffffffffffffffffffffffffffffffff1673ffffffffffffffffffffffffffffffffffffffff16815260200190815260200160002060009054906101000a900460ff1680620002505750600073ffffffffffffffffffffffffffffffffffffffff1686828151811015156200022e57fe5b9060200190602002015173ffffffffffffffffffffffffffffffffffffffff16145b15620002c4576040517f08c379a00000000000000000000000000000000000000000000000000000000081526004018080602001828103825260188152602001807f6f776e6572206475706c696361746520696e20696e707574000000000000000081525060200191505060405180910390fd5b60018060008884815181101515620002d857fe5b9060200190602002015173ffffffffffffffffffffffffffffffffffffffff1673ffffffffffffffffffffffffffffffffffffffff16815260200190815260200160002060006101000a81548160ff02191690831515021790555084818151811015156200034257fe5b906020019060200201516002600088848151811015156200035f57fe5b9060200190602002015173ffffffffffffffffffffffffffffffffffffffff1673ffffffffffffffffffffffffffffffffffffffff16815260200190815260200160002081905550808060010191505062000191565b508460039080519060200190620003ce929190620003e1565b50826006819055505050505050620004b6565b8280548282559060005260206000209081019282156200045d579160200282015b828111156200045c5782518260006101000a81548173ffffffffffffffffffffffffffffffffffffffff021916908373ffffffffffffffffffffffffffffffffffffffff1602179055509160200191906001019062000402565b5b5090506200046c919062000470565b5090565b620004b391905b80821115620004af57600081816101000a81549073ffffffffffffffffffffffffffffffffffffffff02191690555060010162000477565b5090565b90565b61417680620004c66000396000f3fe60806040526004361061018b576000357c0100000000000000000000000000000000000000000000000000000000900463ffffffff168063025e7c27146101db5780630c4ecab4146102565780630fccb064146102c95780631357f8441461033c578063137dd081146103a1578063173825d9146104065780632f54bf6e14610457578063306ee45d146104c057806338959e2014610511578063443f41d514610621578063642f2eaf1461067c5780636486aa51146107835780636d68e53b146107d657806379716e4314610801578063969f8a831461083c578063a82913dc146108cc578063aba995ec14610927578063b948854614610978578063ba51a6df146109a3578063bce58269146109de578063c69ed5f214610a2f578063dc101fea14610a6a578063dc8452cd14610ac5578063dcc59a9714610af0578063e4604db914610b6b578063e8ad29b414610b82578063eae4c19f14610be7578063f3fc536d14610c12578063f5c408dd14610c4d578063f6b4aa9314610c78578063fdd596c514610cd3575b3373ffffffffffffffffffffffffffffffffffffffff167fe1fffcc4923d04b559f4d29a8bfc6cda04eb5b0d3c460751c2402c5c5cc9109c346040518082815260200191505060405180910390a2005b3480156101e757600080fd5b50610214600480360360208110156101fe57600080fd5b8101908080359060200190929190505050610d38565b604051808273ffffffffffffffffffffffffffffffffffffffff1673ffffffffffffffffffffffffffffffffffffffff16815260200191505060405180910390f35b34801561026257600080fd5b506102af6004803603604081101561027957600080fd5b8101908080359060200190929190803573ffffffffffffffffffffffffffffffffffffffff169060200190929190505050610d76565b604051808215151515815260200191505060405180910390f35b3480156102d557600080fd5b50610322600480360360408110156102ec57600080fd5b8101908080359060200190929190803573ffffffffffffffffffffffffffffffffffffffff169060200190929190505050610da5565b604051808215151515815260200191505060405180910390f35b34801561034857600080fd5b5061038b6004803603602081101561035f57600080fd5b81019080803573ffffffffffffffffffffffffffffffffffffffff169060200190929190505050610e0d565b6040518082815260200191505060405180910390f35b3480156103ad57600080fd5b506103f0600480360360208110156103c457600080fd5b81019080803573ffffffffffffffffffffffffffffffffffffffff169060200190929190505050610e25565b6040518082815260200191505060405180910390f35b34801561041257600080fd5b506104556004803603602081101561042957600080fd5b81019080803573ffffffffffffffffffffffffffffffffffffffff1690602001909291905050506110ea565b005b34801561046357600080fd5b506104a66004803603602081101561047a57600080fd5b81019080803573ffffffffffffffffffffffffffffffffffffffff16906020019092919050505061149e565b604051808215151515815260200191505060405180910390f35b3480156104cc57600080fd5b5061050f600480360360208110156104e357600080fd5b81019080803573ffffffffffffffffffffffffffffffffffffffff1690602001909291905050506114be565b005b34801561051d57600080fd5b5061060b6004803603608081101561053457600080fd5b81019080803573ffffffffffffffffffffffffffffffffffffffff169060200190929190803590602001909291908035906020019064010000000081111561057b57600080fd5b82018360208201111561058d57600080fd5b803590602001918460018302840111640100000000831117156105af57600080fd5b91908080601f016020809104026020016040519081016040528093929190818152602001838380828437600081840152601f19601f82011690508083019250505050505050919291929080359060200190929190505050611643565b6040518082815260200191505060405180910390f35b34801561062d57600080fd5b5061067a6004803603604081101561064457600080fd5b81019080803573ffffffffffffffffffffffffffffffffffffffff16906020019092919080359060200190929190505050611676565b005b34801561068857600080fd5b506106b56004803603602081101561069f57600080fd5b8101908080359060200190929190505050611908565b604051808773ffffffffffffffffffffffffffffffffffffffff1673ffffffffffffffffffffffffffffffffffffffff1681526020018681526020018060200185151515158152602001848152602001838152602001828103825286818151815260200191508051906020019080838360005b83811015610743578082015181840152602081019050610728565b50505050905090810190601f1680156107705780820380516001836020036101000a031916815260200191505b5097505050505050505060405180910390f35b34801561078f57600080fd5b506107bc600480360360208110156107a657600080fd5b8101908080359060200190929190505050611a09565b604051808215151515815260200191505060405180910390f35b3480156107e257600080fd5b506107eb611a2e565b6040518082815260200191505060405180910390f35b34801561080d57600080fd5b5061083a6004803603602081101561082457600080fd5b8101908080359060200190929190505050611a34565b005b34801561084857600080fd5b506108756004803603602081101561085f57600080fd5b8101908080359060200190929190505050611dc8565b6040518080602001828103825283818151815260200191508051906020019060200280838360005b838110156108b857808201518184015260208101905061089d565b505050509050019250505060405180910390f35b3480156108d857600080fd5b50610925600480360360408110156108ef57600080fd5b81019080803573ffffffffffffffffffffffffffffffffffffffff16906020019092919080359060200190929190505050612004565b005b34801561093357600080fd5b506109766004803603602081101561094a57600080fd5b81019080803573ffffffffffffffffffffffffffffffffffffffff16906020019092919050505061219d565b005b34801561098457600080fd5b5061098d612322565b6040518082815260200191505060405180910390f35b3480156109af57600080fd5b506109dc600480360360208110156109c657600080fd5b810190808035906020019092919050505061232f565b005b3480156109ea57600080fd5b50610a2d60048036036020811015610a0157600080fd5b81019080803573ffffffffffffffffffffffffffffffffffffffff1690602001909291905050506124ae565b005b348015610a3b57600080fd5b50610a6860048036036020811015610a5257600080fd5b81019080803590602001909291905050506127ff565b005b348015610a7657600080fd5b50610ac360048036036040811015610a8d57600080fd5b81019080803573ffffffffffffffffffffffffffffffffffffffff16906020019092919080359060200190929190505050612aea565b005b348015610ad157600080fd5b50610ada612d33565b6040518082815260200191505060405180910390f35b348015610afc57600080fd5b50610b6960048036036060811015610b1357600080fd5b81019080803573ffffffffffffffffffffffffffffffffffffffff169060200190929190803573ffffffffffffffffffffffffffffffffffffffff16906020019092919080359060200190929190505050612d39565b005b348015610b7757600080fd5b50610b806131dd565b005b348015610b8e57600080fd5b50610bd160048036036020811015610ba557600080fd5b81019080803573ffffffffffffffffffffffffffffffffffffffff1690602001909291905050506133b6565b6040518082815260200191505060405180910390f35b348015610bf357600080fd5b50610bfc6133ce565b6040518082815260200191505060405180910390f35b348015610c1e57600080fd5b50610c4b60048036036020811015610c3557600080fd5b81019080803590602001909291905050506133d4565b005b348015610c5957600080fd5b50610c6261371d565b6040518082815260200191505060405180910390f35b348015610c8457600080fd5b50610cd160048036036040811015610c9b57600080fd5b81019080803573ffffffffffffffffffffffffffffffffffffffff16906020019092919080359060200190929190505050613723565b005b348015610cdf57600080fd5b50610d2260048036036020811015610cf657600080fd5b81019080803573ffffffffffffffffffffffffffffffffffffffff169060200190929190505050613b24565b6040518082815260200191505060405180910390f35b600381815481101515610d4757fe5b906000526020600020016000915054906101000a900473ffffffffffffffffffffffffffffffffffffffff1681565b60056020528160005260406000206020528060005260406000206000915091509054906101000a900460ff1681565b60006005600084815260200190815260200160002060008373ffffffffffffffffffffffffffffffffffffffff1673ffffffffffffffffffffffffffffffffffffffff16815260200190815260200160002060009054906101000a900460ff16905092915050565b60026020528060005260406000206000915090505481565b600081600160008273ffffffffffffffffffffffffffffffffffffffff1673ffffffffffffffffffffffffffffffffffffffff16815260200190815260200160002060009054906101000a900460ff161515610ee9576040517f08c379a000000000000000000000000000000000000000000000000000000000815260040180806020018281038252600f8152602001807f6f776e6572206e6f74206578697374000000000000000000000000000000000081525060200191505060405180910390fd5b60008060008573ffffffffffffffffffffffffffffffffffffffff1673ffffffffffffffffffffffffffffffffffffffff16815260200190815260200160002054111515610f9f576040517f08c379a000000000000000000000000000000000000000000000000000000000815260040180806020018281038252600b8152602001807f6e6f20747820666f756e6400000000000000000000000000000000000000000081525060200191505060405180910390fd5b60028360016000808773ffffffffffffffffffffffffffffffffffffffff1673ffffffffffffffffffffffffffffffffffffffff1681526020019081526020016000205403604051602001808373ffffffffffffffffffffffffffffffffffffffff1673ffffffffffffffffffffffffffffffffffffffff166c01000000000000000000000000028152601401828152602001925050506040516020818303038152906040526040518082805190602001908083835b60208310151561107a5780518252602082019150602081019050602083039250611055565b6001836020036101000a038019825116818451168082178552505050505050905001915050602060405180830381855afa1580156110bc573d6000803e3d6000fd5b5050506040513d60208110156110d157600080fd5b8101908080519060200190929190505050915050919050565b3073ffffffffffffffffffffffffffffffffffffffff163373ffffffffffffffffffffffffffffffffffffffff1614151561118d576040517f08c379a00000000000000000000000000000000000000000000000000000000081526004018080602001828103825260188152602001807f6f6e6c792077616c6c65742063616c6c7320697473656c66000000000000000081525060200191505060405180910390fd5b80600160008273ffffffffffffffffffffffffffffffffffffffff1673ffffffffffffffffffffffffffffffffffffffff16815260200190815260200160002060009054906101000a900460ff16151561124f576040517f08c379a000000000000000000000000000000000000000000000000000000000815260040180806020018281038252600f8152602001807f6f776e6572206e6f74206578697374000000000000000000000000000000000081525060200191505060405180910390fd5b6000600160008473ffffffffffffffffffffffffffffffffffffffff1673ffffffffffffffffffffffffffffffffffffffff16815260200190815260200160002060006101000a81548160ff02191690831515021790555060008090505b6001600380549050038110156113d5578273ffffffffffffffffffffffffffffffffffffffff166003828154811015156112e357fe5b9060005260206000200160009054906101000a900473ffffffffffffffffffffffffffffffffffffffff1673ffffffffffffffffffffffffffffffffffffffff1614156113c857600360016003805490500381548110151561134157fe5b9060005260206000200160009054906101000a900473ffffffffffffffffffffffffffffffffffffffff1660038281548110151561137b57fe5b9060005260206000200160006101000a81548173ffffffffffffffffffffffffffffffffffffffff021916908373ffffffffffffffffffffffffffffffffffffffff1602179055506113d5565b80806001019150506112ad565b5060016003818180549050039150816113ee9190614079565b50600380549050600654111561140d5761140c60038054905061232f565b5b8173ffffffffffffffffffffffffffffffffffffffff167f55e6208fb59f28a868d3c1e97c1b71e7458eef0a6cab50286756de6cf8aad698600260008573ffffffffffffffffffffffffffffffffffffffff1673ffffffffffffffffffffffffffffffffffffffff168152602001908152602001600020546040518082815260200191505060405180910390a25050565b60016020528060005260406000206000915054906101000a900460ff1681565b3073ffffffffffffffffffffffffffffffffffffffff163373ffffffffffffffffffffffffffffffffffffffff16141515611561576040517f08c379a00000000000000000000000000000000000000000000000000000000081526004018080602001828103825260188152602001807f6f6e6c792077616c6c65742063616c6c7320697473656c66000000000000000081525060200191505060405180910390fd5b8073ffffffffffffffffffffffffffffffffffffffff1663cd92c57d6040518163ffffffff167c0100000000000000000000000000000000000000000000000000000000028152600401600060405180830381600087803b1580156115c557600080fd5b505af11580156115d9573d6000803e3d6000fd5b505050507f349ddabd987153a094c84cfd57cec2216bca6c2c95d985c9981aacd93c267a7d81604051808273ffffffffffffffffffffffffffffffffffffffff1673ffffffffffffffffffffffffffffffffffffffff16815260200191505060405180910390a150565b600061165185858585613d30565b905061165c81611a34565b600860008154809291906001019190505550949350505050565b3073ffffffffffffffffffffffffffffffffffffffff163373ffffffffffffffffffffffffffffffffffffffff16141515611719576040517f08c379a00000000000000000000000000000000000000000000000000000000081526004018080602001828103825260188152602001807f6f6e6c792077616c6c65742063616c6c7320697473656c66000000000000000081525060200191505060405180910390fd5b6000732c783ad80ff980ec75468477e3dd9f86123ecbda90508073ffffffffffffffffffffffffffffffffffffffff1663095ea7b384846040518363ffffffff167c0100000000000000000000000000000000000000000000000000000000028152600401808373ffffffffffffffffffffffffffffffffffffffff1673ffffffffffffffffffffffffffffffffffffffff16815260200182815260200192505050602060405180830381600087803b1580156117d557600080fd5b505af11580156117e9573d6000803e3d6000fd5b505050506040513d60208110156117ff57600080fd5b8101908080519060200190929190505050508273ffffffffffffffffffffffffffffffffffffffff1663e1fe7d23836040518263ffffffff167c010000000000000000000000000000000000000000000000000000000002815260040180828152602001915050600060405180830381600087803b15801561188057600080fd5b505af1158015611894573d6000803e3d6000fd5b505050507f20b3fc91390f6ceba342f697a9490734680fd3556633f40efa146f1dbe79d05f8383604051808373ffffffffffffffffffffffffffffffffffffffff1673ffffffffffffffffffffffffffffffffffffffff1681526020018281526020019250505060405180910390a1505050565b60046020528060005260406000206000915090508060000160009054906101000a900473ffffffffffffffffffffffffffffffffffffffff1690806001015490806002018054600181600116156101000203166002900480601f0160208091040260200160405190810160405280929190818152602001828054600181600116156101000203166002900480156119e05780601f106119b5576101008083540402835291602001916119e0565b820191906000526020600020905b8154815290600101906020018083116119c357829003601f168201915b5050505050908060030160009054906101000a900460ff16908060040154908060050154905086565b6000600654600460008481526020019081526020016000206004015410159050919050565b60085481565b33600160008273ffffffffffffffffffffffffffffffffffffffff1673ffffffffffffffffffffffffffffffffffffffff16815260200190815260200160002060009054906101000a900460ff161515611af6576040517f08c379a000000000000000000000000000000000000000000000000000000000815260040180806020018281038252600f8152602001807f6f776e6572206e6f74206578697374000000000000000000000000000000000081525060200191505060405180910390fd5b81600073ffffffffffffffffffffffffffffffffffffffff166004600083815260200190815260200160002060000160009054906101000a900473ffffffffffffffffffffffffffffffffffffffff1673ffffffffffffffffffffffffffffffffffffffff1614151515611bd2576040517f08c379a000000000000000000000000000000000000000000000000000000000815260040180806020018281038252600c8152602001807f7478206e6f74206578697374000000000000000000000000000000000000000081525060200191505060405180910390fd5b82336005600083815260200190815260200160002060008273ffffffffffffffffffffffffffffffffffffffff1673ffffffffffffffffffffffffffffffffffffffff16815260200190815260200160002060009054906101000a900460ff16151515611ca7576040517f08c379a000000000000000000000000000000000000000000000000000000000815260040180806020018281038252601f8152602001807f6f776e657220616c726561647920636f6e6669726d656420746869732074780081525060200191505060405180910390fd5b60016005600087815260200190815260200160002060003373ffffffffffffffffffffffffffffffffffffffff1673ffffffffffffffffffffffffffffffffffffffff16815260200190815260200160002060006101000a81548160ff0219169083151502179055506004600086815260200190815260200160002060040160008154809291906001019190505550847f0ba2cf0aca092078ad26ec33c5aa45752da66621ff68a335d6d1ce0add5bfffa336004600089815260200190815260200160002060040154604051808373ffffffffffffffffffffffffffffffffffffffff1673ffffffffffffffffffffffffffffffffffffffff1681526020018281526020019250505060405180910390a2611dc1856127ff565b5050505050565b606080600380549050604051908082528060200260200182016040528015611dff5781602001602082028038833980820191505090505b509050600080905060008090505b600380549050811015611f4e57600560008681526020019081526020016000206000600383815481101515611e3e57fe5b9060005260206000200160009054906101000a900473ffffffffffffffffffffffffffffffffffffffff1673ffffffffffffffffffffffffffffffffffffffff1673ffffffffffffffffffffffffffffffffffffffff16815260200190815260200160002060009054906101000a900460ff1615611f4157600381815481101515611ec557fe5b9060005260206000200160009054906101000a900473ffffffffffffffffffffffffffffffffffffffff168383815181101515611efe57fe5b9060200190602002019073ffffffffffffffffffffffffffffffffffffffff16908173ffffffffffffffffffffffffffffffffffffffff16815250506001820191505b8080600101915050611e0d565b81604051908082528060200260200182016040528015611f7d5781602001602082028038833980820191505090505b509350600090505b81811015611ffc578281815181101515611f9b57fe5b906020019060200201518482815181101515611fb357fe5b9060200190602002019073ffffffffffffffffffffffffffffffffffffffff16908173ffffffffffffffffffffffffffffffffffffffff16815250508080600101915050611f85565b505050919050565b3073ffffffffffffffffffffffffffffffffffffffff163373ffffffffffffffffffffffffffffffffffffffff161415156120a7576040517f08c379a00000000000000000000000000000000000000000000000000000000081526004018080602001828103825260188152602001807f6f6e6c792077616c6c65742063616c6c7320697473656c66000000000000000081525060200191505060405180910390fd5b8173ffffffffffffffffffffffffffffffffffffffff166342d07a1e826040518263ffffffff167c010000000000000000000000000000000000000000000000000000000002815260040180828152602001915050600060405180830381600087803b15801561211657600080fd5b505af115801561212a573d6000803e3d6000fd5b505050507f204d430f07224bc55bb6d1263886023eb95f32edff2087fa8b1f86430a86805f8282604051808373ffffffffffffffffffffffffffffffffffffffff1673ffffffffffffffffffffffffffffffffffffffff1681526020018281526020019250505060405180910390a15050565b3073ffffffffffffffffffffffffffffffffffffffff163373ffffffffffffffffffffffffffffffffffffffff16141515612240576040517f08c379a00000000000000000000000000000000000000000000000000000000081526004018080602001828103825260188152602001807f6f6e6c792077616c6c65742063616c6c7320697473656c66000000000000000081525060200191505060405180910390fd5b8073ffffffffffffffffffffffffffffffffffffffff1663edfd36cd6040518163ffffffff167c0100000000000000000000000000000000000000000000000000000000028152600401600060405180830381600087803b1580156122a457600080fd5b505af11580156122b8573d6000803e3d6000fd5b505050507ff951536886b87b552f48b2e497982168310344222c94743ea2b37aebf3545dff81604051808273ffffffffffffffffffffffffffffffffffffffff1673ffffffffffffffffffffffffffffffffffffffff16815260200191505060405180910390a150565b6000600380549050905090565b3073ffffffffffffffffffffffffffffffffffffffff163373ffffffffffffffffffffffffffffffffffffffff161415156123d2576040517f08c379a00000000000000000000000000000000000000000000000000000000081526004018080602001828103825260188152602001807f6f6e6c792077616c6c65742063616c6c7320697473656c66000000000000000081525060200191505060405180910390fd5b600380549050818181111580156123ea575060008114155b80156123f7575060008214155b151561246b576040517f08c379a000000000000000000000000000000000000000000000000000000000815260040180806020018281038252601c8152602001807f726571756972656d656e7473206e6f742066756c6c2066696c6c65640000000081525060200191505060405180910390fd5b826006819055507fa3f1ee9126a074d9326c682f561767f710e927faa811f7a99829d49dc421797a836040518082815260200191505060405180910390a1505050565b3073ffffffffffffffffffffffffffffffffffffffff163373ffffffffffffffffffffffffffffffffffffffff16141515612551576040517f08c379a00000000000000000000000000000000000000000000000000000000081526004018080602001828103825260188152602001807f6f6e6c792077616c6c65742063616c6c7320697473656c66000000000000000081525060200191505060405180910390fd5b600081905060008173ffffffffffffffffffffffffffffffffffffffff166370a08231306040518263ffffffff167c0100000000000000000000000000000000000000000000000000000000028152600401808273ffffffffffffffffffffffffffffffffffffffff1673ffffffffffffffffffffffffffffffffffffffff16815260200191505060206040518083038186803b1580156125f157600080fd5b505afa158015612605573d6000803e3d6000fd5b505050506040513d602081101561261b57600080fd5b810190808051906020019092919050505090506000612638612322565b8281151561264257fe5b04905060008090505b612653612322565b81101561278557600060038281548110151561266b57fe5b9060005260206000200160009054906101000a900473ffffffffffffffffffffffffffffffffffffffff1690508473ffffffffffffffffffffffffffffffffffffffff1663a9059cbb82856040518363ffffffff167c0100000000000000000000000000000000000000000000000000000000028152600401808373ffffffffffffffffffffffffffffffffffffffff1673ffffffffffffffffffffffffffffffffffffffff16815260200182815260200192505050602060405180830381600087803b15801561273b57600080fd5b505af115801561274f573d6000803e3d6000fd5b505050506040513d602081101561276557600080fd5b81019080805190602001909291905050505050808060010191505061264b565b507feb6aca1ee8bf803156bf08ce5c6d76cb7e18b9be2808a191925e7a4813bb420f848383604051808473ffffffffffffffffffffffffffffffffffffffff1673ffffffffffffffffffffffffffffffffffffffff168152602001838152602001828152602001935050505060405180910390a150505050565b806004600082815260200190815260200160002060030160009054906101000a900460ff16151515612899576040517f08c379a00000000000000000000000000000000000000000000000000000000081526004018080602001828103825260138152602001807f747820616c72656164792065786563757465640000000000000000000000000081525060200191505060405180910390fd5b6128a282611a09565b15612ae657600060046000848152602001908152602001600020905060018160030160006101000a81548160ff021916908315150217905550600060608260000160009054906101000a900473ffffffffffffffffffffffffffffffffffffffff1673ffffffffffffffffffffffffffffffffffffffff16836001015484600201604051808280546001816001161561010002031660029004801561297e5780601f1061295c57610100808354040283529182019161297e565b820191906000526020600020905b81548152906001019060200180831161296a575b505091505060006040518083038185875af1925050503d80600081146129c0576040519150601f19603f3d011682016040523d82523d6000602084013e6129c5565b606091505b50915091508115612a9757847fc54787fbe087097b182e713f16d3443ad2e67cbe6732628451dd3695a11814c2826040518080602001828103825283818151815260200191508051906020019080838360005b83811015612a33578082015181840152602081019050612a18565b50505050905090810190601f168015612a605780820380516001836020036101000a031916815260200191505b509250505060405180910390a260076000815480929190600101919050555060086000815480929190600190039190505550612ae2565b847fdbe42d02a4e07d7eeff2874efe172540c93b297d206f6d691c9782a257323e3260405160405180910390a260008360030160006101000a81548160ff0219169083151502179055505b5050505b5050565b3073ffffffffffffffffffffffffffffffffffffffff163373ffffffffffffffffffffffffffffffffffffffff16141515612b8d576040517f08c379a00000000000000000000000000000000000000000000000000000000081526004018080602001828103825260188152602001807f6f6e6c792077616c6c65742063616c6c7320697473656c66000000000000000081525060200191505060405180910390fd5b81600160008273ffffffffffffffffffffffffffffffffffffffff1673ffffffffffffffffffffffffffffffffffffffff16815260200190815260200160002060009054906101000a900460ff161515612c4f576040517f08c379a000000000000000000000000000000000000000000000000000000000815260040180806020018281038252600f8152602001807f6f776e6572206e6f74206578697374000000000000000000000000000000000081525060200191505060405180910390fd5b6000600260008573ffffffffffffffffffffffffffffffffffffffff1673ffffffffffffffffffffffffffffffffffffffff16815260200190815260200160002054905082600260008673ffffffffffffffffffffffffffffffffffffffff1673ffffffffffffffffffffffffffffffffffffffff168152602001908152602001600020819055508373ffffffffffffffffffffffffffffffffffffffff167f062c19be8d227f63f7964d05b3750009efbb3b573cc6204e0fa25dc0469bae678285604051808381526020018281526020019250505060405180910390a250505050565b60065481565b3073ffffffffffffffffffffffffffffffffffffffff163373ffffffffffffffffffffffffffffffffffffffff16141515612ddc576040517f08c379a00000000000000000000000000000000000000000000000000000000081526004018080602001828103825260188152602001807f6f6e6c792077616c6c65742063616c6c7320697473656c66000000000000000081525060200191505060405180910390fd5b82600160008273ffffffffffffffffffffffffffffffffffffffff1673ffffffffffffffffffffffffffffffffffffffff16815260200190815260200160002060009054906101000a900460ff161515612e9e576040517f08c379a000000000000000000000000000000000000000000000000000000000815260040180806020018281038252600f8152602001807f6f776e6572206e6f74206578697374000000000000000000000000000000000081525060200191505060405180910390fd5b82600160008273ffffffffffffffffffffffffffffffffffffffff1673ffffffffffffffffffffffffffffffffffffffff16815260200190815260200160002060009054906101000a900460ff16151515612f61576040517f08c379a00000000000000000000000000000000000000000000000000000000081526004018080602001828103825260138152602001807f6f776e657220616c72656164792065786973740000000000000000000000000081525060200191505060405180910390fd5b60008090505b60038054905081101561304b578573ffffffffffffffffffffffffffffffffffffffff16600382815481101515612f9a57fe5b9060005260206000200160009054906101000a900473ffffffffffffffffffffffffffffffffffffffff1673ffffffffffffffffffffffffffffffffffffffff16141561303e5784600382815481101515612ff157fe5b9060005260206000200160006101000a81548173ffffffffffffffffffffffffffffffffffffffff021916908373ffffffffffffffffffffffffffffffffffffffff16021790555061304b565b8080600101915050612f67565b506000600160008773ffffffffffffffffffffffffffffffffffffffff1673ffffffffffffffffffffffffffffffffffffffff16815260200190815260200160002060006101000a81548160ff02191690831515021790555060018060008673ffffffffffffffffffffffffffffffffffffffff1673ffffffffffffffffffffffffffffffffffffffff16815260200190815260200160002060006101000a81548160ff0219169083151502179055508473ffffffffffffffffffffffffffffffffffffffff167f55e6208fb59f28a868d3c1e97c1b71e7458eef0a6cab50286756de6cf8aad698600260008873ffffffffffffffffffffffffffffffffffffffff1673ffffffffffffffffffffffffffffffffffffffff168152602001908152602001600020546040518082815260200191505060405180910390a28373ffffffffffffffffffffffffffffffffffffffff167ffadbfe29cd507847a75a1ee5af6789f63e708e7dcc5d826ded823d1a0fd1357b846040518082815260200191505060405180910390a25050505050565b3073ffffffffffffffffffffffffffffffffffffffff163373ffffffffffffffffffffffffffffffffffffffff16141515613280576040517f08c379a00000000000000000000000000000000000000000000000000000000081526004018080602001828103825260188152602001807f6f6e6c792077616c6c65742063616c6c7320697473656c66000000000000000081525060200191505060405180910390fd5b60003073ffffffffffffffffffffffffffffffffffffffff1631905060006132a6612322565b3073ffffffffffffffffffffffffffffffffffffffff16318115156132c757fe5b049050600080600090505b6132da612322565b811015613371576003818154811015156132f057fe5b9060005260206000200160009054906101000a900473ffffffffffffffffffffffffffffffffffffffff1691508173ffffffffffffffffffffffffffffffffffffffff166108fc849081150290604051600060405180830381858888f19350505050158015613363573d6000803e3d6000fd5b5080806001019150506132d2565b507f0125b941464ad997ce488988c120c0cf79cca068d51131157a8f12be1a3149c58383604051808381526020018281526020019250505060405180910390a1505050565b60006020528060005260406000206000915090505481565b60095481565b33600160008273ffffffffffffffffffffffffffffffffffffffff1673ffffffffffffffffffffffffffffffffffffffff16815260200190815260200160002060009054906101000a900460ff161515613496576040517f08c379a000000000000000000000000000000000000000000000000000000000815260040180806020018281038252600f8152602001807f6f776e6572206e6f74206578697374000000000000000000000000000000000081525060200191505060405180910390fd5b81336005600083815260200190815260200160002060008273ffffffffffffffffffffffffffffffffffffffff1673ffffffffffffffffffffffffffffffffffffffff16815260200190815260200160002060009054906101000a900460ff16151561356a576040517f08c379a000000000000000000000000000000000000000000000000000000000815260040180806020018281038252601b8152602001807f6f776e6572206e6f7420636f6e6669726d65642074686973207478000000000081525060200191505060405180910390fd5b836004600082815260200190815260200160002060030160009054906101000a900460ff16151515613604576040517f08c379a00000000000000000000000000000000000000000000000000000000081526004018080602001828103825260138152602001807f747820616c72656164792065786563757465640000000000000000000000000081525060200191505060405180910390fd5b60006005600087815260200190815260200160002060003373ffffffffffffffffffffffffffffffffffffffff1673ffffffffffffffffffffffffffffffffffffffff16815260200190815260200160002060006101000a81548160ff021916908315150217905550600460008681526020019081526020016000206004016000815480929190600190039190505550847f53751a4d895f03550fdc3dcbba1beb3ea9e16fd42e8eab1eeb5cea8eedbf0310336004600089815260200190815260200160002060040154604051808373ffffffffffffffffffffffffffffffffffffffff1673ffffffffffffffffffffffffffffffffffffffff1681526020018281526020019250505060405180910390a25050505050565b60075481565b3073ffffffffffffffffffffffffffffffffffffffff163373ffffffffffffffffffffffffffffffffffffffff161415156137c6576040517f08c379a00000000000000000000000000000000000000000000000000000000081526004018080602001828103825260188152602001807f6f6e6c792077616c6c65742063616c6c7320697473656c66000000000000000081525060200191505060405180910390fd5b81600160008273ffffffffffffffffffffffffffffffffffffffff1673ffffffffffffffffffffffffffffffffffffffff16815260200190815260200160002060009054906101000a900460ff16151515613889576040517f08c379a00000000000000000000000000000000000000000000000000000000081526004018080602001828103825260138152602001807f6f776e657220616c72656164792065786973740000000000000000000000000081525060200191505060405180910390fd5b82600073ffffffffffffffffffffffffffffffffffffffff168173ffffffffffffffffffffffffffffffffffffffff161415151561392f576040517f08c379a00000000000000000000000000000000000000000000000000000000081526004018080602001828103825260188152602001807f6164647265737320307830206e6f74206163636570746564000000000000000081525060200191505060405180910390fd5b60016003805490500160065481811115801561394c575060008114155b8015613959575060008214155b15156139cd576040517f08c379a000000000000000000000000000000000000000000000000000000000815260040180806020018281038252601c8152602001807f726571756972656d656e7473206e6f742066756c6c2066696c6c65640000000081525060200191505060405180910390fd5b60018060008873ffffffffffffffffffffffffffffffffffffffff1673ffffffffffffffffffffffffffffffffffffffff16815260200190815260200160002060006101000a81548160ff02191690831515021790555084600260008873ffffffffffffffffffffffffffffffffffffffff1673ffffffffffffffffffffffffffffffffffffffff1681526020019081526020016000208190555060038690806001815401808255809150509060018203906000526020600020016000909192909190916101000a81548173ffffffffffffffffffffffffffffffffffffffff021916908373ffffffffffffffffffffffffffffffffffffffff160217905550508573ffffffffffffffffffffffffffffffffffffffff167ffadbfe29cd507847a75a1ee5af6789f63e708e7dcc5d826ded823d1a0fd1357b866040518082815260200191505060405180910390a2505050505050565b600081600160008273ffffffffffffffffffffffffffffffffffffffff1673ffffffffffffffffffffffffffffffffffffffff16815260200190815260200160002060009054906101000a900460ff161515613be8576040517f08c379a000000000000000000000000000000000000000000000000000000000815260040180806020018281038252600f8152602001807f6f776e6572206e6f74206578697374000000000000000000000000000000000081525060200191505060405180910390fd5b6002836000808673ffffffffffffffffffffffffffffffffffffffff1673ffffffffffffffffffffffffffffffffffffffff16815260200190815260200160002054604051602001808373ffffffffffffffffffffffffffffffffffffffff1673ffffffffffffffffffffffffffffffffffffffff166c01000000000000000000000000028152601401828152602001925050506040516020818303038152906040526040518082805190602001908083835b602083101515613cc05780518252602082019150602081019050602083039250613c9b565b6001836020036101000a038019825116818451168082178552505050505050905001915050602060405180830381855afa158015613d02573d6000803e3d6000fd5b5050506040513d6020811015613d1757600080fd5b8101908080519060200190929190505050915050919050565b600084600073ffffffffffffffffffffffffffffffffffffffff168173ffffffffffffffffffffffffffffffffffffffff1614151515613dd8576040517f08c379a00000000000000000000000000000000000000000000000000000000081526004018080602001828103825260188152602001807f6164647265737320307830206e6f74206163636570746564000000000000000081525060200191505060405180910390fd5b613de133613f50565b915060c0604051908101604052808773ffffffffffffffffffffffffffffffffffffffff16815260200186815260200185815260200160001515815260200160008152602001848152506004600084815260200190815260200160002060008201518160000160006101000a81548173ffffffffffffffffffffffffffffffffffffffff021916908373ffffffffffffffffffffffffffffffffffffffff160217905550602082015181600101556040820151816002019080519060200190613eab9291906140a5565b5060608201518160030160006101000a81548160ff0219169083151502179055506080820151816004015560a08201518160050155905050817f54cebb092bbf53c0d9834a9a32151229db4540d4d9534325015533b8fe46b91733604051808273ffffffffffffffffffffffffffffffffffffffff1673ffffffffffffffffffffffffffffffffffffffff16815260200191505060405180910390a250949350505050565b600081600160008273ffffffffffffffffffffffffffffffffffffffff1673ffffffffffffffffffffffffffffffffffffffff16815260200190815260200160002060009054906101000a900460ff161515614014576040517f08c379a000000000000000000000000000000000000000000000000000000000815260040180806020018281038252600f8152602001807f6f776e6572206e6f74206578697374000000000000000000000000000000000081525060200191505060405180910390fd5b600061401f84613b24565b90506000808573ffffffffffffffffffffffffffffffffffffffff1673ffffffffffffffffffffffffffffffffffffffff168152602001908152602001600020600081548092919060010191905055508092505050919050565b8154818355818111156140a05781836000526020600020918201910161409f9190614125565b5b505050565b828054600181600116156101000203166002900490600052602060002090601f016020900481019282601f106140e657805160ff1916838001178555614114565b82800160010185558215614114579182015b828111156141135782518255916020019190600101906140f8565b5b5090506141219190614125565b5090565b61414791905b8082111561414357600081600090555060010161412b565b5090565b9056fea165627a7a72305820eb421ce08255cccf5570d72124e75a1ef4aa79f4ed6a48ff8319b19736d892c20029a165627a7a72305820934d02055cf170ef9e5d3eb1722a6e1c0a350d7e0b3cfba9dc3ef0e6fb984aa50029",
  "source": "pragma solidity ^0.5.0;\r\n\r\nimport \"./Wallet.sol\";\r\n\r\ncontract WalletMaster {\r\n    mapping(address => address[]) public trackingWallet;\r\n    mapping(address => mapping(address => bool)) public trackedWallet;\r\n\r\n    // constructor (\r\n    // )\r\n    //   public\r\n    // {\r\n    // }\r\n\r\n    function create(\r\n        address payable[] memory _owners,\r\n        bytes32[] memory _ownerNames,\r\n        uint _required\r\n    )\r\n        public\r\n        returns (address)\r\n    {\r\n        Wallet wallet = new Wallet(\r\n            _owners,\r\n            _ownerNames,\r\n            _required\r\n        );\r\n        addWallet(address(wallet));\r\n    }\r\n\r\n    function addWallet(\r\n        address payable _wallet\r\n    )\r\n        public\r\n    {\r\n        address sender = msg.sender;\r\n        require(!trackedWallet[sender][_wallet],\"already in tracking list\");\r\n        trackedWallet[sender][_wallet] = true;\r\n        trackingWallet[sender].push(_wallet);\r\n    }\r\n\r\n    function removeWallet(\r\n        address payable _wallet\r\n    )\r\n        public\r\n    {\r\n        address sender = msg.sender;\r\n        require(trackedWallet[sender][_wallet],\"not in tracking list\");\r\n        trackedWallet[sender][_wallet] = false;\r\n        uint count = trackingWallet[sender].length;\r\n        require(count > 0, \"list empty\");\r\n        for (uint i = 0; i < count; i++) {\r\n            address wallet = trackingWallet[sender][i];\r\n            if (wallet == _wallet) {\r\n                trackingWallet[sender][i] = trackingWallet[sender][trackingWallet[sender].length - 1];\r\n                delete trackingWallet[sender][trackingWallet[sender].length-1];\r\n                trackingWallet[sender].length--;\r\n            }\r\n        }\r\n    }\r\n\r\n    function myWallets()\r\n        public\r\n        view\r\n        returns(address[] memory)\r\n    {\r\n        return trackingWallet[msg.sender];\r\n    }\r\n\r\n    function isTracked(\r\n        address payable _wallet\r\n    )\r\n        public\r\n        view\r\n        returns(bool)\r\n    {\r\n        return trackedWallet[msg.sender][_wallet];\r\n    }\r\n}",
  "sourcePath": "C:/Users/bestb/Desktop/Nexty/daf/contracts/WalletMaster.sol",
  "compiler": {
    "name": "solc",
    "version": "0.5.0+commit.1d4f565a.Emscripten.clang"
  },
  "schemaVersion": "3.0.11",
  "updatedAt": "2019-07-31T07:14:41.221Z",
  "devdoc": {
    "methods": {}
  },
  "userdoc": {
    "methods": {}
  }
}