{
  "contractName": "Wallet",
  "abi": [
    {
      "constant": true,
      "inputs": [
        {
          "name": "",
          "type": "uint256"
        }
      ],
      "name": "owners",
      "outputs": [
        {
          "name": "",
          "type": "address"
        }
      ],
      "payable": false,
      "stateMutability": "view",
      "type": "function"
    },
    {
      "constant": true,
      "inputs": [
        {
          "name": "",
          "type": "bytes32"
        },
        {
          "name": "",
          "type": "address"
        }
      ],
      "name": "confirmations",
      "outputs": [
        {
          "name": "",
          "type": "bool"
        }
      ],
      "payable": false,
      "stateMutability": "view",
      "type": "function"
    },
    {
      "constant": true,
      "inputs": [
        {
          "name": "",
          "type": "address"
        }
      ],
      "name": "ownerName",
      "outputs": [
        {
          "name": "",
          "type": "bytes32"
        }
      ],
      "payable": false,
      "stateMutability": "view",
      "type": "function"
    },
    {
      "constant": true,
      "inputs": [
        {
          "name": "_owner",
          "type": "address"
        }
      ],
      "name": "lastTxId",
      "outputs": [
        {
          "name": "",
          "type": "bytes32"
        }
      ],
      "payable": false,
      "stateMutability": "view",
      "type": "function"
    },
    {
      "constant": true,
      "inputs": [
        {
          "name": "",
          "type": "address"
        }
      ],
      "name": "isOwner",
      "outputs": [
        {
          "name": "",
          "type": "bool"
        }
      ],
      "payable": false,
      "stateMutability": "view",
      "type": "function"
    },
    {
      "constant": true,
      "inputs": [
        {
          "name": "",
          "type": "bytes32"
        }
      ],
      "name": "transactions",
      "outputs": [
        {
          "name": "destination",
          "type": "address"
        },
        {
          "name": "value",
          "type": "uint256"
        },
        {
          "name": "data",
          "type": "bytes"
        },
        {
          "name": "executed",
          "type": "bool"
        },
        {
          "name": "count",
          "type": "uint256"
        },
        {
          "name": "description",
          "type": "bytes32"
        }
      ],
      "payable": false,
      "stateMutability": "view",
      "type": "function"
    },
    {
      "constant": true,
      "inputs": [],
      "name": "pendingTxCount",
      "outputs": [
        {
          "name": "",
          "type": "uint256"
        }
      ],
      "payable": false,
      "stateMutability": "view",
      "type": "function"
    },
    {
      "constant": true,
      "inputs": [],
      "name": "ownersCount",
      "outputs": [
        {
          "name": "",
          "type": "uint256"
        }
      ],
      "payable": false,
      "stateMutability": "view",
      "type": "function"
    },
    {
      "constant": true,
      "inputs": [],
      "name": "required",
      "outputs": [
        {
          "name": "",
          "type": "uint256"
        }
      ],
      "payable": false,
      "stateMutability": "view",
      "type": "function"
    },
    {
      "constant": true,
      "inputs": [
        {
          "name": "",
          "type": "address"
        }
      ],
      "name": "ownerNonce",
      "outputs": [
        {
          "name": "",
          "type": "uint256"
        }
      ],
      "payable": false,
      "stateMutability": "view",
      "type": "function"
    },
    {
      "constant": true,
      "inputs": [],
      "name": "deployedAt",
      "outputs": [
        {
          "name": "",
          "type": "uint256"
        }
      ],
      "payable": false,
      "stateMutability": "view",
      "type": "function"
    },
    {
      "constant": true,
      "inputs": [],
      "name": "executedTxCount",
      "outputs": [
        {
          "name": "",
          "type": "uint256"
        }
      ],
      "payable": false,
      "stateMutability": "view",
      "type": "function"
    },
    {
      "constant": true,
      "inputs": [
        {
          "name": "_owner",
          "type": "address"
        }
      ],
      "name": "nextTxId",
      "outputs": [
        {
          "name": "",
          "type": "bytes32"
        }
      ],
      "payable": false,
      "stateMutability": "view",
      "type": "function"
    },
    {
      "inputs": [
        {
          "name": "_owners",
          "type": "address[]"
        },
        {
          "name": "_ownerNames",
          "type": "bytes32[]"
        },
        {
          "name": "_required",
          "type": "uint256"
        }
      ],
      "payable": false,
      "stateMutability": "nonpayable",
      "type": "constructor"
    },
    {
      "payable": true,
      "stateMutability": "payable",
      "type": "fallback"
    },
    {
      "anonymous": false,
      "inputs": [
        {
          "indexed": true,
          "name": "transactionId",
          "type": "bytes32"
        },
        {
          "indexed": false,
          "name": "sender",
          "type": "address"
        },
        {
          "indexed": false,
          "name": "count",
          "type": "uint256"
        }
      ],
      "name": "Confirmation",
      "type": "event"
    },
    {
      "anonymous": false,
      "inputs": [
        {
          "indexed": true,
          "name": "transactionId",
          "type": "bytes32"
        },
        {
          "indexed": false,
          "name": "sender",
          "type": "address"
        },
        {
          "indexed": false,
          "name": "count",
          "type": "uint256"
        }
      ],
      "name": "Revocation",
      "type": "event"
    },
    {
      "anonymous": false,
      "inputs": [
        {
          "indexed": true,
          "name": "transactionId",
          "type": "bytes32"
        },
        {
          "indexed": false,
          "name": "sender",
          "type": "address"
        }
      ],
      "name": "Submission",
      "type": "event"
    },
    {
      "anonymous": false,
      "inputs": [
        {
          "indexed": true,
          "name": "transactionId",
          "type": "bytes32"
        },
        {
          "indexed": false,
          "name": "result",
          "type": "bytes"
        }
      ],
      "name": "ExecutionSuccess",
      "type": "event"
    },
    {
      "anonymous": false,
      "inputs": [
        {
          "indexed": true,
          "name": "transactionId",
          "type": "bytes32"
        }
      ],
      "name": "ExecutionFailure",
      "type": "event"
    },
    {
      "anonymous": false,
      "inputs": [
        {
          "indexed": true,
          "name": "sender",
          "type": "address"
        },
        {
          "indexed": false,
          "name": "value",
          "type": "uint256"
        }
      ],
      "name": "Deposit",
      "type": "event"
    },
    {
      "anonymous": false,
      "inputs": [
        {
          "indexed": false,
          "name": "required",
          "type": "uint256"
        }
      ],
      "name": "RequirementChange",
      "type": "event"
    },
    {
      "anonymous": false,
      "inputs": [
        {
          "indexed": false,
          "name": "total",
          "type": "uint256"
        },
        {
          "indexed": false,
          "name": "share",
          "type": "uint256"
        }
      ],
      "name": "DistributedCoin",
      "type": "event"
    },
    {
      "anonymous": false,
      "inputs": [
        {
          "indexed": false,
          "name": "tokenAddress",
          "type": "address"
        },
        {
          "indexed": false,
          "name": "total",
          "type": "uint256"
        },
        {
          "indexed": false,
          "name": "share",
          "type": "uint256"
        }
      ],
      "name": "DistributedERC20",
      "type": "event"
    },
    {
      "anonymous": false,
      "inputs": [
        {
          "indexed": false,
          "name": "ntfPool",
          "type": "address"
        },
        {
          "indexed": false,
          "name": "amount",
          "type": "uint256"
        }
      ],
      "name": "TokenDeposit",
      "type": "event"
    },
    {
      "anonymous": false,
      "inputs": [
        {
          "indexed": false,
          "name": "ntfPool",
          "type": "address"
        },
        {
          "indexed": false,
          "name": "amount",
          "type": "uint256"
        }
      ],
      "name": "RequestOut",
      "type": "event"
    },
    {
      "anonymous": false,
      "inputs": [
        {
          "indexed": false,
          "name": "ntfPool",
          "type": "address"
        }
      ],
      "name": "TokenMemberWithdraw",
      "type": "event"
    },
    {
      "anonymous": false,
      "inputs": [
        {
          "indexed": false,
          "name": "ntfPool",
          "type": "address"
        }
      ],
      "name": "CoinWithdraw",
      "type": "event"
    },
    {
      "anonymous": false,
      "inputs": [
        {
          "indexed": true,
          "name": "_owner",
          "type": "address"
        },
        {
          "indexed": false,
          "name": "_ownerName",
          "type": "bytes32"
        }
      ],
      "name": "OwnerAddition",
      "type": "event"
    },
    {
      "anonymous": false,
      "inputs": [
        {
          "indexed": true,
          "name": "_owner",
          "type": "address"
        },
        {
          "indexed": false,
          "name": "_ownerName",
          "type": "bytes32"
        }
      ],
      "name": "OwnerRemoval",
      "type": "event"
    },
    {
      "anonymous": false,
      "inputs": [
        {
          "indexed": true,
          "name": "_owner",
          "type": "address"
        },
        {
          "indexed": false,
          "name": "_oldOwnerName",
          "type": "bytes32"
        },
        {
          "indexed": false,
          "name": "_newOwnerName",
          "type": "bytes32"
        }
      ],
      "name": "OwnerUpdateName",
      "type": "event"
    },
    {
      "constant": false,
      "inputs": [
        {
          "name": "_owner",
          "type": "address"
        },
        {
          "name": "_ownerName",
          "type": "bytes32"
        }
      ],
      "name": "addOwner",
      "outputs": [],
      "payable": false,
      "stateMutability": "nonpayable",
      "type": "function"
    },
    {
      "constant": false,
      "inputs": [
        {
          "name": "_owner",
          "type": "address"
        }
      ],
      "name": "removeOwner",
      "outputs": [],
      "payable": false,
      "stateMutability": "nonpayable",
      "type": "function"
    },
    {
      "constant": false,
      "inputs": [
        {
          "name": "_owner",
          "type": "address"
        },
        {
          "name": "_newOwner",
          "type": "address"
        },
        {
          "name": "_newOwnerName",
          "type": "bytes32"
        }
      ],
      "name": "replaceOwner",
      "outputs": [],
      "payable": false,
      "stateMutability": "nonpayable",
      "type": "function"
    },
    {
      "constant": false,
      "inputs": [
        {
          "name": "_owner",
          "type": "address"
        },
        {
          "name": "_newOwnerName",
          "type": "bytes32"
        }
      ],
      "name": "updateOwnerName",
      "outputs": [],
      "payable": false,
      "stateMutability": "nonpayable",
      "type": "function"
    },
    {
      "constant": false,
      "inputs": [
        {
          "name": "_required",
          "type": "uint256"
        }
      ],
      "name": "changeRequirement",
      "outputs": [],
      "payable": false,
      "stateMutability": "nonpayable",
      "type": "function"
    },
    {
      "constant": false,
      "inputs": [
        {
          "name": "_destination",
          "type": "address"
        },
        {
          "name": "_value",
          "type": "uint256"
        },
        {
          "name": "_data",
          "type": "bytes"
        },
        {
          "name": "_description",
          "type": "bytes32"
        }
      ],
      "name": "submitTransaction",
      "outputs": [
        {
          "name": "transactionId",
          "type": "bytes32"
        }
      ],
      "payable": false,
      "stateMutability": "nonpayable",
      "type": "function"
    },
    {
      "constant": false,
      "inputs": [
        {
          "name": "transactionId",
          "type": "bytes32"
        }
      ],
      "name": "confirmTransaction",
      "outputs": [],
      "payable": false,
      "stateMutability": "nonpayable",
      "type": "function"
    },
    {
      "constant": false,
      "inputs": [
        {
          "name": "_transactionId",
          "type": "bytes32"
        }
      ],
      "name": "revokeConfirmation",
      "outputs": [],
      "payable": false,
      "stateMutability": "nonpayable",
      "type": "function"
    },
    {
      "constant": false,
      "inputs": [
        {
          "name": "_transactionId",
          "type": "bytes32"
        }
      ],
      "name": "executeTransaction",
      "outputs": [],
      "payable": false,
      "stateMutability": "nonpayable",
      "type": "function"
    },
    {
      "constant": true,
      "inputs": [
        {
          "name": "_transactionId",
          "type": "bytes32"
        }
      ],
      "name": "isConfirmed",
      "outputs": [
        {
          "name": "",
          "type": "bool"
        }
      ],
      "payable": false,
      "stateMutability": "view",
      "type": "function"
    },
    {
      "constant": false,
      "inputs": [],
      "name": "distributeCoin",
      "outputs": [],
      "payable": false,
      "stateMutability": "nonpayable",
      "type": "function"
    },
    {
      "constant": false,
      "inputs": [
        {
          "name": "_tokenAddress",
          "type": "address"
        }
      ],
      "name": "distributeERC20",
      "outputs": [],
      "payable": false,
      "stateMutability": "nonpayable",
      "type": "function"
    },
    {
      "constant": false,
      "inputs": [
        {
          "name": "_ntfPoolAddress",
          "type": "address"
        },
        {
          "name": "_amount",
          "type": "uint256"
        }
      ],
      "name": "tokenDeposit",
      "outputs": [],
      "payable": false,
      "stateMutability": "nonpayable",
      "type": "function"
    },
    {
      "constant": false,
      "inputs": [
        {
          "name": "_ntfPoolAddress",
          "type": "address"
        },
        {
          "name": "_amount",
          "type": "uint256"
        }
      ],
      "name": "requestOut",
      "outputs": [],
      "payable": false,
      "stateMutability": "nonpayable",
      "type": "function"
    },
    {
      "constant": false,
      "inputs": [
        {
          "name": "_ntfPoolAddress",
          "type": "address"
        }
      ],
      "name": "tokenMemberWithdraw",
      "outputs": [],
      "payable": false,
      "stateMutability": "nonpayable",
      "type": "function"
    },
    {
      "constant": false,
      "inputs": [
        {
          "name": "_ntfPoolAddress",
          "type": "address"
        }
      ],
      "name": "coinWithdraw",
      "outputs": [],
      "payable": false,
      "stateMutability": "nonpayable",
      "type": "function"
    },
    {
      "constant": true,
      "inputs": [
        {
          "name": "_transactionId",
          "type": "bytes32"
        },
        {
          "name": "_owner",
          "type": "address"
        }
      ],
      "name": "getConfirmStatus",
      "outputs": [
        {
          "name": "",
          "type": "bool"
        }
      ],
      "payable": false,
      "stateMutability": "view",
      "type": "function"
    },
    {
      "constant": true,
      "inputs": [
        {
          "name": "_transactionId",
          "type": "bytes32"
        }
      ],
      "name": "getConfirmations",
      "outputs": [
        {
          "name": "_confirmations",
          "type": "address[]"
        }
      ],
      "payable": false,
      "stateMutability": "view",
      "type": "function"
    }
  ],
  "bytecode": "0x60806040523480156200001157600080fd5b506040516200467838038062004678833981018060405260608110156200003757600080fd5b8101908080516401000000008111156200005057600080fd5b828101905060208101848111156200006757600080fd5b81518560208202830111640100000000821117156200008557600080fd5b50509291906020018051640100000000811115620000a257600080fd5b82810190506020810184811115620000b957600080fd5b8151856020820283011164010000000082111715620000d757600080fd5b50509291906020018051906020019092919050505082518181811115801562000101575060008114155b80156200010f575060008214155b151562000184576040517f08c379a000000000000000000000000000000000000000000000000000000000815260040180806020018281038252601c8152602001807f726571756972656d656e7473206e6f742066756c6c2066696c6c65640000000081525060200191505060405180910390fd5b4360098190555060008090505b8551811015620003b557600160008783815181101515620001ae57fe5b9060200190602002015173ffffffffffffffffffffffffffffffffffffffff1673ffffffffffffffffffffffffffffffffffffffff16815260200190815260200160002060009054906101000a900460ff1680620002505750600073ffffffffffffffffffffffffffffffffffffffff1686828151811015156200022e57fe5b9060200190602002015173ffffffffffffffffffffffffffffffffffffffff16145b15620002c4576040517f08c379a00000000000000000000000000000000000000000000000000000000081526004018080602001828103825260188152602001807f6f776e6572206475706c696361746520696e20696e707574000000000000000081525060200191505060405180910390fd5b60018060008884815181101515620002d857fe5b9060200190602002015173ffffffffffffffffffffffffffffffffffffffff1673ffffffffffffffffffffffffffffffffffffffff16815260200190815260200160002060006101000a81548160ff02191690831515021790555084818151811015156200034257fe5b906020019060200201516002600088848151811015156200035f57fe5b9060200190602002015173ffffffffffffffffffffffffffffffffffffffff1673ffffffffffffffffffffffffffffffffffffffff16815260200190815260200160002081905550808060010191505062000191565b508460039080519060200190620003ce929190620003e1565b50826006819055505050505050620004b6565b8280548282559060005260206000209081019282156200045d579160200282015b828111156200045c5782518260006101000a81548173ffffffffffffffffffffffffffffffffffffffff021916908373ffffffffffffffffffffffffffffffffffffffff1602179055509160200191906001019062000402565b5b5090506200046c919062000470565b5090565b620004b391905b80821115620004af57600081816101000a81549073ffffffffffffffffffffffffffffffffffffffff02191690555060010162000477565b5090565b90565b6141b280620004c66000396000f3fe60806040526004361061018b576000357c0100000000000000000000000000000000000000000000000000000000900463ffffffff168063025e7c27146101db5780630c4ecab4146102565780630fccb064146102c95780631357f8441461033c578063137dd081146103a1578063173825d9146104065780632f54bf6e14610457578063306ee45d146104c057806338959e2014610511578063443f41d514610621578063642f2eaf1461067c5780636486aa51146107835780636d68e53b146107d657806379716e4314610801578063969f8a831461083c578063a82913dc146108cc578063aba995ec14610927578063b948854614610978578063ba51a6df146109a3578063bce58269146109de578063c69ed5f214610a2f578063dc101fea14610a6a578063dc8452cd14610ac5578063dcc59a9714610af0578063e4604db914610b6b578063e8ad29b414610b82578063eae4c19f14610be7578063f3fc536d14610c12578063f5c408dd14610c4d578063f6b4aa9314610c78578063fdd596c514610cd3575b3373ffffffffffffffffffffffffffffffffffffffff167fe1fffcc4923d04b559f4d29a8bfc6cda04eb5b0d3c460751c2402c5c5cc9109c346040518082815260200191505060405180910390a2005b3480156101e757600080fd5b50610214600480360360208110156101fe57600080fd5b8101908080359060200190929190505050610d38565b604051808273ffffffffffffffffffffffffffffffffffffffff1673ffffffffffffffffffffffffffffffffffffffff16815260200191505060405180910390f35b34801561026257600080fd5b506102af6004803603604081101561027957600080fd5b8101908080359060200190929190803573ffffffffffffffffffffffffffffffffffffffff169060200190929190505050610d76565b604051808215151515815260200191505060405180910390f35b3480156102d557600080fd5b50610322600480360360408110156102ec57600080fd5b8101908080359060200190929190803573ffffffffffffffffffffffffffffffffffffffff169060200190929190505050610da5565b604051808215151515815260200191505060405180910390f35b34801561034857600080fd5b5061038b6004803603602081101561035f57600080fd5b81019080803573ffffffffffffffffffffffffffffffffffffffff169060200190929190505050610e0d565b6040518082815260200191505060405180910390f35b3480156103ad57600080fd5b506103f0600480360360208110156103c457600080fd5b81019080803573ffffffffffffffffffffffffffffffffffffffff169060200190929190505050610e25565b6040518082815260200191505060405180910390f35b34801561041257600080fd5b506104556004803603602081101561042957600080fd5b81019080803573ffffffffffffffffffffffffffffffffffffffff1690602001909291905050506110ea565b005b34801561046357600080fd5b506104a66004803603602081101561047a57600080fd5b81019080803573ffffffffffffffffffffffffffffffffffffffff16906020019092919050505061149e565b604051808215151515815260200191505060405180910390f35b3480156104cc57600080fd5b5061050f600480360360208110156104e357600080fd5b81019080803573ffffffffffffffffffffffffffffffffffffffff1690602001909291905050506114be565b005b34801561051d57600080fd5b5061060b6004803603608081101561053457600080fd5b81019080803573ffffffffffffffffffffffffffffffffffffffff169060200190929190803590602001909291908035906020019064010000000081111561057b57600080fd5b82018360208201111561058d57600080fd5b803590602001918460018302840111640100000000831117156105af57600080fd5b91908080601f016020809104026020016040519081016040528093929190818152602001838380828437600081840152601f19601f82011690508083019250505050505050919291929080359060200190929190505050611661565b6040518082815260200191505060405180910390f35b34801561062d57600080fd5b5061067a6004803603604081101561064457600080fd5b81019080803573ffffffffffffffffffffffffffffffffffffffff16906020019092919080359060200190929190505050611694565b005b34801561068857600080fd5b506106b56004803603602081101561069f57600080fd5b8101908080359060200190929190505050611926565b604051808773ffffffffffffffffffffffffffffffffffffffff1673ffffffffffffffffffffffffffffffffffffffff1681526020018681526020018060200185151515158152602001848152602001838152602001828103825286818151815260200191508051906020019080838360005b83811015610743578082015181840152602081019050610728565b50505050905090810190601f1680156107705780820380516001836020036101000a031916815260200191505b5097505050505050505060405180910390f35b34801561078f57600080fd5b506107bc600480360360208110156107a657600080fd5b8101908080359060200190929190505050611a27565b604051808215151515815260200191505060405180910390f35b3480156107e257600080fd5b506107eb611a4c565b6040518082815260200191505060405180910390f35b34801561080d57600080fd5b5061083a6004803603602081101561082457600080fd5b8101908080359060200190929190505050611a52565b005b34801561084857600080fd5b506108756004803603602081101561085f57600080fd5b8101908080359060200190929190505050611de6565b6040518080602001828103825283818151815260200191508051906020019060200280838360005b838110156108b857808201518184015260208101905061089d565b505050509050019250505060405180910390f35b3480156108d857600080fd5b50610925600480360360408110156108ef57600080fd5b81019080803573ffffffffffffffffffffffffffffffffffffffff16906020019092919080359060200190929190505050612022565b005b34801561093357600080fd5b506109766004803603602081101561094a57600080fd5b81019080803573ffffffffffffffffffffffffffffffffffffffff1690602001909291905050506121bb565b005b34801561098457600080fd5b5061098d61235e565b6040518082815260200191505060405180910390f35b3480156109af57600080fd5b506109dc600480360360208110156109c657600080fd5b810190808035906020019092919050505061236b565b005b3480156109ea57600080fd5b50610a2d60048036036020811015610a0157600080fd5b81019080803573ffffffffffffffffffffffffffffffffffffffff1690602001909291905050506124ea565b005b348015610a3b57600080fd5b50610a6860048036036020811015610a5257600080fd5b810190808035906020019092919050505061283b565b005b348015610a7657600080fd5b50610ac360048036036040811015610a8d57600080fd5b81019080803573ffffffffffffffffffffffffffffffffffffffff16906020019092919080359060200190929190505050612b26565b005b348015610ad157600080fd5b50610ada612d6f565b6040518082815260200191505060405180910390f35b348015610afc57600080fd5b50610b6960048036036060811015610b1357600080fd5b81019080803573ffffffffffffffffffffffffffffffffffffffff169060200190929190803573ffffffffffffffffffffffffffffffffffffffff16906020019092919080359060200190929190505050612d75565b005b348015610b7757600080fd5b50610b80613219565b005b348015610b8e57600080fd5b50610bd160048036036020811015610ba557600080fd5b81019080803573ffffffffffffffffffffffffffffffffffffffff1690602001909291905050506133f2565b6040518082815260200191505060405180910390f35b348015610bf357600080fd5b50610bfc61340a565b6040518082815260200191505060405180910390f35b348015610c1e57600080fd5b50610c4b60048036036020811015610c3557600080fd5b8101908080359060200190929190505050613410565b005b348015610c5957600080fd5b50610c62613759565b6040518082815260200191505060405180910390f35b348015610c8457600080fd5b50610cd160048036036040811015610c9b57600080fd5b81019080803573ffffffffffffffffffffffffffffffffffffffff1690602001909291908035906020019092919050505061375f565b005b348015610cdf57600080fd5b50610d2260048036036020811015610cf657600080fd5b81019080803573ffffffffffffffffffffffffffffffffffffffff169060200190929190505050613b60565b6040518082815260200191505060405180910390f35b600381815481101515610d4757fe5b906000526020600020016000915054906101000a900473ffffffffffffffffffffffffffffffffffffffff1681565b60056020528160005260406000206020528060005260406000206000915091509054906101000a900460ff1681565b60006005600084815260200190815260200160002060008373ffffffffffffffffffffffffffffffffffffffff1673ffffffffffffffffffffffffffffffffffffffff16815260200190815260200160002060009054906101000a900460ff16905092915050565b60026020528060005260406000206000915090505481565b600081600160008273ffffffffffffffffffffffffffffffffffffffff1673ffffffffffffffffffffffffffffffffffffffff16815260200190815260200160002060009054906101000a900460ff161515610ee9576040517f08c379a000000000000000000000000000000000000000000000000000000000815260040180806020018281038252600f8152602001807f6f776e6572206e6f74206578697374000000000000000000000000000000000081525060200191505060405180910390fd5b60008060008573ffffffffffffffffffffffffffffffffffffffff1673ffffffffffffffffffffffffffffffffffffffff16815260200190815260200160002054111515610f9f576040517f08c379a000000000000000000000000000000000000000000000000000000000815260040180806020018281038252600b8152602001807f6e6f20747820666f756e6400000000000000000000000000000000000000000081525060200191505060405180910390fd5b60028360016000808773ffffffffffffffffffffffffffffffffffffffff1673ffffffffffffffffffffffffffffffffffffffff1681526020019081526020016000205403604051602001808373ffffffffffffffffffffffffffffffffffffffff1673ffffffffffffffffffffffffffffffffffffffff166c01000000000000000000000000028152601401828152602001925050506040516020818303038152906040526040518082805190602001908083835b60208310151561107a5780518252602082019150602081019050602083039250611055565b6001836020036101000a038019825116818451168082178552505050505050905001915050602060405180830381855afa1580156110bc573d6000803e3d6000fd5b5050506040513d60208110156110d157600080fd5b8101908080519060200190929190505050915050919050565b3073ffffffffffffffffffffffffffffffffffffffff163373ffffffffffffffffffffffffffffffffffffffff1614151561118d576040517f08c379a00000000000000000000000000000000000000000000000000000000081526004018080602001828103825260188152602001807f6f6e6c792077616c6c65742063616c6c7320697473656c66000000000000000081525060200191505060405180910390fd5b80600160008273ffffffffffffffffffffffffffffffffffffffff1673ffffffffffffffffffffffffffffffffffffffff16815260200190815260200160002060009054906101000a900460ff16151561124f576040517f08c379a000000000000000000000000000000000000000000000000000000000815260040180806020018281038252600f8152602001807f6f776e6572206e6f74206578697374000000000000000000000000000000000081525060200191505060405180910390fd5b6000600160008473ffffffffffffffffffffffffffffffffffffffff1673ffffffffffffffffffffffffffffffffffffffff16815260200190815260200160002060006101000a81548160ff02191690831515021790555060008090505b6001600380549050038110156113d5578273ffffffffffffffffffffffffffffffffffffffff166003828154811015156112e357fe5b9060005260206000200160009054906101000a900473ffffffffffffffffffffffffffffffffffffffff1673ffffffffffffffffffffffffffffffffffffffff1614156113c857600360016003805490500381548110151561134157fe5b9060005260206000200160009054906101000a900473ffffffffffffffffffffffffffffffffffffffff1660038281548110151561137b57fe5b9060005260206000200160006101000a81548173ffffffffffffffffffffffffffffffffffffffff021916908373ffffffffffffffffffffffffffffffffffffffff1602179055506113d5565b80806001019150506112ad565b5060016003818180549050039150816113ee91906140b5565b50600380549050600654111561140d5761140c60038054905061236b565b5b8173ffffffffffffffffffffffffffffffffffffffff167f55e6208fb59f28a868d3c1e97c1b71e7458eef0a6cab50286756de6cf8aad698600260008573ffffffffffffffffffffffffffffffffffffffff1673ffffffffffffffffffffffffffffffffffffffff168152602001908152602001600020546040518082815260200191505060405180910390a25050565b60016020528060005260406000206000915054906101000a900460ff1681565b600160003373ffffffffffffffffffffffffffffffffffffffff1673ffffffffffffffffffffffffffffffffffffffff16815260200190815260200160002060009054906101000a900460ff16151561157f576040517f08c379a000000000000000000000000000000000000000000000000000000000815260040180806020018281038252600a8152602001807f6f776e6572206f6e6c790000000000000000000000000000000000000000000081525060200191505060405180910390fd5b8073ffffffffffffffffffffffffffffffffffffffff1663cd92c57d6040518163ffffffff167c0100000000000000000000000000000000000000000000000000000000028152600401600060405180830381600087803b1580156115e357600080fd5b505af11580156115f7573d6000803e3d6000fd5b505050507f349ddabd987153a094c84cfd57cec2216bca6c2c95d985c9981aacd93c267a7d81604051808273ffffffffffffffffffffffffffffffffffffffff1673ffffffffffffffffffffffffffffffffffffffff16815260200191505060405180910390a150565b600061166f85858585613d6c565b905061167a81611a52565b600860008154809291906001019190505550949350505050565b3073ffffffffffffffffffffffffffffffffffffffff163373ffffffffffffffffffffffffffffffffffffffff16141515611737576040517f08c379a00000000000000000000000000000000000000000000000000000000081526004018080602001828103825260188152602001807f6f6e6c792077616c6c65742063616c6c7320697473656c66000000000000000081525060200191505060405180910390fd5b6000732c783ad80ff980ec75468477e3dd9f86123ecbda90508073ffffffffffffffffffffffffffffffffffffffff1663095ea7b384846040518363ffffffff167c0100000000000000000000000000000000000000000000000000000000028152600401808373ffffffffffffffffffffffffffffffffffffffff1673ffffffffffffffffffffffffffffffffffffffff16815260200182815260200192505050602060405180830381600087803b1580156117f357600080fd5b505af1158015611807573d6000803e3d6000fd5b505050506040513d602081101561181d57600080fd5b8101908080519060200190929190505050508273ffffffffffffffffffffffffffffffffffffffff1663e1fe7d23836040518263ffffffff167c010000000000000000000000000000000000000000000000000000000002815260040180828152602001915050600060405180830381600087803b15801561189e57600080fd5b505af11580156118b2573d6000803e3d6000fd5b505050507f20b3fc91390f6ceba342f697a9490734680fd3556633f40efa146f1dbe79d05f8383604051808373ffffffffffffffffffffffffffffffffffffffff1673ffffffffffffffffffffffffffffffffffffffff1681526020018281526020019250505060405180910390a1505050565b60046020528060005260406000206000915090508060000160009054906101000a900473ffffffffffffffffffffffffffffffffffffffff1690806001015490806002018054600181600116156101000203166002900480601f0160208091040260200160405190810160405280929190818152602001828054600181600116156101000203166002900480156119fe5780601f106119d3576101008083540402835291602001916119fe565b820191906000526020600020905b8154815290600101906020018083116119e157829003601f168201915b5050505050908060030160009054906101000a900460ff16908060040154908060050154905086565b6000600654600460008481526020019081526020016000206004015410159050919050565b60085481565b33600160008273ffffffffffffffffffffffffffffffffffffffff1673ffffffffffffffffffffffffffffffffffffffff16815260200190815260200160002060009054906101000a900460ff161515611b14576040517f08c379a000000000000000000000000000000000000000000000000000000000815260040180806020018281038252600f8152602001807f6f776e6572206e6f74206578697374000000000000000000000000000000000081525060200191505060405180910390fd5b81600073ffffffffffffffffffffffffffffffffffffffff166004600083815260200190815260200160002060000160009054906101000a900473ffffffffffffffffffffffffffffffffffffffff1673ffffffffffffffffffffffffffffffffffffffff1614151515611bf0576040517f08c379a000000000000000000000000000000000000000000000000000000000815260040180806020018281038252600c8152602001807f7478206e6f74206578697374000000000000000000000000000000000000000081525060200191505060405180910390fd5b82336005600083815260200190815260200160002060008273ffffffffffffffffffffffffffffffffffffffff1673ffffffffffffffffffffffffffffffffffffffff16815260200190815260200160002060009054906101000a900460ff16151515611cc5576040517f08c379a000000000000000000000000000000000000000000000000000000000815260040180806020018281038252601f8152602001807f6f776e657220616c726561647920636f6e6669726d656420746869732074780081525060200191505060405180910390fd5b60016005600087815260200190815260200160002060003373ffffffffffffffffffffffffffffffffffffffff1673ffffffffffffffffffffffffffffffffffffffff16815260200190815260200160002060006101000a81548160ff0219169083151502179055506004600086815260200190815260200160002060040160008154809291906001019190505550847f0ba2cf0aca092078ad26ec33c5aa45752da66621ff68a335d6d1ce0add5bfffa336004600089815260200190815260200160002060040154604051808373ffffffffffffffffffffffffffffffffffffffff1673ffffffffffffffffffffffffffffffffffffffff1681526020018281526020019250505060405180910390a2611ddf8561283b565b5050505050565b606080600380549050604051908082528060200260200182016040528015611e1d5781602001602082028038833980820191505090505b509050600080905060008090505b600380549050811015611f6c57600560008681526020019081526020016000206000600383815481101515611e5c57fe5b9060005260206000200160009054906101000a900473ffffffffffffffffffffffffffffffffffffffff1673ffffffffffffffffffffffffffffffffffffffff1673ffffffffffffffffffffffffffffffffffffffff16815260200190815260200160002060009054906101000a900460ff1615611f5f57600381815481101515611ee357fe5b9060005260206000200160009054906101000a900473ffffffffffffffffffffffffffffffffffffffff168383815181101515611f1c57fe5b9060200190602002019073ffffffffffffffffffffffffffffffffffffffff16908173ffffffffffffffffffffffffffffffffffffffff16815250506001820191505b8080600101915050611e2b565b81604051908082528060200260200182016040528015611f9b5781602001602082028038833980820191505090505b509350600090505b8181101561201a578281815181101515611fb957fe5b906020019060200201518482815181101515611fd157fe5b9060200190602002019073ffffffffffffffffffffffffffffffffffffffff16908173ffffffffffffffffffffffffffffffffffffffff16815250508080600101915050611fa3565b505050919050565b3073ffffffffffffffffffffffffffffffffffffffff163373ffffffffffffffffffffffffffffffffffffffff161415156120c5576040517f08c379a00000000000000000000000000000000000000000000000000000000081526004018080602001828103825260188152602001807f6f6e6c792077616c6c65742063616c6c7320697473656c66000000000000000081525060200191505060405180910390fd5b8173ffffffffffffffffffffffffffffffffffffffff166342d07a1e826040518263ffffffff167c010000000000000000000000000000000000000000000000000000000002815260040180828152602001915050600060405180830381600087803b15801561213457600080fd5b505af1158015612148573d6000803e3d6000fd5b505050507f204d430f07224bc55bb6d1263886023eb95f32edff2087fa8b1f86430a86805f8282604051808373ffffffffffffffffffffffffffffffffffffffff1673ffffffffffffffffffffffffffffffffffffffff1681526020018281526020019250505060405180910390a15050565b600160003373ffffffffffffffffffffffffffffffffffffffff1673ffffffffffffffffffffffffffffffffffffffff16815260200190815260200160002060009054906101000a900460ff16151561227c576040517f08c379a000000000000000000000000000000000000000000000000000000000815260040180806020018281038252600a8152602001807f6f776e6572206f6e6c790000000000000000000000000000000000000000000081525060200191505060405180910390fd5b8073ffffffffffffffffffffffffffffffffffffffff1663edfd36cd6040518163ffffffff167c0100000000000000000000000000000000000000000000000000000000028152600401600060405180830381600087803b1580156122e057600080fd5b505af11580156122f4573d6000803e3d6000fd5b505050507ff951536886b87b552f48b2e497982168310344222c94743ea2b37aebf3545dff81604051808273ffffffffffffffffffffffffffffffffffffffff1673ffffffffffffffffffffffffffffffffffffffff16815260200191505060405180910390a150565b6000600380549050905090565b3073ffffffffffffffffffffffffffffffffffffffff163373ffffffffffffffffffffffffffffffffffffffff1614151561240e576040517f08c379a00000000000000000000000000000000000000000000000000000000081526004018080602001828103825260188152602001807f6f6e6c792077616c6c65742063616c6c7320697473656c66000000000000000081525060200191505060405180910390fd5b60038054905081818111158015612426575060008114155b8015612433575060008214155b15156124a7576040517f08c379a000000000000000000000000000000000000000000000000000000000815260040180806020018281038252601c8152602001807f726571756972656d656e7473206e6f742066756c6c2066696c6c65640000000081525060200191505060405180910390fd5b826006819055507fa3f1ee9126a074d9326c682f561767f710e927faa811f7a99829d49dc421797a836040518082815260200191505060405180910390a1505050565b3073ffffffffffffffffffffffffffffffffffffffff163373ffffffffffffffffffffffffffffffffffffffff1614151561258d576040517f08c379a00000000000000000000000000000000000000000000000000000000081526004018080602001828103825260188152602001807f6f6e6c792077616c6c65742063616c6c7320697473656c66000000000000000081525060200191505060405180910390fd5b600081905060008173ffffffffffffffffffffffffffffffffffffffff166370a08231306040518263ffffffff167c0100000000000000000000000000000000000000000000000000000000028152600401808273ffffffffffffffffffffffffffffffffffffffff1673ffffffffffffffffffffffffffffffffffffffff16815260200191505060206040518083038186803b15801561262d57600080fd5b505afa158015612641573d6000803e3d6000fd5b505050506040513d602081101561265757600080fd5b81019080805190602001909291905050509050600061267461235e565b8281151561267e57fe5b04905060008090505b61268f61235e565b8110156127c15760006003828154811015156126a757fe5b9060005260206000200160009054906101000a900473ffffffffffffffffffffffffffffffffffffffff1690508473ffffffffffffffffffffffffffffffffffffffff1663a9059cbb82856040518363ffffffff167c0100000000000000000000000000000000000000000000000000000000028152600401808373ffffffffffffffffffffffffffffffffffffffff1673ffffffffffffffffffffffffffffffffffffffff16815260200182815260200192505050602060405180830381600087803b15801561277757600080fd5b505af115801561278b573d6000803e3d6000fd5b505050506040513d60208110156127a157600080fd5b810190808051906020019092919050505050508080600101915050612687565b507feb6aca1ee8bf803156bf08ce5c6d76cb7e18b9be2808a191925e7a4813bb420f848383604051808473ffffffffffffffffffffffffffffffffffffffff1673ffffffffffffffffffffffffffffffffffffffff168152602001838152602001828152602001935050505060405180910390a150505050565b806004600082815260200190815260200160002060030160009054906101000a900460ff161515156128d5576040517f08c379a00000000000000000000000000000000000000000000000000000000081526004018080602001828103825260138152602001807f747820616c72656164792065786563757465640000000000000000000000000081525060200191505060405180910390fd5b6128de82611a27565b15612b2257600060046000848152602001908152602001600020905060018160030160006101000a81548160ff021916908315150217905550600060608260000160009054906101000a900473ffffffffffffffffffffffffffffffffffffffff1673ffffffffffffffffffffffffffffffffffffffff1683600101548460020160405180828054600181600116156101000203166002900480156129ba5780601f106129985761010080835404028352918201916129ba565b820191906000526020600020905b8154815290600101906020018083116129a6575b505091505060006040518083038185875af1925050503d80600081146129fc576040519150601f19603f3d011682016040523d82523d6000602084013e612a01565b606091505b50915091508115612ad357847fc54787fbe087097b182e713f16d3443ad2e67cbe6732628451dd3695a11814c2826040518080602001828103825283818151815260200191508051906020019080838360005b83811015612a6f578082015181840152602081019050612a54565b50505050905090810190601f168015612a9c5780820380516001836020036101000a031916815260200191505b509250505060405180910390a260076000815480929190600101919050555060086000815480929190600190039190505550612b1e565b847fdbe42d02a4e07d7eeff2874efe172540c93b297d206f6d691c9782a257323e3260405160405180910390a260008360030160006101000a81548160ff0219169083151502179055505b5050505b5050565b3073ffffffffffffffffffffffffffffffffffffffff163373ffffffffffffffffffffffffffffffffffffffff16141515612bc9576040517f08c379a00000000000000000000000000000000000000000000000000000000081526004018080602001828103825260188152602001807f6f6e6c792077616c6c65742063616c6c7320697473656c66000000000000000081525060200191505060405180910390fd5b81600160008273ffffffffffffffffffffffffffffffffffffffff1673ffffffffffffffffffffffffffffffffffffffff16815260200190815260200160002060009054906101000a900460ff161515612c8b576040517f08c379a000000000000000000000000000000000000000000000000000000000815260040180806020018281038252600f8152602001807f6f776e6572206e6f74206578697374000000000000000000000000000000000081525060200191505060405180910390fd5b6000600260008573ffffffffffffffffffffffffffffffffffffffff1673ffffffffffffffffffffffffffffffffffffffff16815260200190815260200160002054905082600260008673ffffffffffffffffffffffffffffffffffffffff1673ffffffffffffffffffffffffffffffffffffffff168152602001908152602001600020819055508373ffffffffffffffffffffffffffffffffffffffff167f062c19be8d227f63f7964d05b3750009efbb3b573cc6204e0fa25dc0469bae678285604051808381526020018281526020019250505060405180910390a250505050565b60065481565b3073ffffffffffffffffffffffffffffffffffffffff163373ffffffffffffffffffffffffffffffffffffffff16141515612e18576040517f08c379a00000000000000000000000000000000000000000000000000000000081526004018080602001828103825260188152602001807f6f6e6c792077616c6c65742063616c6c7320697473656c66000000000000000081525060200191505060405180910390fd5b82600160008273ffffffffffffffffffffffffffffffffffffffff1673ffffffffffffffffffffffffffffffffffffffff16815260200190815260200160002060009054906101000a900460ff161515612eda576040517f08c379a000000000000000000000000000000000000000000000000000000000815260040180806020018281038252600f8152602001807f6f776e6572206e6f74206578697374000000000000000000000000000000000081525060200191505060405180910390fd5b82600160008273ffffffffffffffffffffffffffffffffffffffff1673ffffffffffffffffffffffffffffffffffffffff16815260200190815260200160002060009054906101000a900460ff16151515612f9d576040517f08c379a00000000000000000000000000000000000000000000000000000000081526004018080602001828103825260138152602001807f6f776e657220616c72656164792065786973740000000000000000000000000081525060200191505060405180910390fd5b60008090505b600380549050811015613087578573ffffffffffffffffffffffffffffffffffffffff16600382815481101515612fd657fe5b9060005260206000200160009054906101000a900473ffffffffffffffffffffffffffffffffffffffff1673ffffffffffffffffffffffffffffffffffffffff16141561307a578460038281548110151561302d57fe5b9060005260206000200160006101000a81548173ffffffffffffffffffffffffffffffffffffffff021916908373ffffffffffffffffffffffffffffffffffffffff160217905550613087565b8080600101915050612fa3565b506000600160008773ffffffffffffffffffffffffffffffffffffffff1673ffffffffffffffffffffffffffffffffffffffff16815260200190815260200160002060006101000a81548160ff02191690831515021790555060018060008673ffffffffffffffffffffffffffffffffffffffff1673ffffffffffffffffffffffffffffffffffffffff16815260200190815260200160002060006101000a81548160ff0219169083151502179055508473ffffffffffffffffffffffffffffffffffffffff167f55e6208fb59f28a868d3c1e97c1b71e7458eef0a6cab50286756de6cf8aad698600260008873ffffffffffffffffffffffffffffffffffffffff1673ffffffffffffffffffffffffffffffffffffffff168152602001908152602001600020546040518082815260200191505060405180910390a28373ffffffffffffffffffffffffffffffffffffffff167ffadbfe29cd507847a75a1ee5af6789f63e708e7dcc5d826ded823d1a0fd1357b846040518082815260200191505060405180910390a25050505050565b3073ffffffffffffffffffffffffffffffffffffffff163373ffffffffffffffffffffffffffffffffffffffff161415156132bc576040517f08c379a00000000000000000000000000000000000000000000000000000000081526004018080602001828103825260188152602001807f6f6e6c792077616c6c65742063616c6c7320697473656c66000000000000000081525060200191505060405180910390fd5b60003073ffffffffffffffffffffffffffffffffffffffff1631905060006132e261235e565b3073ffffffffffffffffffffffffffffffffffffffff163181151561330357fe5b049050600080600090505b61331661235e565b8110156133ad5760038181548110151561332c57fe5b9060005260206000200160009054906101000a900473ffffffffffffffffffffffffffffffffffffffff1691508173ffffffffffffffffffffffffffffffffffffffff166108fc849081150290604051600060405180830381858888f1935050505015801561339f573d6000803e3d6000fd5b50808060010191505061330e565b507f0125b941464ad997ce488988c120c0cf79cca068d51131157a8f12be1a3149c58383604051808381526020018281526020019250505060405180910390a1505050565b60006020528060005260406000206000915090505481565b60095481565b33600160008273ffffffffffffffffffffffffffffffffffffffff1673ffffffffffffffffffffffffffffffffffffffff16815260200190815260200160002060009054906101000a900460ff1615156134d2576040517f08c379a000000000000000000000000000000000000000000000000000000000815260040180806020018281038252600f8152602001807f6f776e6572206e6f74206578697374000000000000000000000000000000000081525060200191505060405180910390fd5b81336005600083815260200190815260200160002060008273ffffffffffffffffffffffffffffffffffffffff1673ffffffffffffffffffffffffffffffffffffffff16815260200190815260200160002060009054906101000a900460ff1615156135a6576040517f08c379a000000000000000000000000000000000000000000000000000000000815260040180806020018281038252601b8152602001807f6f776e6572206e6f7420636f6e6669726d65642074686973207478000000000081525060200191505060405180910390fd5b836004600082815260200190815260200160002060030160009054906101000a900460ff16151515613640576040517f08c379a00000000000000000000000000000000000000000000000000000000081526004018080602001828103825260138152602001807f747820616c72656164792065786563757465640000000000000000000000000081525060200191505060405180910390fd5b60006005600087815260200190815260200160002060003373ffffffffffffffffffffffffffffffffffffffff1673ffffffffffffffffffffffffffffffffffffffff16815260200190815260200160002060006101000a81548160ff021916908315150217905550600460008681526020019081526020016000206004016000815480929190600190039190505550847f53751a4d895f03550fdc3dcbba1beb3ea9e16fd42e8eab1eeb5cea8eedbf0310336004600089815260200190815260200160002060040154604051808373ffffffffffffffffffffffffffffffffffffffff1673ffffffffffffffffffffffffffffffffffffffff1681526020018281526020019250505060405180910390a25050505050565b60075481565b3073ffffffffffffffffffffffffffffffffffffffff163373ffffffffffffffffffffffffffffffffffffffff16141515613802576040517f08c379a00000000000000000000000000000000000000000000000000000000081526004018080602001828103825260188152602001807f6f6e6c792077616c6c65742063616c6c7320697473656c66000000000000000081525060200191505060405180910390fd5b81600160008273ffffffffffffffffffffffffffffffffffffffff1673ffffffffffffffffffffffffffffffffffffffff16815260200190815260200160002060009054906101000a900460ff161515156138c5576040517f08c379a00000000000000000000000000000000000000000000000000000000081526004018080602001828103825260138152602001807f6f776e657220616c72656164792065786973740000000000000000000000000081525060200191505060405180910390fd5b82600073ffffffffffffffffffffffffffffffffffffffff168173ffffffffffffffffffffffffffffffffffffffff161415151561396b576040517f08c379a00000000000000000000000000000000000000000000000000000000081526004018080602001828103825260188152602001807f6164647265737320307830206e6f74206163636570746564000000000000000081525060200191505060405180910390fd5b600160038054905001600654818111158015613988575060008114155b8015613995575060008214155b1515613a09576040517f08c379a000000000000000000000000000000000000000000000000000000000815260040180806020018281038252601c8152602001807f726571756972656d656e7473206e6f742066756c6c2066696c6c65640000000081525060200191505060405180910390fd5b60018060008873ffffffffffffffffffffffffffffffffffffffff1673ffffffffffffffffffffffffffffffffffffffff16815260200190815260200160002060006101000a81548160ff02191690831515021790555084600260008873ffffffffffffffffffffffffffffffffffffffff1673ffffffffffffffffffffffffffffffffffffffff1681526020019081526020016000208190555060038690806001815401808255809150509060018203906000526020600020016000909192909190916101000a81548173ffffffffffffffffffffffffffffffffffffffff021916908373ffffffffffffffffffffffffffffffffffffffff160217905550508573ffffffffffffffffffffffffffffffffffffffff167ffadbfe29cd507847a75a1ee5af6789f63e708e7dcc5d826ded823d1a0fd1357b866040518082815260200191505060405180910390a2505050505050565b600081600160008273ffffffffffffffffffffffffffffffffffffffff1673ffffffffffffffffffffffffffffffffffffffff16815260200190815260200160002060009054906101000a900460ff161515613c24576040517f08c379a000000000000000000000000000000000000000000000000000000000815260040180806020018281038252600f8152602001807f6f776e6572206e6f74206578697374000000000000000000000000000000000081525060200191505060405180910390fd5b6002836000808673ffffffffffffffffffffffffffffffffffffffff1673ffffffffffffffffffffffffffffffffffffffff16815260200190815260200160002054604051602001808373ffffffffffffffffffffffffffffffffffffffff1673ffffffffffffffffffffffffffffffffffffffff166c01000000000000000000000000028152601401828152602001925050506040516020818303038152906040526040518082805190602001908083835b602083101515613cfc5780518252602082019150602081019050602083039250613cd7565b6001836020036101000a038019825116818451168082178552505050505050905001915050602060405180830381855afa158015613d3e573d6000803e3d6000fd5b5050506040513d6020811015613d5357600080fd5b8101908080519060200190929190505050915050919050565b600084600073ffffffffffffffffffffffffffffffffffffffff168173ffffffffffffffffffffffffffffffffffffffff1614151515613e14576040517f08c379a00000000000000000000000000000000000000000000000000000000081526004018080602001828103825260188152602001807f6164647265737320307830206e6f74206163636570746564000000000000000081525060200191505060405180910390fd5b613e1d33613f8c565b915060c0604051908101604052808773ffffffffffffffffffffffffffffffffffffffff16815260200186815260200185815260200160001515815260200160008152602001848152506004600084815260200190815260200160002060008201518160000160006101000a81548173ffffffffffffffffffffffffffffffffffffffff021916908373ffffffffffffffffffffffffffffffffffffffff160217905550602082015181600101556040820151816002019080519060200190613ee79291906140e1565b5060608201518160030160006101000a81548160ff0219169083151502179055506080820151816004015560a08201518160050155905050817f54cebb092bbf53c0d9834a9a32151229db4540d4d9534325015533b8fe46b91733604051808273ffffffffffffffffffffffffffffffffffffffff1673ffffffffffffffffffffffffffffffffffffffff16815260200191505060405180910390a250949350505050565b600081600160008273ffffffffffffffffffffffffffffffffffffffff1673ffffffffffffffffffffffffffffffffffffffff16815260200190815260200160002060009054906101000a900460ff161515614050576040517f08c379a000000000000000000000000000000000000000000000000000000000815260040180806020018281038252600f8152602001807f6f776e6572206e6f74206578697374000000000000000000000000000000000081525060200191505060405180910390fd5b600061405b84613b60565b90506000808573ffffffffffffffffffffffffffffffffffffffff1673ffffffffffffffffffffffffffffffffffffffff168152602001908152602001600020600081548092919060010191905055508092505050919050565b8154818355818111156140dc578183600052602060002091820191016140db9190614161565b5b505050565b828054600181600116156101000203166002900490600052602060002090601f016020900481019282601f1061412257805160ff1916838001178555614150565b82800160010185558215614150579182015b8281111561414f578251825591602001919060010190614134565b5b50905061415d9190614161565b5090565b61418391905b8082111561417f576000816000905550600101614167565b5090565b9056fea165627a7a723058203ab849c2e72850d4050844a8f91c318c748b0f3f861d4d6a6d95f72c65aa5ae90029",
  "source": "pragma solidity ^0.5.0;\r\n\r\ninterface IERC20 {\r\n    function approve(address _spender, uint256 _value) external returns(bool);\r\n    function balanceOf(address account) external view returns (uint256);\r\n    function transfer(address recipient, uint256 amount) external returns (bool);\r\n}\r\n\r\ninterface NtfPoolI {\r\n  function tokenDeposit(uint _amount) external;\r\n  function requestOut(uint _amount) external;\r\n  function tokenMemberWithdraw() external;\r\n  function coinWithdraw() external;\r\n}\r\n\r\ncontract Owners {\r\n    event OwnerAddition(address indexed _owner, bytes32 _ownerName);\r\n    event OwnerRemoval(address indexed _owner, bytes32 _ownerName);\r\n    event OwnerUpdateName(address indexed _owner, bytes32 _oldOwnerName, bytes32 _newOwnerName);\r\n\r\n    mapping (address => uint) public ownerNonce;\r\n    mapping (address => bool) public isOwner;\r\n    mapping (address => bytes32) public ownerName;\r\n\r\n    address payable[] public owners;\r\n\r\n    modifier onlyOwner() {\r\n        require(isOwner[msg.sender], \"owner only\");\r\n        _;\r\n    }\r\n\r\n    modifier ownerDoesNotExist(address _owner) {\r\n        require(!isOwner[_owner], \"owner already exist\");\r\n        _;\r\n    }\r\n\r\n    modifier ownerExists(address _owner) {\r\n        require(isOwner[_owner], \"owner not exist\");\r\n        _;\r\n    }\r\n\r\n    function increaseNonce(address _owner)\r\n        internal\r\n        ownerExists(_owner)\r\n        returns(bytes32)\r\n    {\r\n        bytes32 txId = nextTxId(_owner);\r\n        ownerNonce[_owner]++;\r\n        return txId;\r\n    }\r\n\r\n    function nextTxId(address _owner)\r\n        public\r\n        view\r\n        ownerExists(_owner)\r\n        returns(bytes32)\r\n    {\r\n        return sha256(abi.encodePacked(_owner, ownerNonce[_owner]));\r\n    }\r\n\r\n    function lastTxId(address _owner)\r\n        public\r\n        view\r\n        ownerExists(_owner)\r\n        returns(bytes32)\r\n    {\r\n        require(ownerNonce[_owner] > 0, \"no tx found\");\r\n        return sha256(abi.encodePacked(_owner, ownerNonce[_owner] - 1));\r\n    }\r\n\r\n    function ownersCount()\r\n        public\r\n        view\r\n        returns(uint)\r\n    {\r\n        return owners.length;\r\n    }\r\n}\r\n\r\ncontract Wallet is Owners{\r\n    event Confirmation(bytes32 indexed transactionId, address sender, uint count);\r\n    event Revocation(bytes32 indexed transactionId, address sender, uint count);\r\n    event Submission(bytes32 indexed transactionId, address sender);\r\n    event ExecutionSuccess(bytes32 indexed transactionId, bytes result);\r\n    event ExecutionFailure(bytes32 indexed transactionId);\r\n    event Deposit(address indexed sender, uint value);\r\n    event RequirementChange(uint required);\r\n\r\n    event DistributedCoin(uint total, uint share);\r\n    event DistributedERC20(address tokenAddress, uint total, uint share);\r\n\r\n    event TokenDeposit(address ntfPool, uint amount);\r\n    event RequestOut(address ntfPool, uint amount);\r\n    event TokenMemberWithdraw(address ntfPool);\r\n    event CoinWithdraw(address ntfPool);\r\n\r\n    mapping (bytes32 => Transaction) public transactions;\r\n\r\n    mapping (bytes32 => mapping (address => bool)) public confirmations;\r\n\r\n    uint public required;\r\n    uint public executedTxCount;\r\n    uint public pendingTxCount;\r\n\r\n    uint256 public deployedAt;\r\n\r\n    struct Transaction {\r\n        address destination;\r\n        uint value;\r\n        bytes data;\r\n        bool executed;\r\n        uint count;\r\n        bytes32 description;\r\n    }\r\n\r\n    modifier onlyWallet() {\r\n        require(msg.sender == address(this), \"only wallet calls itself\");\r\n        _;\r\n    }\r\n\r\n    modifier transactionExists(bytes32 _transactionId) {\r\n        require(transactions[_transactionId].destination != address(0), \"tx not exist\");\r\n        _;\r\n    }\r\n\r\n    modifier confirmed(bytes32 _transactionId, address _owner) {\r\n        require(confirmations[_transactionId][_owner], \"owner not confirmed this tx\");\r\n        _;\r\n    }\r\n\r\n    modifier notConfirmed(bytes32 _transactionId, address _owner) {\r\n        require(!confirmations[_transactionId][_owner], \"owner already confirmed this tx\");\r\n        _;\r\n    }\r\n\r\n    modifier notExecuted(bytes32 _transactionId) {\r\n        require(!transactions[_transactionId].executed, \"tx already executed\");\r\n        _;\r\n    }\r\n\r\n    modifier notNull(address _address) {\r\n        require(_address != address(0), \"address 0x0 not accepted\");\r\n        _;\r\n    }\r\n\r\n    modifier validRequirement(uint ownerCount, uint _required) {\r\n        require(\r\n            _required <= ownerCount &&\r\n            _required != 0 &&\r\n            ownerCount != 0, \"requirements not full filled\");\r\n        _;\r\n    }\r\n\r\n    /// @dev Fallback function allows to deposit ether.\r\n    function()\r\n        external\r\n        payable\r\n    {\r\n        emit Deposit(msg.sender, msg.value);\r\n    }\r\n\r\n    /*\r\n     * Public functions\r\n     */\r\n    /// @dev Contract constructor sets initial _owners and required number of confirmations.\r\n    /// @param _owners List of initial owners.\r\n    /// @param _ownerNames List of initial ownerNames.\r\n    /// @param _required Number of required confirmations.\r\n    constructor (address payable[] memory _owners, bytes32[] memory _ownerNames, uint _required)\r\n        public\r\n        validRequirement(_owners.length, _required)\r\n    {\r\n        deployedAt = block.number;\r\n        for (uint i = 0; i < _owners.length; i++) {\r\n            if (isOwner[_owners[i]] || _owners[i] == address(0))\r\n                revert(\"owner duplicate in input\");\r\n            isOwner[_owners[i]] = true;\r\n            ownerName[_owners[i]] = _ownerNames[i];\r\n        }\r\n        owners = _owners;\r\n        required = _required;\r\n    }\r\n\r\n    /// @dev Allows to add a new _owner. Transaction has to be sent by wallet.\r\n    /// @param _owner Address of new owner.\r\n    /// @param _ownerName Name of new owner.\r\n    function addOwner(address payable _owner, bytes32 _ownerName)\r\n        public\r\n        onlyWallet\r\n        ownerDoesNotExist(_owner)\r\n        notNull(_owner)\r\n        validRequirement(owners.length + 1, required)\r\n    {\r\n        isOwner[_owner] = true;\r\n        ownerName[_owner] = _ownerName;\r\n        owners.push(_owner);\r\n        emit OwnerAddition(_owner, _ownerName);\r\n    }\r\n\r\n    /// @dev Allows to remove an _owner. Transaction has to be sent by wallet.\r\n    /// @param _owner Address of _owner.\r\n    function removeOwner(address _owner)\r\n        public\r\n        onlyWallet\r\n        ownerExists(_owner)\r\n    {\r\n        isOwner[_owner] = false;\r\n        for (uint i = 0; i < owners.length - 1; i++)\r\n            if (owners[i] == _owner) {\r\n                owners[i] = owners[owners.length - 1];\r\n                break;\r\n            }\r\n        owners.length -= 1;\r\n        if (required > owners.length)\r\n            changeRequirement(owners.length);\r\n        emit OwnerRemoval(_owner, ownerName[_owner]);\r\n    }\r\n\r\n    /// @dev Allows to replace an owner with a new owner. Transaction has to be sent by wallet.\r\n    /// @param _owner Address of owner to be replaced.\r\n    /// @param _newOwner Address of new owner.\r\n    /// @param _newOwnerName Name of new owner.\r\n    function replaceOwner(address payable _owner, address payable _newOwner, bytes32  _newOwnerName)\r\n        public\r\n        onlyWallet\r\n        ownerExists(_owner)\r\n        ownerDoesNotExist(_newOwner)\r\n    {\r\n        for (uint i = 0; i < owners.length; i++)\r\n            if (owners[i] == _owner) {\r\n                owners[i] = _newOwner;\r\n                break;\r\n            }\r\n        isOwner[_owner] = false;\r\n        isOwner[_newOwner] = true;\r\n        emit OwnerRemoval(_owner, ownerName[_owner]);\r\n        emit OwnerAddition(_newOwner, _newOwnerName);\r\n    }\r\n\r\n    /// @dev Allows to replace an ownerName with a new ownerName. Transaction has to be sent by wallet.\r\n    /// @param _owner Address of owner to update ownerName.\r\n    /// @param _newOwnerName New owner's name.\r\n    function updateOwnerName(address _owner, bytes32  _newOwnerName)\r\n        public\r\n        onlyWallet\r\n        ownerExists(_owner)\r\n    {\r\n        bytes32 oldOwnerName = ownerName[_owner];\r\n        ownerName[_owner] = _newOwnerName;\r\n        emit OwnerUpdateName(_owner, oldOwnerName, _newOwnerName);\r\n    }\r\n\r\n    /// @dev Allows to change the number of required confirmations. Transaction has to be sent by wallet.\r\n    /// @param _required Number of required confirmations.\r\n    function changeRequirement(uint _required)\r\n        public\r\n        onlyWallet\r\n        validRequirement(owners.length, _required)\r\n    {\r\n        required = _required;\r\n        emit RequirementChange(_required);\r\n    }\r\n\r\n    /// @dev Allows an owner to submit and confirm a transaction.\r\n    /// @param destination Transaction target address.\r\n    /// @param value Transaction ether value.\r\n    /// @param data Transaction data payload.\r\n    /// @return Returns transaction ID.\r\n    function submitTransaction(address _destination, uint _value, bytes memory _data, bytes32 _description)\r\n        public\r\n        returns (bytes32 transactionId)\r\n    {\r\n        transactionId = addTransaction(_destination, _value, _data, _description);\r\n        confirmTransaction(transactionId);\r\n        pendingTxCount++;\r\n    }\r\n\r\n    /// @dev Allows an owner to confirm a transaction.\r\n    /// @param transactionId Transaction ID.\r\n    function confirmTransaction(bytes32 transactionId)\r\n        public\r\n        ownerExists(msg.sender)\r\n        transactionExists(transactionId)\r\n        notConfirmed(transactionId, msg.sender)\r\n    {\r\n        confirmations[transactionId][msg.sender] = true;\r\n        transactions[transactionId].count++;\r\n        emit Confirmation(transactionId, msg.sender, transactions[transactionId].count);\r\n        executeTransaction(transactionId);\r\n    }\r\n\r\n    /// @dev Allows an owner to revoke a confirmation for a transaction.\r\n    /// @param _transactionId Transaction ID.\r\n    function revokeConfirmation(bytes32 _transactionId)\r\n        public\r\n        ownerExists(msg.sender)\r\n        confirmed(_transactionId, msg.sender)\r\n        notExecuted(_transactionId)\r\n    {\r\n        confirmations[_transactionId][msg.sender] = false;\r\n        transactions[_transactionId].count--;\r\n        emit Revocation(_transactionId, msg.sender, transactions[_transactionId].count);\r\n    }\r\n\r\n    /// @dev Allows anyone to execute a confirmed transaction.\r\n    /// @param _transactionId Transaction ID.\r\n    function executeTransaction(bytes32 _transactionId)\r\n        public\r\n        notExecuted(_transactionId)\r\n    {\r\n        if (isConfirmed(_transactionId)) {\r\n            Transaction storage tx = transactions[_transactionId];\r\n            tx.executed = true;\r\n            (bool success, bytes memory result) = tx.destination.call.value(tx.value)(tx.data);\r\n            if (success) {\r\n                emit ExecutionSuccess(_transactionId, result);\r\n                executedTxCount++;\r\n                pendingTxCount--;\r\n            }\r\n            else {\r\n                emit ExecutionFailure(_transactionId);\r\n                tx.executed = false;\r\n            }\r\n        }\r\n    }\r\n\r\n    /// @dev Returns the confirmation status of a transaction.\r\n    /// @param _transactionId Transaction ID.\r\n    /// @return Confirmation status.\r\n    function isConfirmed(bytes32 _transactionId)\r\n        public\r\n        view\r\n        returns (bool)\r\n    {\r\n        return transactions[_transactionId].count >= required;\r\n    }\r\n\r\n    /*\r\n     * Internal functions\r\n     */\r\n    /// @dev Adds a new transaction to the transaction mapping, if transaction does not exist yet.\r\n    /// @param _destination Transaction target address.\r\n    /// @param _value Transaction ether value.\r\n    /// @param _data Transaction data payload.\r\n    /// @param _description Transaction description.\r\n    /// @return Returns transaction ID, creator.\r\n    function addTransaction(address _destination, uint _value, bytes memory _data, bytes32 _description)\r\n        internal\r\n        notNull(_destination)\r\n        returns (bytes32 transactionId)\r\n    {\r\n        transactionId = increaseNonce(msg.sender);\r\n        transactions[transactionId] = Transaction({\r\n            destination: _destination,\r\n            value: _value,\r\n            data: _data,\r\n            executed: false,\r\n            count: 0,\r\n            description: _description\r\n        });\r\n        emit Submission(transactionId, msg.sender);\r\n    }\r\n\r\n    /// @dev distrubute coins to all owners\r\n    function distributeCoin()\r\n        public\r\n        onlyWallet\r\n    {\r\n        uint total = address(this).balance;\r\n        uint share = address(this).balance / ownersCount();\r\n        address payable owner;\r\n        for (uint i = 0; i < ownersCount(); i++) {\r\n            owner = owners[i];\r\n            owner.transfer(share);\r\n        }\r\n        emit DistributedCoin(total, share);\r\n    }\r\n\r\n    /// @dev distrubute ERC20 tokens to all owners\r\n    /// @param _tokenAddress ERC20 Token Address\r\n    function distributeERC20(address _tokenAddress)\r\n        public\r\n        onlyWallet\r\n    {\r\n        IERC20 tokenContract = IERC20(_tokenAddress);\r\n        uint total = tokenContract.balanceOf(address(this));\r\n        uint share = total / ownersCount();\r\n        for (uint i = 0; i < ownersCount(); i++) {\r\n            address owner = owners[i];\r\n            tokenContract.transfer(owner, share);\r\n        }\r\n        emit DistributedERC20(_tokenAddress, total, share);\r\n    }\r\n\r\n    function tokenDeposit(address _ntfPoolAddress, uint _amount)\r\n        public\r\n        onlyWallet\r\n    {\r\n        IERC20 ntfContract = IERC20(0x2c783AD80ff980EC75468477E3dD9f86123EcBDa);\r\n        ntfContract.approve(_ntfPoolAddress, _amount);\r\n        NtfPoolI(_ntfPoolAddress).tokenDeposit(_amount);\r\n        emit TokenDeposit(_ntfPoolAddress, _amount);\r\n    }\r\n\r\n    function requestOut(address _ntfPoolAddress, uint _amount)\r\n        public\r\n        onlyWallet\r\n    {\r\n        NtfPoolI(_ntfPoolAddress).requestOut(_amount);\r\n        emit RequestOut(_ntfPoolAddress, _amount);\r\n    }\r\n\r\n    function tokenMemberWithdraw(address _ntfPoolAddress)\r\n        public\r\n        onlyOwner\r\n    {\r\n        NtfPoolI(_ntfPoolAddress).tokenMemberWithdraw();\r\n        emit TokenMemberWithdraw(_ntfPoolAddress);\r\n    }\r\n\r\n    function coinWithdraw(address _ntfPoolAddress)\r\n        public\r\n        onlyOwner\r\n    {\r\n        NtfPoolI(_ntfPoolAddress).coinWithdraw();\r\n        emit CoinWithdraw(_ntfPoolAddress);\r\n    }\r\n\r\n    function getConfirmStatus(bytes32 _transactionId, address _owner)\r\n        public\r\n        view\r\n        returns(bool)\r\n    {\r\n        return confirmations[_transactionId][_owner];\r\n    }\r\n\r\n    /// @dev Returns array with owner addresses, which confirmed transaction.\r\n    /// @param _transactionId Transaction ID.\r\n    /// @return Returns array of owner addresses.\r\n    function getConfirmations(bytes32 _transactionId)\r\n        public\r\n        view\r\n        returns (address[] memory _confirmations)\r\n    {\r\n        address[] memory confirmationsTemp = new address[](owners.length);\r\n        uint count = 0;\r\n        uint i;\r\n        for (i = 0; i < owners.length; i++)\r\n            if (confirmations[_transactionId][owners[i]]) {\r\n                confirmationsTemp[count] = owners[i];\r\n                count += 1;\r\n            }\r\n        _confirmations = new address[](count);\r\n        for (i = 0; i < count; i++)\r\n            _confirmations[i] = confirmationsTemp[i];\r\n    }\r\n}",
  "sourcePath": "C:/Users/bestb/Desktop/Nexty/daf/contracts/Wallet.sol",
  "compiler": {
    "name": "solc",
    "version": "0.5.0+commit.1d4f565a.Emscripten.clang"
  },
  "schemaVersion": "3.0.11",
  "updatedAt": "2019-07-20T08:40:22.858Z",
  "devdoc": {
    "methods": {
      "addOwner(address,bytes32)": {
        "params": {
          "_ownerName": "Name of new owner."
        }
      },
      "changeRequirement(uint256)": {
        "params": {
          "_required": "Number of required confirmations."
        }
      },
      "confirmTransaction(bytes32)": {
        "params": {
          "transactionId": "Transaction ID."
        }
      },
      "constructor": {
        "params": {
          "_required": "Number of required confirmations."
        }
      },
      "distributeCoin()": {
        "details": "distrubute coins to all owners"
      },
      "distributeERC20(address)": {
        "params": {
          "_tokenAddress": "ERC20 Token Address"
        }
      },
      "executeTransaction(bytes32)": {
        "params": {
          "_transactionId": "Transaction ID."
        }
      },
      "getConfirmations(bytes32)": {
        "return": "Returns array of owner addresses."
      },
      "isConfirmed(bytes32)": {
        "return": "Confirmation status."
      },
      "removeOwner(address)": {
        "params": {
          "_owner": "Address of _owner."
        }
      },
      "replaceOwner(address,address,bytes32)": {
        "params": {
          "_newOwnerName": "Name of new owner."
        }
      },
      "revokeConfirmation(bytes32)": {
        "params": {
          "_transactionId": "Transaction ID."
        }
      },
      "submitTransaction(address,uint256,bytes,bytes32)": {
        "return": "Returns transaction ID."
      },
      "updateOwnerName(address,bytes32)": {
        "params": {
          "_newOwnerName": "New owner's name."
        }
      }
    }
  },
  "userdoc": {
    "methods": {}
  }
}